:0400000034EF00F0E9
:100008000782F2A40AEF00F00CEF00F032EF00F0E4
:10001800044A052A600E041807E1EA0E0518D8A458
:1000280018EF00F01AEF00F032EF00F081BC1FEF7C
:1000380000F023EF00F0026A022A24EF00F0026ABF
:1000480002500108036E033A034603468150031821
:10005800BF0B0318816E0650A5EC01F00792110042
:0400680082EF01F032
:1003000000750000A80EF66E030EF76E000EF86E74
:100310000900F5CF06F0056A046A07900792000EFF
:10032000F86E030EF76E0001B2EF01F09488948A24
:10033000948C949E8484400EC76E240EC66E9E9646
:10034000000EC26E0F0EC16E1200016E01C0C9FF19
:100350009EA6ADEF01F0AFEF01F0A8EF01F09E9681
:10036000C9501200F28EF28CBEEC01F0CAEC01F022
:1003700096EC01F0BAEF01F034EF00F0608A60888B
:10038000F80E6016B69EB69CB694B686B688B68051
:10039000B6921200B792B796B798B79A000E886EC9
:0903A000000E876EB78012000107
:020000040020DA
:08000000FFFFFFFFFFFFFFFF00
:020000040030CA
:0E000000FFCC0F3E3C9D85FF0FC00FE00F4070
:00000001FF
