:04000000F2EF00F02B
:100008005F82D9CF55F0DACF56F0F3CF57F0F4CF5F
:1000180058F0A3A412EF00F014EF00F036EF00F050
:10002800A4A419EF00F01BEF00F036EF00F064C055
:100038001AF065C01BF066C01CF067C01DF0000E0A
:100048001E6E000E1F6E800E206E3F0E216E82EC1B
:1000580001F01AC064F01BC065F01CC066F01DC03A
:1000680067F0A494F2A43BEF00F03DEF00F0E8EF56
:1000780000F081BC42EF00F046EF00F0536A532ACB
:1000880047EF00F0536A53500108546E543A5446EF
:10009800544681505418BF0B5418816E64C001F047
:1000A80065C002F066C003F067C004F09A0E056EE2
:1000B800990E066EB50E076E410E086EE2EC03F05F
:1000C80001C064F002C065F003C066F004C067F0C8
:1000D800000E596E000E5A6E3E0E5B6E430E5C6E3D
:1000E80059C036F05AC037F05BC038F05CC039F000
:1000F800F7EC05F036C04AF037C04BF038C04CF08A
:1001080039C04DF0B0EC09F0BE6E59C036F05AC097
:1001180037F05BC038F05CC039F0F7EC05F036C05A
:100128004AF037C04BF038C04CF039C04DF0DEEC27
:1001380009F0536E533ABD505318CF0B5318BD6E88
:100148006F0E246E000E256E64C01AF065C01BF099
:1001580066C01CF067C01DF0DEEC07F01AC026F080
:100168001BC027F0000E296E0A0E286E26EC0AF036
:10017800000E5E6E000E5D6ECDEF00F06F0E5D241A
:10018800D96E000E5E20DA6EDF50C7EC0AF05D4AC9
:100198005E2A6F0E5D24D96E000E5E20DA6EDF5087
:1001A800D8A4D9EF00F0DBEF00F0C2EF00F00A0EA0
:1001B800C7EC0AF0000E0001646F000E656F000EB8
:1001C800666F000E676FF29458C0F4FF57C0F3FFD4
:1001D80056C0DAFF55C0D9FF5F92110048EF0AF008
:10030000007500001D50800B266E1D501D24286EA8
:100310001CAE8DEF01F08FEF01F090EF01F028801F
:100320002850D8B496EF01F098EF01F0ADEF01F04E
:100330002828D8A49EEF01F0A0EF01F0A8EF01F06B
:10034000000E1A6E000E1B6E000E1C6E000E1D6E4F
:100350001C8E000E1D6EB5EF01F0000E1A6E000E21
:100360001B6E000E1C6E000E1D6E2150800B276E42
:1003700026502718D8B4BFEF01F0C1EF01F0C2EF4B
:1003800001F0268C21502124276E20AECAEF01F007
:10039000CCEF01F0CDEF01F027802750D8B4D3EF98
:1003A00001F0D5EF01F0EAEF01F02728D8A4DBEF48
:1003B00001F0DDEF01F0E5EF01F0000E1E6E000E22
:1003C0001F6E000E206E000E216E208E000E216E1C
:1003D000F2EF01F0000E1E6E000E1F6E000E206E7A
:1003E000000E216E2850275CD8B0F9EF01F0FBEF2A
:1003F00001F022EF02F026AC00EF02F002EF02F073
:1004000004EF02F0800E261A28C029F027C028F039
:1004100029C027F01AC029F01EC01AF029C01EF00A
:100420001BC029F01FC01BF029C01FF01CC029F001
:1004300020C01CF029C020F01DC029F021C01DF0F3
:1004400029C021F0000E296E285027C022F0236A0F
:10045000225E000E235A23BE37EF02F0235009E13B
:100460001A0E225CD8A037EF02F039EF02F070EFDD
:1004700002F01A501B101C101D10D8A442EF02F0FD
:1004800045EF02F0010E46EF02F0000E296E000E5D
:100490001A6E000E1B6E000E1C6E000E1D6E27C025
:1004A00028F079EF02F029A058EF02F05AEF02F09D
:1004B00060EF02F0D89029300109296E62EF02F056
:1004C000D89029321AA067EF02F069EF02F06AEFC4
:1004D00002F0298E1D341D321C321B321A32282A9A
:1004E0002750285CD8A077EF02F079EF02F053EFA5
:1004F00002F026BC7EEF02F080EF02F0C0EF02F0C7
:100500002850D8A486EF02F088EF02F092EF02F0B4
:10051000000E1A6E000E1B6E000E1C6E000E1D6E7D
:10052000E1EF03F01E501A261F501B2220501C2200
:1005300021501D221DA09FEF02F0A1EF02F04DEF10
:1005400003F029A0A6EF02F0A8EF02F0AEEF02F050
:10055000D89029300109296EB0EF02F0D8902932E5
:100560001AA0B5EF02F0B7EF02F0B8EF02F0298E53
:100570001D341D321C321B321A32282A4DEF03F073
:100580001E501A5C1F501B5820501C581D50800ACA
:10059000226E2150800A2258D8B0D1EF02F0D3EF5A
:1005A00002F0FEEF02F01A501E5C226E1B501F5824
:1005B000236E1C502058246E1D502158256EFF0EAE
:1005C00022241A6EFF0E23201B6EFF0E24201C6EA9
:1005D000FF0E25201D6E800E261A296C2950D8A4E6
:1005E000F4EF02F0F6EF02F006EF03F0010E1A2628
:1005F000000E1B221C221D2206EF03F01E501A5E65
:100600001F501B5A20501C5A21501D5A1A501B10A3
:100610001C101D10D8A40FEF03F011EF03F046EFEC
:1006200003F02950D8A417EF03F019EF03F046EFB9
:1006300003F0000E1A6E000E1B6E000E1C6E000EF4
:100640001D6EE1EF03F0D8901A361B361C361D36AE
:1006500029AE2DEF03F02FEF03F030EF03F01A80F7
:1006600029A035EF03F037EF03F03BEF03F0D8801C
:1006700029363DEF03F0D89029362850D8B443EFFF
:1006800003F045EF03F046EF03F028061CAE4BEFF6
:1006900003F04DEF03F023EF03F0000E276E29AEB9
:1006A00054EF03F056EF03F06EEF03F029C022F091
:1006B0007F0E2216D8B45FEF03F061EF03F065EF11
:1006C00003F0010E276E6EEF03F01AA06AEF03F03D
:1006D0006CEF03F06EEF03F061EF03F02750D8B436
:1006E00074EF03F076EF03F0A1EF03F0010E1A268A
:1006F000000E1B221C221D221DA081EF03F083EFA0
:1007000003F0A1EF03F01AC022F01BC023F01CC0BD
:1007100024F01DC025F02534253224322332223224
:1007200022C01AF023C01BF024C01CF025C01DF00D
:100730002828D8B49EEF03F0A0EF03F0A1EF03F058
:10074000282A2828D8B4A7EF03F0A9EF03F0B1EFC7
:1007500003F02850D8A4AFEF03F0B1EF03F0C3EFDC
:1007600003F0000E1A6E000E1B6E000E1C6E000EC3
:100770001D6E2850D8A4BFEF03F0C1EF03F0C3EF04
:1007800003F0000E266E28A0C8EF03F0CAEF03F0B6
:10079000CDEF03F01C8ECEEF03F01C9ED8902830D6
:1007A0001D6E26AED6EF03F0D8EF03F0D9EF03F0BD
:1007B0001D8E1AC01AF01BC01BF01CC01CF01DC0FF
:1007C0001DF012000450800B0D6E04500424136EB3
:1007D00003AEEDEF03F0EFEF03F0F0EF03F0138063
:1007E0001350D8B4F6EF03F0F8EF03F00BEF04F07A
:1007F0001328D8A4FEEF03F000EF04F008EF04F094
:10080000000E016E000E026E000E036E000E046EEE
:10081000038E13EF04F0000E016E000E026E000E48
:10082000036E000E046E0850800B0D1A0850082449
:10083000126E07AE1EEF04F020EF04F021EF04F07B
:1008400012801250D8B427EF04F029EF04F03CEFE7
:1008500004F01228D8A42FEF04F031EF04F039EFA0
:1008600004F0000E056E000E066E000E076E000E00
:10087000086E078E44EF04F0000E056E000E066E43
:10088000000E076E000E086E1250D8B44AEF04F046
:100890004CEF04F054EF04F01350D8A452EF04F0DE
:1008A00054EF04F05EEF04F0000E016E000E026ED5
:1008B000000E036E000E046EF6EF05F00750010205
:1008C000F3CF18F0F4CF19F018500E6E0F6A106ABB
:1008D000116A1950146E156A166A176A06500202D8
:1008E000F3CF18F0F4CF19F018500E26000E0F2297
:1008F0001022112219501426000E1522162217223A
:1009000005500302F3CF18F0F4CF19F018500E265B
:10091000000E0F221022112219501426000E15224B
:100920001622172210C011F00FC010F00EC00FF0E9
:100930000E6A05500202F3CF18F0F4CF19F01850E8
:100940000E2619500F22000E1022000E1122065002
:100950000102F3CF18F0F4CF19F018500E261950F9
:100960000F22000E1022000E112210C011F00FC035
:1009700010F00EC00FF00E6A05500102F3CF18F010
:10098000F4CF19F018500E2619500F22000E102225
:10099000000E112207500202F3CF18F0F4CF19F025
:1009A0001850142619501522000E1622000E172278
:1009B00006500302F3CF18F0F4CF19F018501426A4
:1009C00019501522000E1622000E1722075003029E
:1009D000F3CF18F0F4CF19F01850096E19500A6EC1
:1009E0000B6A0C6A0BC00CF00AC00BF009C00AF0CD
:1009F000096A095014260A5015220B5016220C5071
:100A000017220EC009F00FC00AF010C00BF011C081
:100A10000CF0190E11EF05F0D8900C320B320A329F
:100A20000932E82E0CEF05F0095014260A50152261
:100A30000B5016220C50172210C011F00FC010F0EE
:100A40000EC00FF00E6A125013C009F00A6A092690
:100A5000000E0A22820E0924186EFF0E0A20196E5B
:100A600047EF05F0D890143615361636173611AE06
:100A70003CEF05F03EEF05F03FEF05F01480D89015
:100A80000E360F36103611361806D8A0190616AED7
:100A90004CEF05F04EEF05F032EF05F0000E126E50
:100AA00011AE55EF05F057EF05F07BEF05F0FF0EA7
:100AB0000E14096EFF0E0F140A6EFF0E10140B6E4B
:100AC0007F0E11140C6E09500A100B100C10D8B4C4
:100AD0006CEF05F06EEF05F072EF05F0010E126E8F
:100AE0007BEF05F014A077EF05F079EF05F07BEFD1
:100AF00005F06EEF05F01250D8B481EF05F083EFEA
:100B000005F0A7EF05F0010E1426000E152216229F
:100B1000172217A08EEF05F090EF05F0A7EF05F074
:100B200014C009F015C00AF016C00BF017C00CF085
:100B30000C340C320B320A32093209C014F00AC0EC
:100B400015F00BC016F00CC017F0184A192A19BE80
:100B5000B2EF05F0195008E11828D8A0B2EF05F05F
:100B6000B4EF05F0BEEF05F0000E146E000E156E2A
:100B7000800E166E7F0E176EECEF05F019BECBEFF0
:100B800005F0195006E11804D8B0C9EF05F0CBEF15
:100B900005F0D7EF05F0000E146E000E156E000E76
:100BA000166E000E176E000E0D6EECEF05F018C0FD
:100BB00013F0FF0E1416FF0E15167F0E1616000EFC
:100BC000171613A0E6EF05F0E8EF05F0E9EF05F0E2
:100BD000168ED8901330176E0D50171214C001F0F6
:100BE00015C002F016C003F017C004F01200000E8A
:100BF0003A6E000E3B6E200E3C6E400E3D6E960E21
:100C00003E6E430E3F6E8B0E406E3C0E416E64C0D6
:100C10002AF065C02BF066C02CF067C02DF036C0FE
:100C20002EF037C02FF038C030F039C031F003EC6F
:100C30000AF02AC042F02BC043F02CC044F02DC073
:100C400045F060C01AF061C01BF062C01CF063C0C8
:100C50001DF042C01EF043C01FF044C020F045C04C
:100C600021F082EC01F01AC060F01BC061F01CC0E2
:100C700062F01DC063F042C005F043C006F044C0FE
:100C800007F045C008F03AC001F03BC002F03CC09C
:100C900003F03DC004F0E2EC03F001C01AF002C022
:100CA0001BF003C01CF004C01DF060C005F061C063
:100CB00006F062C007F063C008F03EC001F03FC01C
:100CC00002F040C003F041C004F0E2EC03F001C0C8
:100CD0001EF002C01FF003C020F004C021F082EC1F
:100CE00001F01AC046F01BC047F01CC048F01DC000
:100CF00049F0000E016E000E026EC80E036E420E29
:100D0000046E46C005F047C006F048C007F049C071
:100D100008F061EC08F0D8B090EF06F092EF06F022
:100D20009AEF06F0000E466E000E476EC80E486E33
:100D3000420E496E46C001F047C002F048C003F0C1
:100D400049C004F0000E056E000E066EC80E076E58
:100D5000C20E086E61EC08F0D8B0B1EF06F0B3EF48
:100D600006F0BBEF06F0000E466E000E476EC80E92
:100D7000486EC20E496E49BEC2EF06F0C0EF06F0E3
:100D8000C4EF06F082808292000E016E000E026EA9
:100D9000000E036E000E046E46C005F047C006F05C
:100DA00048C007F049C008F061EC08F0D8B0DBEFAC
:100DB00006F0DDEF06F0DFEF06F08290828246C09B
:100DC0001AF047C01BF048C01CF049C01DF0DEEC13
:100DD00007F01AC024F01BC025F067EC0AF024C00D
:100DE00028F025C029F0000E29BEFF0E2A6E2B6EBA
:100DF000010E04EC07F028C036F029C037F02AC0F5
:100E000038F02BC039F01200306E3050D8B40BEFF0
:100E100007F00DEF07F02FEF07F02BBE14EF07F0F0
:100E200012EF07F02FEF07F028C02CF029C02DF0AB
:100E30002AC02EF02BC02FF02C1E2D1E2E1E2F1E72
:100E40002C2A000E2D222E222F222CC032F02DC053
:100E500033F02EC034F02FC035F037EF07F028C044
:100E600032F029C033F02AC034F02BC035F02850BE
:100E700029102A102B10D8A440EF07F042EF07F0FA
:100E80004CEF07F0000E286E000E296E000E2A6E41
:100E9000000E2B6EDDEF07F0960E316E56EF07F069
:100EA000312AD8903532343233323232000E321495
:100EB0002C6E000E33142D6E000E34142E6EFE0EAA
:100EC00035142F6E2C502D102E102F10D8A46BEF30
:100ED00007F06DEF07F050EF07F07BEF07F0312AD6
:100EE000010E3226000E332234223522D8903532BC
:100EF000343233323232000E32142C6E000E331480
:100F00002D6E000E34142E6EFF0E35142F6E2C50E5
:100F10002D102E102F10D8A490EF07F092EF07F0AD
:100F20006FEF07F09AEF07F03106D890323633367C
:100F30003436353634BE9FEF07F0A1EF07F0A9EF46
:100F400007F0020E3160A7EF07F0A9EF07F094EF6A
:100F500007F031B0AEEF07F0B0EF07F0B1EF07F0F8
:100F6000349ED890313231C02CF02D6A2E6A2F6A0F
:100F70002CC02FF02E6A2D6A2C6A2C5032122D5064
:100F800033122E5034122F5035123050D8B4CBEFCC
:100F900007F0CDEF07F0D5EF07F02BBED4EF07F049
:100FA000D2EF07F0D5EF07F0358E32C028F033C00E
:100FB00029F034C02AF035C02BF012001C341D3447
:100FC000236E2350D8A4E7EF07F0E9EF07F0F3EF23
:100FD00007F0000E1A6E000E1B6E000E1C6E000E47
:100FE0001D6E60EF08F01AC01EF01BC01FF01CC081
:100FF00020F01DC021F0200E03EF08F0D890213220
:1010000020321F321E32E82EFEEF07F01E50226EF5
:101010001C8EFF0E1A16FF0E1B16FF0E1C16000E5E
:101020001D16960E235E23BE1AEF08F018EF08F087
:1010300030EF08F02350800A970FD8B022EF08F065
:1010400024EF08F026EF08F0E9EF07F0D8901D3202
:101050001C321B321A32233E26EF08F048EF08F00C
:101060001F0E236436EF08F038EF08F040EF08F069
:10107000E9EF07F0D8901A361B361C361D362306CA
:101080002350D8A446EF08F048EF08F03AEF08F0F4
:101090002250D8B44EEF08F050EF08F058EF08F0A7
:1010A0001D1E1C1E1B1E1A6C000E1B221C221D2244
:1010B0001AC01AF01BC01BF01CC01CF01DC01DF094
:1010C0001200000E0114096E000E02140A6E800E4A
:1010D00003140B6E7F0E04140C6E09500A100B10D3
:1010E0000C10D8A476EF08F078EF08F080EF08F045
:1010F000000E016E000E026E000E036E000E046EF6
:10110000000E0514096E000E06140A6E800E0714F8
:101110000B6E7F0E08140C6E09500A100B100C1089
:10112000D8A495EF08F097EF08F09FEF08F0000EB5
:10113000056E000E066E000E076E000E086E04AE01
:10114000A4EF08F0A6EF08F0AFEF08F0016C021E64
:10115000D8B0022A031ED8B0032A800E045608AE67
:10116000B4EF08F0B6EF08F0BFEF08F0056C061E0C
:10117000D8B0062A071ED8B0072A800E0856000EDF
:10118000011A000E021A000E031A800E041A000E35
:10119000051A000E061A000E071A800E081A0550CE
:1011A000015C065002580750035808500458D8B044
:1011B000DCEF08F0DEEF08F0E1EF08F0D890E2EFA6
:1011C00008F0D88012000AC00EF00BC00FF00EC05D
:1011D00001F00FC002F00CC003F00DC004F044ECAD
:1011E00009F001C00EF002C00FF0084A092A0E50A3
:1011F0000F10D8A4FEEF08F000EF09F0E7EF08F0B9
:1012000008C0D9FF09C0DAFF000EDF6E0806D8A0BB
:1012100009060AC001F00BC002F00CC003F00DC0BB
:1012200004F07EEC09F00150106E0AC001F00BC012
:1012300002F00CC003F00DC004F044EC09F001C052
:101240000AF002C00BF0090E106429EF09F02BEF31
:1012500009F02DEF09F0070E1026300E102608C0F9
:10126000D9FF09C0DAFF10C0DFFF0806D8A00906C1
:101270000A500B10D8A43FEF09F041EF09F009EF35
:1012800009F0084A092A1200000E066E000E056ECB
:1012900003500410D8B44FEF09F051EF09F079EF83
:1012A00009F0010E076E59EF09F0D89003360436A5
:1012B000072A04AE5EEF09F060EF09F055EF09F080
:1012C000D890053606360350015C04500258D8A069
:1012D0006CEF09F06EEF09F073EF09F00350015E57
:1012E0000450025A0580D89004320332072E60EF72
:1012F00009F005C001F006C002F01200035004100E
:10130000D8B485EF09F087EF09F0ABEF09F0010ED3
:10131000056E8FEF09F0D89003360436052A04AE27
:1013200094EF09F096EF09F08BEF09F00350015CA0
:1013300004500258D8A09FEF09F0A1EF09F0A5EFE3
:1013400009F00350015E0450025AD890043203326F
:10135000052E96EF09F001C001F002C002F0120064
:10136000F20E056ED20E066E230E076E410E086E4B
:101370004AC001F04BC002F04CC003F04DC004F075
:10138000E2EC03F001C01AF002C01BF003C01CF035
:1013900004C01DF0DEEC07F01AC050F01BC051F085
:1013A00050C04EF051C04FF04F344F324E324F3498
:1013B0004F324E324E50526E52501200F20E056EA7
:1013C000D20E066E230E076E410E086E4AC001F063
:1013D0004BC002F04CC003F04DC004F0E2EC03F04F
:1013E00001C01AF002C01BF003C01CF004C01DF0C5
:1013F000DEEC07F01AC04EF01BC04FF04E50030B4E
:10140000506E50501200000E2E1A000E2F1A000EB1
:10141000301A800E311A2AC01AF02BC01BF02CC0D3
:101420001CF02DC01DF02EC01EF02FC01FF030C0CC
:1014300020F031C021F082EC01F01AC02AF01BC06C
:101440002BF01CC02CF01DC02DF0120027BE2DEF7C
:101450000AF02BEF0AF039EF0AF024C0D9FF25C0BB
:10146000DAFF2D0EDF6E244A252A266C271ED8B0FF
:10147000272A24C008F025C009F026C00AF027C09A
:101480000BF028C00CF029C00DF0E3EC08F01200BE
:10149000C40EF66E150EF76E000EF86E00EE83F0B9
:1014A00010EE07F00900F5CFEEFFE550E150FAE14C
:1014B00000EE60F0230EEE6AE806FDE15F905F92B9
:1014C000000EF86E030EF76E000181EF0AF025BEE4
:1014D0006EEF0AF06CEF0AF07CEF0AF024C026F001
:1014E00025C027F0261E271E264A272A26C024F0BC
:1014F00027C025F080EF0AF024C024F025C025F095
:101500001200F28EF28C939C818CB0EC0AF093EC7A
:101510000AF0D2EC0AF0A3EC0AF0BCEC0AF08FEF70
:101520000AF0F2EF00F0608A6088F80E6016B68E5E
:10153000B688B686B694000E656E010E646EB690DF
:10154000B692A3841200F28AD58CD59AD596D5840A
:10155000D582D580000ED76E000ED66ED58E1200C5
:10156000949C948EAC94AC98AC8AAB8EAB889D8ADC
:101570009D981F0EAF6E12009494CB68DCEC0AF0BD
:10158000BD86BD8494909492828082921200016EF6
:1015900001C0ADFFACA2CFEF0AF0D1EF0AF0CAEF65
:1015A0000AF01200B792B796B798B79A000E886EF5
:1015B000000E876EB7801200000ECA6ECA80CA8203
:0B15C000CA841200366E0100640001B6
:020000040020DA
:08000000FFFFFFFFFFFFFFFF00
:020000040030CA
:0E000000FFCC0F3E3C9D85FF0FC00FE00F4070
:00000001FF
