:0400000069EF00F0B4
:100008003B82D9CF19F0DACF1AF0F2A40EEF00F044
:1000180010EF00F063EF00F0214A222A300E211879
:1000280007E1750E2218D8A41CEF00F01EEF00F0AF
:1000380063EF00F0240E116E000E126E000E146EA7
:10004800EF0E136E000E166E0A0E156E4FEC02F0D0
:10005800000E1C6E000E1B6E3DEF00F0240E1B24DC
:10006800D96E000E1C20DA6EDF50C4EC02F01B4A79
:100078001C2A240E1B24D96E000E1C20DA6EDF50B9
:10008800D8A449EF00F04BEF00F032EF00F00A0E71
:10009800C4EC02F081BC53EF00F057EF00F0176A90
:1000A800172A58EF00F0176A17500108186E183A07
:1000B8001846184681501818BF0B1818816E1AC0B8
:0E00C800DAFF19C0D9FF3B92110071EF02F070
:10030000007500000AC00EF00BC00FF00EC001F027
:100310000FC002F00CC003F00DC004F0E3EC01F0DC
:1003200001C00EF002C00FF0084A092A0E500F104B
:10033000D8A49DEF01F09FEF01F086EF01F008C017
:10034000D9FF09C0DAFF000EDF6E0806D8A0090643
:100350000AC001F00BC002F00CC003F00DC004F0A5
:100360001DEC02F00150106E0AC001F00BC002F04B
:100370000CC003F00DC004F0E3EC01F001C00AF082
:1003800002C00BF0090E1064C8EF01F0CAEF01F0D3
:10039000CCEF01F0070E1026300E102608C0D9FF52
:1003A00009C0DAFF10C0DFFF0806D8A009060A500E
:1003B0000B10D8A4DEEF01F0E0EF01F0A8EF01F0A0
:1003C000084A092A1200000E066E000E056E035040
:1003D0000410D8B4EEEF01F0F0EF01F018EF02F0E6
:1003E000010E076EF8EF01F0D89003360436072AA5
:1003F00004AEFDEF01F0FFEF01F0F4EF01F0D89053
:10040000053606360350015C04500258D8A00BEFA5
:1004100002F00DEF02F012EF02F00350015E045003
:10042000025A0580D89004320332072EFFEF01F004
:1004300005C001F006C002F0120003500410D8B449
:1004400024EF02F026EF02F04AEF02F0010E056EF3
:100450002EEF02F0D89003360436052A04AE33EFAF
:1004600002F035EF02F02AEF02F00350015C045075
:100470000258D8A03EEF02F040EF02F044EF02F045
:100480000350015E0450025AD89004320332052E04
:1004900035EF02F001C001F002C002F0120014BEFC
:1004A00056EF02F054EF02F062EF02F011C0D9FFF4
:1004B00012C0DAFF2D0EDF6E114A122A136C141EC1
:1004C000D8B0142A11C008F012C009F013C00AF005
:1004D00014C00BF015C00CF016C00DF082EC01F04A
:1004E0001200B20EF66E050EF76E000EF86E0900E1
:1004F000F5CF38F00900F5CF39F00900F5CF3AF023
:1005000000EE1DF01B0EEE6AE806FDE13B903B920B
:10051000000EF86E030EF76E00018FEF02F0F28E00
:10052000F28C939C818CACEC02F0B8EC02F0CFEC36
:1005300002F09FEC02F09BEF02F069EF00F0F28A0C
:10054000D58CD59AD596D584D592D580000ED76E08
:10055000000ED66ED58E1200949C948EAC94AC98FE
:10056000AC8AAB8EAB889D8A9D981F0EAF6E120031
:10057000608A6088F80E6016B69EB69CB694B68601
:10058000B688B680B6921200016E01C0ADFFACA273
:10059000CCEF02F0CEEF02F0C7EF02F01200B792FC
:1005A000B796B798B79A000E886E000E876EB78020
:0505B0001200640001CF
:020000040020DA
:08000000FFFFFFFFFFFFFFFF00
:020000040030CA
:0E000000FFCC0F3E3C9D85FF0FC00FE00F4070
:00000001FF
