:04000000CAEF00F053
:100008003382D9CF17F0DACF18F0F2A40EEF00F050
:1000180010EF00F0C4EF00F01B4A1C2A1B041C1050
:10002800D8A419EF00F01BEF00F0C4EF00F081CF67
:100038001EF083CF1DF01F0E116E000E126E1EC033
:1000480013F0146A000E166E0A0E156E99EC01F084
:10005800000E1A6E000E196E0A0E1E6036EF00F0C2
:1000680038EF00F040EF00F0300EEEEC01F0300E0B
:10007800EEEC01F060EF00F00A0E1E6446EF00F0AF
:1000880048EF00F060EF00F0640E1E604EEF00F0E5
:1000980050EF00F060EF00F0300EEEEC01F060EF92
:1000A80000F01F0E1924D96E000E1A20DA6EDF50E8
:1000B800EEEC01F0194A1A2A1F0E1924D96E000E07
:1000C8001A20DA6EDF50D8A46CEF00F06EEF00F063
:1000D80055EF00F01F0E116E000E126E1DC013F0CA
:1000E800146A000E166E0A0E156E99EC01F0000ED9
:1000F8001A6E000E196E0A0E1D6085EF00F087EF6C
:1001080000F08FEF00F0300EEEEC01F0300EEEEC68
:1001180001F0AFEF00F00A0E1D6495EF00F097EFC5
:1001280000F0AFEF00F0640E1D609DEF00F09FEF50
:1001380000F0AFEF00F0300EEEEC01F0AFEF00F0A2
:100148001F0E1924D96E000E1A20DA6EDF50EEEC5D
:1001580001F0194A1A2A1F0E1924D96E000E1A2006
:10016800DA6EDF50D8A4BBEF00F0BDEF00F0A4EFCB
:1001780000F00A0EEEEC01F0000E1C6E000E1B6E75
:1001880018C0DAFF17C0D9FF33921100E3EF01F06E
:100198000AC00EF00BC00FF00EC001F00FC002F045
:1001A8000CC003F00DC004F02DEC01F001C00EF0FE
:1001B80002C00FF0084A092A0E500F10D8A4E7EF22
:1001C80000F0E9EF00F0D0EF00F008C0D9FF09C057
:1001D800DAFF000EDF6E0806D8A009060AC001F093
:1001E8000BC002F00CC003F00DC004F067EC01F086
:1001F8000150106E0AC001F00BC002F00CC003F0F1
:100208000DC004F02DEC01F001C00AF002C00BF0A3
:10021800090E106412EF01F014EF01F016EF01F06F
:10022800070E1026300E102608C0D9FF09C0DAFFC5
:1002380010C0DFFF0806D8A009060A500B10D8A482
:1002480028EF01F02AEF01F0F2EF00F0084A092A3E
:100258001200000E066E000E056E03500410D8B48E
:1002680038EF01F03AEF01F062EF01F0010E076E8E
:1002780042EF01F0D89003360436072A04AE47EF60
:1002880001F049EF01F03EEF01F0D890053606364F
:100298000350015C04500258D8A055EF01F057EF05
:1002A80001F05CEF01F00350015E0450025A058032
:1002B800D89004320332072E49EF01F005C001F04F
:1002C80006C002F0120003500410D8B46EEF01F01B
:1002D80070EF01F094EF01F0010E056E78EF01F078
:1002E800D89003360436052A04AE7DEF01F07FEF7F
:1002F80001F074EF01F00350015C04500258D8A0DB
:1003080088EF01F08AEF01F08EEF01F00350015EF3
:100318000450025AD89004320332052E7FEF01F0C0
:1003280001C001F002C002F0120014BEA0EF01F0FB
:100338009EEF01F0ACEF01F011C0D9FF12C0DAFF57
:100348002D0EDF6E114A122A136C141ED8B0142A0F
:1003580011C008F012C009F013C00AF014C00BF065
:1003680015C00CF016C00DF0CCEC00F0120093682C
:100378009568969096929694F28EF28CD7EC01F04E
:10038800CAEC01F0C6EF01F0CAEF00F0F28AD58C92
:10039800D59AD596D594D592D590000ED76EFA0EEB
:1003A800D66ED58E1200949C948EAC94AC98AC8A80
:1003B800AB8EAB889D8A9D981F0EAF6E120000EE23
:1003C8001BF0180EEE6AE806FDE133903392000147
:1003D800BBEF01F0016E01C0ADFFACA2F6EF01F07A
:0A03E800F8EF01F0F1EF01F0120050
:020000040020DA
:08000000FFFFFFFFFFFFFFFF00
:020000040030CA
:0E000000FFCC0F3E3C9985FF0FC00FE00F4074
:00000001FF
