:0400000091EF00F08C
:100008003C82D9CF19F0DACF1AF0F2A40EEF00F043
:1000180010EF00F06DEF00F0234A242A300E231869
:1000280007E1750E2418D8A41CEF00F01EEF00F0AD
:100038006DEF00F0B0EC01F01B6E81BC26EF00F014
:100048002AEF00F0176A172A2BEF00F0176A1750EB
:100058000108186E183A1846184681501818BF0B30
:100068001818816E260E116E000E126E000E146E98
:10007800EF0E136E000E166E0A0E156E60EC01F090
:10008800000E1D6E000E1C6E55EF00F0260E1C248F
:10009800D96E000E1D20DA6EDF5017EC02F01C4AF4
:1000A8001D2A260E1C24D96E000E1D20DA6EDF5084
:1000B800D8A461EF00F063EF00F04AEF00F00A0EF9
:1000C80017EC02F01B5017EC02F0000E246E000E25
:1000D800236E9EAA72EF00F074EF00F08BEF00F031
:1000E80022EC02F01E6E610E1E18D8A47EEF00F0FE
:1000F80080EF00F081EF00F0818E620E1E18D8A408
:1001080088EF00F08AEF00F08BEF00F0819E1AC0B4
:10011800DAFF19C0D9FF3C92110082EF01F00AC042
:100128000EF00BC00FF00EC001F00FC002F00CC0B3
:1001380003F00DC004F0F4EC00F001C00EF002C0B2
:100148000FF0084A092A0E500F10D8A4AEEF00F09D
:10015800B0EF00F097EF00F008C0D9FF09C0DAFF50
:10016800000EDF6E0806D8A009060AC001F00BC011
:1001780002F00CC003F00DC004F02EEC01F00150A9
:10018800106E0AC001F00BC002F00CC003F00DC0E5
:1001980004F0F4EC00F001C00AF002C00BF0090E04
:1001A8001064D9EF00F0DBEF00F0DDEF00F0070E90
:1001B8001026300E102608C0D9FF09C0DAFF10C07B
:1001C800DFFF0806D8A009060A500B10D8A4EFEFE5
:1001D80000F0F1EF00F0B9EF00F0084A092A120028
:1001E800000E066E000E056E03500410D8B4FFEF23
:1001F80000F001EF01F029EF01F0010E076E09EFA1
:1002080001F0D89003360436072A04AE0EEF01F049
:1002180010EF01F005EF01F0D890053606360350CF
:10022800015C04500258D8A01CEF01F01EEF01F049
:1002380023EF01F00350015E0450025A0580D89064
:1002480004320332072E10EF01F005C001F006C09A
:1002580002F0120003500410D8B435EF01F037EF64
:1002680001F05BEF01F0010E056E3FEF01F0D89051
:1002780003360436052A04AE44EF01F046EF01F0D8
:100288003BEF01F00350015C04500258D8A04FEF37
:1002980001F051EF01F055EF01F00350015E0450F9
:1002A800025AD89004320332052E46EF01F001C0FD
:1002B80001F002C002F0120014BE67EF01F065EF12
:1002C80001F073EF01F011C0D9FF12C0DAFF2D0E53
:1002D800DF6E114A122A136C141ED8B0142A11C0EA
:1002E80008F012C009F013C00AF014C00BF015C0D2
:1002F8000CF016C00DF093EC00F01200560EF66EDE
:10030800040EF76E000EF86E0900F5CF3AF00900FA
:10031800F5CF3BF000EE1FF01B0EEE6AE806FDE19C
:100328003C903C920001C4EF01F0016EC9509E96CA
:10033800C69E01C0C9FFC6AEA4EF01F0A6EF01F04A
:10034800A8EF01F0AFEF01F09EA6ADEF01F0AFEF1F
:1003580001F0A8EF01F012008294EF0E99EC01F081
:100368000BEC02F00009D8B4BCEF01F0BEEF01F0CD
:10037800B4EF01F0F2EC01F0026E82840250120038
:10038800F28EF28C000E936EFFEC01F0E5EC01F0BA
:10039800818C94948284D5EC01F0D1EF01F091EF37
:1003A80000F09D869F869584959695928484400E4C
:1003B800C76E200EC66E9E96000EC26E0F0EC16EE0
:1003C8001200F28AD58CD59AD596D584D592D58047
:1003D800000ED76E000ED66ED58E1200C9509E96AE
:1003E800000EC96E9EA6FBEF01F0FDEF01F0F6EFDF
:1003F80001F0C9501200949C948EAC94AC98AC8ACD
:10040800AB8EAB889D8A9D981F0EAF6E1200C7A059
:1004180010EF02F012EF02F015EF02F0010E16EFE6
:1004280002F0000E1200016E01C0ADFFACA21FEF7A
:1004380002F021EF02F01AEF02F012009EAA27EF55
:1004480002F029EF02F022EF02F0AE501200640031
:020000040020DA
:08000000FFFFFFFFFFFFFFFF00
:020000040030CA
:0E000000FFCC0F3E3C9985FF0FC00FE00F4074
:00000001FF
