:0400000052EF00F0CB
:100008004282D9CF3BF0DACF3CF0F2A40EEF00F0F9
:1000180010EF00F02EEF00F00B4A0C2AC70E0B1859
:100028000C10D8A41AEF00F01CEF00F01EEF00F03F
:10003800B5EC00F0C80E0B180C10D8A426EF00F091
:1000480028EF00F02EEF00F0FDEC00F0000E0C6E33
:10005800000E0B6E9EAA33EF00F035EF00F04CEF68
:1000680000F06CEC02F03D6E610E3D18D8A43FEF35
:1000780000F041EF00F042EF00F0818E620E3D1873
:10008800D8A449EF00F04BEF00F04CEF00F0819E50
:100098003CC0DAFF3BC0D9FF429211000AEF02F0E0
:1000A8002BC02FF02CC030F02FC022F030C023F02E
:1000B8002DC024F02EC025F045EC01F022C02FF011
:1000C80023C030F0294A2A2A2F503010D8A46FEFC5
:1000D80000F071EF00F058EF00F029C0D9FF2AC0F6
:1000E800DAFF000EDF6E2906D8A02A062BC022F000
:1000F8002CC023F02DC024F02EC025F0B6EC01F062
:100108002250316E2BC022F02CC023F02DC024F0D9
:100118002EC025F045EC01F022C02BF023C02CF0B6
:10012800090E31649AEF00F09CEF00F09EEF00F0AA
:10013800070E3126300E312629C0D9FF2AC0DAFF32
:1001480031C0DFFF2906D8A02A062B502C10D8A4CE
:10015800B0EF00F0B2EF00F07AEF00F0294A2A2A57
:100168001200000E236E020E226E7FEC01F03A6E32
:100178003A50D8A4C2EF00F0C4EF00F0C6EF00F088
:10018800C9EF00F03AC003F0046A420E61EC02F0D5
:100198000E0E326E000E336E03C034F004C035F01C
:1001A800000E376E0A0E366EE8EC01F0000E396E5E
:1001B800000E386EEBEF00F00E0E3824D96E000EEC
:1001C8003920DA6EDF5061EC02F0384A392A0E0E17
:1001D8003824D96E000E3920DA6EDF50D8A4F7EF34
:1001E80000F0F9EF00F0E0EF00F00A0E61EC02F029
:1001F8001200000E236E010E226E7FEC01F03A6EA3
:100208003A50D8A40AEF01F00CEF01F00EEF01F01C
:1002180011EF01F03AC005F0066A410E61EC02F0F8
:100228000E0E326E000E336E05C034F006C035F087
:10023800000E376E0A0E366EE8EC01F0000E396ECD
:10024800000E386E33EF01F00E0E3824D96E000E12
:100258003920DA6EDF5061EC02F0384A392A0E0E86
:100268003824D96E000E3920DA6EDF50D8A43FEF5B
:1002780001F041EF01F028EF01F00A0E61EC02F005
:100288001200000E276E000E266E24502510D8B4DA
:1002980050EF01F052EF01F07AEF01F0010E286EF5
:1002A8005AEF01F0D89024362536282A25AE5FEF7C
:1002B80001F061EF01F056EF01F0D89026362736AD
:1002C8002450225C25502358D8A06DEF01F06FEF21
:1002D80001F074EF01F02450225E2550235A268045
:1002E800D89025322432282E61EF01F026C022F062
:1002F80027C023F0120022042310D8A486EF01F0AF
:1003080088EF01F089EF01F08294020E2218231081
:10031800D8A491EF01F093EF01F094EF01F08292ED
:10032800C9509E96000EC96E9EA69DEF01F09FEFE4
:1003380001F098EF01F022042310D8A4A6EF01F0F1
:10034800A8EF01F0A9EF01F08284020E2218231011
:10035800D8A4B1EF01F0B3EF01F0B4EF01F082825D
:10036800C950120024502510D8B4BDEF01F0BFEFDA
:1003780001F0E3EF01F0010E266EC7EF01F0D8900F
:1003880024362536262A25AECCEF01F0CEEF01F033
:10039800C3EF01F02450225C25502358D8A0D7EF92
:1003A80001F0D9EF01F0DDEF01F02450225E255075
:1003B800235AD89025322432262ECEEF01F022C0BF
:1003C80022F023C023F0120035BEEFEF01F0EDEF6D
:1003D80001F0FBEF01F032C0D9FF33C0DAFF2D0E78
:1003E800DF6E324A332A346C351ED8B0352A32C013
:1003F80029F033C02AF034C02BF035C02CF036C0B9
:100408002DF037C02EF054EC00F01200EA0EF66E14
:10041800040EF76E000EF86E00EE3EF010EE04F0DB
:100428000900F5CFEEFFE550E150FAE100EE01F0EA
:10043800210EEE6AE806FDE142904292000125EFA6
:1004480002F0F28EF28C000E936E55EC02F048EC3E
:1004580002F0818C949482849492828238EC02F027
:1004680034EF02F052EF00F09D869F8695849596B2
:1004780095928484400EC76E200EC66E9E96000E1E
:10048800C26E0F0EC16E1200F28AD58CD59AD5961F
:10049800D584D592D580000ED76E000ED66ED58E37
:1004A8001200949C948EAC94AC98AC8AAB8EAB88BA
:1004B8009D8A9D981F0EAF6E1200226E22C0ADFF5E
:1004C800ACA269EF02F06BEF02F064EF02F01200E9
:1004D8009EAA71EF02F073EF02F06CEF02F0AE50DB
:0604E80012000100640097
:020000040020DA
:08000000FFFFFFFFFFFFFFFF00
:020000040030CA
:0E000000FFCC0F3E3C9985FF0FC00FE00F4074
:00000001FF
