:0400000076EF00F0A7
:100008003982D9CF32F0DACF33F0F2A40EEF00F014
:1000180010EF00F052EF00F0054A062A600E0518AE
:1000280007E1EA0E0618D8A41CEF00F01EEF00F056
:1000380052EF00F0829467EC01F0076E8284080E9C
:100048002C6E000E2D6E07C02EF02F6A000E316E3A
:100058000A0E306E45EC01F0000E356E000E346E5F
:1000680041EF00F0080E3424D96E000E3520DA6E08
:10007800DF50D6EC01F0344A352A080E3424D96E04
:10008800000E3520DA6EDF50D8A44DEF00F04FEFA8
:1000980000F036EF00F00A0ED6EC01F09EAA57EFFA
:1000A80000F059EF00F070EF00F0E1EC01F0366E6F
:1000B800610E3618D8A463EF00F065EF00F066EF24
:1000C80000F0818E620E3618D8A46DEF00F06FEF45
:1000D80000F070EF00F0819E33C0DAFF32C0D9FF24
:1000E8003992110087EF01F025C029F026C02AF0C7
:1000F80029C01CF02AC01DF027C01EF028C01FF020
:10010800D9EC00F01CC029F01DC02AF0234A242A8B
:1001180029502A10D8A493EF00F095EF00F07CEF57
:1001280000F023C0D9FF24C0DAFF000EDF6E2306DB
:10013800D8A0240625C01CF026C01DF027C01EF03C
:1001480028C01FF013EC01F01C502B6E25C01CF0CA
:1001580026C01DF027C01EF028C01FF0D9EC00F003
:100168001CC025F01DC026F0090E2B64BEEF00F060
:10017800C0EF00F0C2EF00F0070E2B26300E2B2642
:1001880023C0D9FF24C0DAFF2BC0DFFF2306D8A085
:10019800240625502610D8A4D4EF00F0D6EF00F09E
:1001A8009EEF00F0234A242A1200000E216E000E52
:1001B800206E1E501F10D8B4E4EF00F0E6EF00F0F8
:1001C8000EEF01F0010E226EEEEF00F0D8901E3611
:1001D8001F36222A1FAEF3EF00F0F5EF00F0EAEF2A
:1001E80000F0D890203621361E501C5C1F501D5838
:1001F800D8A001EF01F003EF01F008EF01F01E5065
:100208001C5E1F501D5A2080D8901F321E32222E8D
:10021800F5EF00F020C01CF021C01DF012001E50A8
:100228001F10D8B41AEF01F01CEF01F040EF01F0F5
:10023800010E206E24EF01F0D8901E361F36202ABA
:100248001FAE29EF01F02BEF01F020EF01F01E5057
:100258001C5C1F501D58D8A034EF01F036EF01F098
:100268003AEF01F01E501C5E1F501D5AD8901F32E5
:100278001E32202E2BEF01F01CC01CF01DC01DF0FB
:1002880012002FBE4CEF01F04AEF01F058EF01F0D9
:100298002CC0D9FF2DC0DAFF2D0EDF6E2C4A2D2A77
:1002A8002E6C2F1ED8B02F2A2CC023F02DC024F07E
:1002B8002EC025F02FC026F030C027F031C028F01E
:1002C80078EC00F01200C9689EA66DEF01F06FEFA0
:1002D80001F068EF01F081BC74EF01F078EF01F0F4
:1002E8001C6A1C2A79EF01F01C6A1C5001081D6E5B
:1002F8001D3A1D461D4681501D18BF0B1D18816EE5
:100308009E96C9501200D40EF66E030EF76E000EBC
:10031800F86E0900F5CF37F00900F5CF38F000EE98
:1003280001F01B0EEE6AE806FDE1399039920001F2
:100338009EEF01F0F28EF28C000E936ECAEC01F083
:10034800BDEC01F0818C94948284AFEC01F0ABEFAA
:1003580001F076EF00F09584959695928484400E8E
:10036800C76E240EC66E9E96000EC26E0F0EC16E2C
:100378001200F28AD58CD59AD596D584D592D58097
:10038800000ED76E000ED66ED58E1200949C948EF9
:10039800AC94AC98AC8AAB8EAB889D8A9D981F0EA6
:1003A800AF6E12001C6E1CC0ADFFACA2DEEF01F0F8
:1003B800E0EF01F0D9EF01F012009EAAE6EF01F09C
:0E03C800E8EF01F0E1EF01F0AE50120064002A
:020000040020DA
:08000000FFFFFFFFFFFFFFFF00
:020000040030CA
:0E000000FFCC0F3E3C9985FF0FC00FE00F4074
:00000001FF
