:0400000052EF00F0CB
:100008003E82D9CF39F0DACF3AF0F2A40EEF00F001
:1000180010EF00F02EEF00F0094A0A2A280E0918FE
:100028000A10D8A41AEF00F01CEF00F022EF00F03D
:10003800B5EC00F0000E0A6E000E096E140E0918D9
:100048000A10D8A42AEF00F02CEF00F02EEF00F0F1
:10005800BFEC01F09EAA33EF00F035EF00F04CEF53
:1000680000F035EC02F03B6E610E3B18D8A43FEF70
:1000780000F041EF00F042EF00F0818E620E3B1875
:10008800D8A449EF00F04BEF00F04CEF00F0819E50
:100098003AC0DAFF39C0D9FF3E921100D7EF01F01C
:1000A80029C02DF02AC02EF02DC020F02EC021F03E
:1000B8002BC022F02CC023F0FAEC00F020C02DF069
:1000C80021C02EF0274A282A2D502E10D8A46FEFD1
:1000D80000F071EF00F058EF00F027C0D9FF28C0FA
:1000E800DAFF000EDF6E2706D8A0280629C020F008
:1000F8002AC021F02BC022F02CC023F06BEC01F0B9
:1001080020502F6E29C020F02AC021F02BC022F0E9
:100118002CC023F0FAEC00F020C029F021C02AF00E
:10012800090E2F649AEF00F09CEF00F09EEF00F0AC
:10013800070E2F26300E2F2627C0D9FF28C0DAFF3A
:100148002FC0DFFF2706D8A0280629502A10D8A4D8
:10015800B0EF00F0B2EF00F07AEF00F0274A282A5B
:100168001200000E216E010E206E34EC01F0386E84
:100178003850D8A4C2EF00F0C4EF00F0C6EF00F08A
:10018800C9EF00F038C003F0046A0C0E306E000EA0
:10019800316E03C032F004C033F0000E356E0A0E23
:1001A800346E9DEC01F0000E376E000E366EE8EFEF
:1001B80000F00C0E3624D96E000E3720DA6EDF50B0
:1001C8002AEC02F0364A372A0C0E3624D96E000E75
:1001D8003720DA6EDF50D8A4F4EF00F0F6EF00F025
:1001E800DDEF00F00A0E2AEC02F01200000E256E78
:1001F800000E246E22502310D8B405EF01F007EF4B
:1002080001F02FEF01F0010E266E0FEF01F0D890EC
:1002180022362336262A23AE14EF01F016EF01F01A
:100228000BEF01F0D890243625362250205C23505D
:100238002158D8A022EF01F024EF01F029EF01F0B6
:100248002250205E2350215A2480D8902332223213
:10025800262E16EF01F024C020F025C021F0120050
:1002680020042110D8A43BEF01F03DEF01F03EEF50
:1002780001F08294020E20182110D8A446EF01F054
:1002880048EF01F049EF01F08292C9509E96000EA6
:10029800C96E9EA652EF01F054EF01F04DEF01F048
:1002A80020042110D8A45BEF01F05DEF01F05EEFB0
:1002B80001F08284020E20182110D8A466EF01F004
:1002C80068EF01F069EF01F08282C95012002250F4
:1002D8002310D8B472EF01F074EF01F098EF01F039
:1002E800010E246E7CEF01F0D89022362336242AA2
:1002F80023AE81EF01F083EF01F078EF01F0225097
:10030800205C23502158D8A08CEF01F08EEF01F02B
:1003180092EF01F02250205E2350215AD8902332C8
:100328002232242E83EF01F020C020F021C021F0DA
:10033800120033BEA4EF01F0A2EF01F0B0EF01F01C
:1003480030C0D9FF31C0DAFF2D0EDF6E304A312AB6
:10035800326C331ED8B0332A30C027F031C028F0B1
:1003680032C029F033C02AF034C02BF035C02CF04D
:1003780054EC00F01200000E216E020E206E34ECD8
:1003880001F0226E2250D8A4CCEF01F0CEEF01F09C
:10039800D0EF01F0D3EF01F022C001F0026A0A0E9B
:1003A8002AEC02F012007C0EF66E040EF76E000EB8
:1003B800F86E0900F5CF3CF00900F5CF3DF000EEEE
:1003C80001F01F0EEE6AE806FDE13E903E92000144
:1003D800EEEF01F0F28EF28C000E936E1EEC02F03E
:1003E80011EC02F0818C949482849492828201ECC4
:1003F80002F0FDEF01F052EF00F09D869F86958494
:10040800959695928484400EC76E200EC66E9E9671
:10041800000EC26E0F0EC16E1200F28AD58CD59AEC
:10042800D596D584D592D580000ED76E000ED66E9F
:10043800D58E1200949C948EAC94AC98AC8AAB8EFA
:10044800AB889D8A9D981F0EAF6E1200206E20C04B
:10045800ADFFACA232EF02F034EF02F02DEF02F064
:1004680012009EAA3AEF02F03CEF02F035EF02F0DC
:06047800AE50120064000A
:020000040020DA
:08000000FFFFFFFFFFFFFFFF00
:020000040030CA
:0E000000FFCC0F3E3C9985FF0FC00FE00F4074
:00000001FF
