:04000000ABEF01F071
:100008005F82F3CF2CF0F4CF2DF0A3A40EEF00F015
:1000180010EF00F032EF00F0A4A415EF00F017EF96
:1000280000F032EF00F042C01AF043C01BF044C0A9
:100038001CF045C01DF0000E1E6E000E1F6E800ED7
:10004800206E3F0E216EADEC01F01AC042F01BC0CD
:1000580043F01CC044F01DC045F0A494F2A437EF4F
:1000680000F039EF00F0A5EF01F071EC08F0506EE8
:100078005050D8A442EF00F044EF00F046EF00F0F3
:1000880048EF00F050C05DF04E4A4F2A4E044F1022
:10009800D8A451EF00F053EF00F083EF00F0835045
:1000A800016E026A036A046A000E22EC06F001C0BF
:1000B80042F002C043F003C044F004C045F0B70E5C
:1000C800056EB70E066EB70E076E3F0E086E42C07D
:1000D80001F043C002F044C003F045C004F00DEC49
:1000E80004F001C01AF002C01BF003C01CF004C0E9
:1000F8001DF0FCEC06F01AC048F01BC049F0020ED7
:100108004E184F10D8A48BEF00F08DEF00F086EF5B
:1001180001F0000E366E000E376E000E386E000EBF
:10012800396E000E576E000E586EA00E596E400EB6
:100138005A6E000E536E000E546E000E556E000E71
:10014800566E5D502A6E2B6A48502A5E49502B5ACB
:100158002AC001F02BC002F0000E02BEFF0E036E93
:10016800046E010E22EC06F001C032F002C033F03A
:1001780003C034F004C035F02EC01AF02FC01BF0B5
:1001880030C01CF031C01DF032C01EF033C01FF06B
:1001980034C020F035C021F0ADEC01F01AC02EF0CB
:1001A8001BC02FF01CC030F01DC031F032C005F06C
:1001B80033C006F034C007F035C008F057C001F06E
:1001C80058C002F059C003F05AC004F00DEC04F016
:1001D80001C01AF002C01BF003C01CF004C01DF0DF
:1001E8002EC005F02FC006F030C007F031C008F06F
:1001F80053C001F054C002F055C003F056C004F0DB
:100208000DEC04F001C01EF002C01FF003C020F086
:1002180004C021F0ADEC01F01AC036F01BC037F075
:100228001CC038F01DC039F0000E016E000E026EC1
:10023800C80E036E420E046E36C005F037C006F0D5
:1002480038C007F039C008F07FEC07F0D8B02FEFBE
:1002580001F031EF01F039EF01F0000E366E000EBB
:10026800376EC80E386E420E396E36C001F037C090
:1002780002F038C003F039C004F0000E056E000E1D
:10028800066EC80E076EC20E086E7FEC07F0D8B077
:1002980050EF01F052EF01F05AEF01F0000E366E08
:1002A800000E376EC80E386EC20E396E000E1E6E06
:1002B800000E1F6EC80E206E420E216E36C01AF058
:1002C80037C01BF038C01CF039C01DF0ADEC01F090
:1002D8001AC001F01BC002F01CC003F01DC004F0DE
:1002E800330E056E330E066EA30E076E3F0E086EB4
:1002F8000DEC04F001C036F002C037F003C038F04E
:1003080004C039F0030E4E184F10D8A48EEF01F038
:1003180090EF01F0A4EF01F036C01AF037C01BF0DF
:1003280038C01CF039C01DF0FCEC06F01AC04EF0C5
:100338001BC04FF04EC081FF000E4F6E000E4E6E78
:10034800F2942DC0F4FF2CC0F3FF5F92110001EF6F
:1003580008F01D50800B266E1D501D24286E1CAE03
:10036800B8EF01F0BAEF01F0BBEF01F02880285098
:10037800D8B4C1EF01F0C3EF01F0D8EF01F028289D
:10038800D8A4C9EF01F0CBEF01F0D3EF01F0000ED4
:100398001A6E000E1B6E000E1C6E000E1D6E1C8E5B
:1003A800000E1D6EE0EF01F0000E1A6E000E1B6EBF
:1003B800000E1C6E000E1D6E2150800B276E2650FD
:1003C8002718D8B4EAEF01F0ECEF01F0EDEF01F0F7
:1003D800268C21502124276E20AEF5EF01F0F7EF8F
:1003E80001F0F8EF01F027802750D8B4FEEF01F0B4
:1003F80000EF02F015EF02F02728D8A406EF02F06C
:1004080008EF02F010EF02F0000E1E6E000E1F6ED5
:10041800000E206E000E216E208E000E216E1DEF44
:1004280002F0000E1E6E000E1F6E000E206E000EF3
:10043800216E2850275CD8B024EF02F026EF02F096
:100448004DEF02F026AC2BEF02F02DEF02F02FEF6C
:1004580002F0800E261A28C029F027C028F029C0EB
:1004680027F01AC029F01EC01AF029C01EF01BC0C0
:1004780029F01FC01BF029C01FF01CC029F020C0A4
:100488001CF029C020F01DC029F021C01DF029C092
:1004980021F0000E296E285027C022F0236A225E20
:1004A800000E235A23BE62EF02F0235009E11A0E10
:1004B800225CD8A062EF02F064EF02F09BEF02F03A
:1004C8001A501B101C101D10D8A46DEF02F070EF0D
:1004D80002F0010E71EF02F0000E296E000E1A6E86
:1004E800000E1B6E000E1C6E000E1D6E27C028F03D
:1004F800A4EF02F029A083EF02F085EF02F08BEF62
:1005080002F0D89029300109296E8DEF02F0D890B9
:1005180029321AA092EF02F094EF02F095EF02F060
:10052800298E1D341D321C321B321A32282A2750BC
:10053800285CD8A0A2EF02F0A4EF02F07EEF02F050
:1005480026BCA9EF02F0ABEF02F0EBEF02F0285067
:10055800D8A4B1EF02F0B3EF02F0BDEF02F0000E45
:100568001A6E000E1B6E000E1C6E000E1D6E0CEF38
:1005780004F01E501A261F501B2220501C22215006
:100588001D221DA0CAEF02F0CCEF02F078EF03F0B5
:1005980029A0D1EF02F0D3EF02F0D9EF02F0D89002
:1005A80029300109296EDBEF02F0D89029321AA010
:1005B800E0EF02F0E2EF02F0E3EF02F0298E1D34E3
:1005C8001D321C321B321A32282A78EF03F01E50D3
:1005D8001A5C1F501B5820501C581D50800A226E50
:1005E8002150800A2258D8B0FCEF02F0FEEF02F04A
:1005F80029EF03F01A501E5C226E1B501F58236E01
:100608001C502058246E1D502158256EFF0E2224A0
:100618001A6EFF0E23201B6EFF0E24201C6EFF0E89
:1006280025201D6E800E261A296C2950D8A41FEF8C
:1006380003F021EF03F031EF03F0010E1A26000E4C
:100648001B221C221D2231EF03F01E501A5E1F5080
:100658001B5A20501C5A21501D5A1A501B101C108E
:100668001D10D8A43AEF03F03CEF03F071EF03F04C
:100678002950D8A442EF03F044EF03F071EF03F0E0
:10068800000E1A6E000E1B6E000E1C6E000E1D6E04
:100698000CEF04F0D8901A361B361C361D3629AEDE
:1006A80058EF03F05AEF03F05BEF03F01A8029A02C
:1006B80060EF03F062EF03F066EF03F0D8802936AD
:1006C80068EF03F0D89029362850D8B46EEF03F0BD
:1006D80070EF03F071EF03F028061CAE76EF03F01D
:1006E80078EF03F04EEF03F0000E276E29AE7FEF90
:1006F80003F081EF03F099EF03F029C022F07F0E99
:100708002216D8B48AEF03F08CEF03F090EF03F0D1
:10071800010E276E99EF03F01AA095EF03F097EFFB
:1007280003F099EF03F08CEF03F02750D8B49FEF54
:1007380003F0A1EF03F0CCEF03F0010E1A26000E30
:100748001B221C221D221DA0ACEF03F0AEEF03F00C
:10075800CCEF03F01AC022F01BC023F01CC024F019
:100768001DC025F02534253224322332223222C0FE
:100778001AF023C01BF024C01CF025C01DF0282847
:10078800D8B4C9EF03F0CBEF03F0CCEF03F0282A7D
:100798002828D8B4D2EF03F0D4EF03F0DCEF03F04D
:1007A8002850D8A4DAEF03F0DCEF03F0EEEF03F003
:1007B800000E1A6E000E1B6E000E1C6E000E1D6ED3
:1007C8002850D8A4EAEF03F0ECEF03F0EEEF03F0C3
:1007D800000E266E28A0F3EF03F0F5EF03F0F8EF14
:1007E80003F01C8EF9EF03F01C9ED89028301D6E84
:1007F80026AE01EF04F003EF04F004EF04F01D8EC1
:100808001AC01AF01BC01BF01CC01CF01DC01DF044
:1008180012000450800B0D6E04500424136E03AEB6
:1008280018EF04F01AEF04F01BEF04F013801350D4
:10083800D8B421EF04F023EF04F036EF04F01328C6
:10084800D8A429EF04F02BEF04F033EF04F0000EE6
:10085800016E000E026E000E036E000E046E038E13
:100868003EEF04F0000E016E000E026E000E036EE5
:10087800000E046E0850800B0D1A08500824126EE2
:1008880007AE49EF04F04BEF04F04CEF04F0128090
:100898001250D8B452EF04F054EF04F067EF04F0AC
:1008A8001228D8A45AEF04F05CEF04F064EF04F0C7
:1008B800000E056E000E066E000E076E000E086E26
:1008C800078E6FEF04F0000E056E000E066E000E28
:1008D800076E000E086E1250D8B475EF04F077EF6B
:1008E80004F07FEF04F01350D8A47DEF04F07FEFFD
:1008F80004F089EF04F0000E016E000E026E000E87
:10090800036E000E046E21EF06F007500102F3CFCC
:1009180018F0F4CF19F018500E6E0F6A106A116AA9
:100928001950146E156A166A176A06500202F3CF38
:1009380018F0F4CF19F018500E26000E0F221022CE
:10094800112219501426000E1522162217220550BE
:100958000302F3CF18F0F4CF19F018500E26000E4A
:100968000F221022112219501426000E15221622C9
:10097800172210C011F00FC010F00EC00FF00E6A51
:1009880005500202F3CF18F0F4CF19F018500E26D4
:1009980019500F22000E1022000E112206500102DB
:1009A800F3CF18F0F4CF19F018500E2619500F2273
:1009B800000E1022000E112210C011F00FC010F00E
:1009C8000EC00FF00E6A05500102F3CF18F0F4CFF5
:1009D80019F018500E2619500F22000E1022000E82
:1009E800112207500202F3CF18F0F4CF19F0185073
:1009F800142619501522000E1622000E1722065032
:100A08000302F3CF18F0F4CF19F018501426195038
:100A18001522000E1622000E172207500302F3CFEC
:100A280018F0F4CF19F01850096E19500A6E0B6AB5
:100A38000C6A0BC00CF00AC00BF009C00AF0096A76
:100A4800095014260A5015220B5016220C50172252
:100A58000EC009F00FC00AF010C00BF011C00CF066
:100A6800190E3CEF05F0D8900C320B320A320932DD
:100A7800E82E37EF05F0095014260A5015220B50BE
:100A880016220C50172210C011F00FC010F00EC023
:100A98000FF00E6A125013C009F00A6A0926000EF8
:100AA8000A22820E0924186EFF0E0A20196E72EFB0
:100AB80005F0D890143615361636173611AE67EF8E
:100AC80005F069EF05F06AEF05F01480D8900E364E
:100AD8000F36103611361806D8A0190616AE77EF5D
:100AE80005F079EF05F05DEF05F0000E126E11AE1E
:100AF80080EF05F082EF05F0A6EF05F0FF0E0E146B
:100B0800096EFF0E0F140A6EFF0E10140B6E7F0E87
:100B180011140C6E09500A100B100C10D8B497EF72
:100B280005F099EF05F09DEF05F0010E126EA6EFA6
:100B380005F014A0A2EF05F0A4EF05F0A6EF05F06C
:100B480099EF05F01250D8B4ACEF05F0AEEF05F010
:100B5800D2EF05F0010E1426000E152216221722D8
:100B680017A0B9EF05F0BBEF05F0D2EF05F014C000
:100B780009F015C00AF016C00BF017C00CF00C34C1
:100B88000C320B320A32093209C014F00AC015F0CF
:100B98000BC016F00CC017F0184A192A19BEDDEF61
:100BA80005F0195008E11828D8A0DDEF05F0DFEFAF
:100BB80005F0E9EF05F0000E146E000E156E800EBC
:100BC800166E7F0E176E17EF06F019BEF6EF05F0DA
:100BD800195006E11804D8B0F4EF05F0F6EF05F067
:100BE80002EF06F0000E146E000E156E000E166E63
:100BF800000E176E000E0D6E17EF06F018C013F0FA
:100C0800FF0E1416FF0E15167F0E1616000E171679
:100C180013A011EF06F013EF06F014EF06F0168E8E
:100C2800D8901330176E0D50171214C001F015C06C
:100C380002F016C003F017C004F01200096E095044
:100C4800D8B429EF06F02BEF06F04DEF06F004BEFE
:100C580032EF06F030EF06F04DEF06F001C005F078
:100C680002C006F003C007F004C008F0051E061E07
:100C7800071E081E052A000E06220722082205C0A4
:100C88000BF006C00CF007C00DF008C00EF055EFD1
:100C980006F001C00BF002C00CF003C00DF004C058
:100CA8000EF00150021003100410D8A45EEF06F0F5
:100CB80060EF06F06AEF06F0000E016E000E026E9D
:100CC800000E036E000E046EFBEF06F0960E0A6E21
:100CD80074EF06F00A2AD8900E320D320C320B321D
:100CE800000E0B14056E000E0C14066E000E0D148B
:100CF800076EFE0E0E14086E055006100710081039
:100D0800D8A489EF06F08BEF06F06EEF06F099EFA6
:100D180006F00A2A010E0B26000E0C220D220E22C6
:100D2800D8900E320D320C320B32000E0B14056EB9
:100D3800000E0C14066E000E0D14076EFF0E0E1436
:100D4800086E0550061007100810D8A4AEEF06F07C
:100D5800B0EF06F08DEF06F0B8EF06F00A06D8906F
:100D68000B360C360D360E360DBEBDEF06F0BFEF56
:100D780006F0C7EF06F0020E0A60C5EF06F0C7EFEF
:100D880006F0B2EF06F00AB0CCEF06F0CEEF06F0B0
:100D9800CFEF06F00D9ED8900A320AC005F0066A19
:100DA800076A086A05C008F0076A066A056A0550F6
:100DB8000B1206500C1207500D1208500E12095053
:100DC800D8B4E9EF06F0EBEF06F0F3EF06F004BE57
:100DD800F2EF06F0F0EF06F0F3EF06F00E8E0BC020
:100DE80001F00CC002F00DC003F00EC004F01200B8
:100DF8001C341D34236E2350D8A405EF07F007EFE9
:100E080007F011EF07F0000E1A6E000E1B6E000EB1
:100E18001C6E000E1D6E7EEF07F01AC01EF01BC080
:100E28001FF01CC020F01DC021F0200E21EF07F09C
:100E3800D890213220321F321E32E82E1CEF07F0E4
:100E48001E50226E1C8EFF0E1A16FF0E1B16FF0E6A
:100E58001C16000E1D16960E235E23BE38EF07F0F3
:100E680036EF07F04EEF07F02350800A970FD8B0FF
:100E780040EF07F042EF07F044EF07F007EF07F005
:100E8800D8901D321C321B321A32233E44EF07F031
:100E980066EF07F01F0E236454EF07F056EF07F0D4
:100EA8005EEF07F007EF07F0D8901A361B361C36AE
:100EB8001D3623062350D8A464EF07F066EF07F029
:100EC80058EF07F02250D8B46CEF07F06EEF07F038
:100ED80076EF07F01D1E1C1E1B1E1A6C000E1B222F
:100EE8001C221D221AC01AF01BC01BF01CC01CF0CB
:100EF8001DC01DF01200000E0114096E000E021430
:100F08000A6E800E03140B6E7F0E04140C6E0950CB
:100F18000A100B100C10D8A494EF07F096EF07F006
:100F28009EEF07F0000E016E000E026E000E036EBB
:100F3800000E046E000E0514096E000E06140A6EEB
:100F4800800E07140B6E7F0E08140C6E09500A10E1
:100F58000B100C10D8A4B3EF07F0B5EF07F0BDEFF6
:100F680007F0000E056E000E066E000E076E000EEE
:100F7800086E04AEC2EF07F0C4EF07F0CDEF07F03C
:100F8800016C021ED8B0022A031ED8B0032A800EB4
:100F9800045608AED2EF07F0D4EF07F0DDEF07F004
:100FA800056C061ED8B0062A071ED8B0072A800E80
:100FB8000856000E011A000E021A000E031A800EBF
:100FC800041A000E051A000E061A000E071A800EE3
:100FD800081A0550015C065002580750035808507B
:100FE8000458D8B0FAEF07F0FCEF07F0FFEF07F06E
:100FF800D89000EF08F0D8801200400EF66E110E5F
:10100800F76E000EF86E00EE7AF010EE04F00900AC
:10101800F5CFEEFFE550E150FAE1280EF66E110E1D
:10102800F76E000EF86E00EE53F010EE0CF00900AB
:10103800F5CFEEFFE550E150FAE100EE60F01A0E50
:10104800EE6AE806FDE100EE2EF0250EEE6AE806EF
:10105800FDE15F905F92000132EF08F0000E936EA1
:101068009568F28EF28C45EC08F08AEC08F064EC96
:1010780008F07EEC08F055EC08F041EF08F0ABEF13
:1010880001F0609A6098F80E6016B68EB688B6863B
:10109800B694000E656E010E646EB690B692A38487
:1010A80012009488948A948C949E8484400EC76E0F
:1010B800240EC66E9E96000EC26E0F0EC16E1200F2
:1010C800F28AD58CD59AD596D584D592D580000E3E
:1010D800D76E000ED66ED58E1200C9509E96000EA1
:1010E800C96E9EA67AEF08F07CEF08F075EF08F05D
:1010F800C95012009494948CCB689AEC08F0BD8681
:10110800BD8494909492828082921200B792B7968E
:10111800B798B79A000E886E000E876EB7801200D7
:101128008FC2F53CCDCCCC3E64006401000ECA6E83
:0C113800CA80CA82CA841200366E010010
:020000040020DA
:08000000FFFFFFFFFFFFFFFF00
:020000040030CA
:0E000000FFCC0F3E3C9D85FF0FC00FE00F4070
:00000001FF
