:04000000A7EF01F075
:100008005F82D9CF57F0DACF58F0F3CF59F0F4CF59
:100018005AF0A3A412EF00F014EF00F036EF00F04E
:10002800A4A419EF00F01BEF00F036EF00F05BC05E
:100038001AF05CC01BF05DC01CF05EC01DF0000E25
:100048001E6E000E1F6E800E206E3F0E216EABECF2
:1000580001F01AC05BF01BC05CF01CC05DF01DC055
:100068005EF0A494F2A43BEF00F03DEF00F09DEFAA
:1000780001F017EC0BF000018E6F8E51D8A447EFFA
:1000880000F049EF00F04BEF00F04DEF00F08EC0AC
:1000980097F0080E8C198D11D8A455EF00F057EF82
:1000A80000F067EF00F05BC082F05CC083F05DC0D9
:1000B80084F05EC085F0000E5B6E000E5C6E000E74
:1000C8005D6E000E5E6E100E8C198D11D8A46FEF48
:1000D80000F071EF00F081EF00F05BC07EF05CC0D3
:1000E8007FF05DC080F05EC081F0000E5B6E000E98
:1000F8005C6E000E5D6E000E5E6E180E8C198D1112
:10010800D8A489EF00F08BEF00F09AEF01F082C0DD
:100118000DF083C00EF084C00FF085C010F07EC0D3
:1001280011F07FC012F080C013F081C014F05BC0E2
:1001380015F05CC016F05DC017F05EC018F02EEC2C
:1001480007F00DC05BF00EC05CF00FC05DF010C092
:100158005EF000019851D8B4B4EF00F0B6EF00F0AB
:1001680019EF01F0150E056E3B0E066EF10E076EC7
:10017800400E086E5BC001F05CC002F05DC003F089
:100188005EC004F00BEC04F001C01AF002C01BF0D2
:1001980003C01CF004C01DF0E2EC08F01AC074F0B3
:1001A8001BC075F0150E056E3B0E066EF10E076E40
:1001B800400E086E5BC001F05CC002F05DC003F049
:1001C8005EC004F00BEC04F001C01AF002C01BF092
:1001D80003C01CF004C01DF0E2EC08F01AC076F071
:1001E8001BC077F0150E056E3B0E066EF10E076EFE
:1001F800400E086E5BC001F05CC002F05DC003F009
:100208005EC004F00BEC04F001C01AF002C01BF051
:1002180003C01CF004C01DF0E2EC08F01AC078F02E
:100228001BC079F0000E0001986F150E056E3B0E8D
:10023800066EF10E076E400E086E5BC001F05CC0E2
:1002480002F05DC003F05EC004F00BEC04F001C0E6
:100258001AF002C01BF003C01CF004C01DF0E2EC51
:1002680008F000018F51020D740EF324D96E000EB0
:10027800F420DA6E1AC0DEFF1BC0DDFF7851762548
:10028800556E79517721566E74515524016E75510A
:100298005620026E000E046E030E036EE7EC09F0A2
:1002A80001C086F002C087F000018F2B030E8F1962
:1002B800D8A461EF01F063EF01F065EF01F0000EE3
:1002C8008F6F97C081FF97C036F0376A20EC06F031
:1002D80036C04CF037C04DF038C04EF039C04FF042
:1002E80049EC0AF0BE6E97C036F0376A20EC06F08B
:1002F80036C04CF037C04DF038C04EF039C04FF022
:1003080077EC0AF0556E553ABD505518CF0B551875
:10031800BD6E000E5B6E000E5C6E000E5D6E000E14
:100328005E6E000E00018D6F000E8C6F8C4B8D2B56
:10033800F2945AC0F4FF59C0F3FF58C0DAFF57C00F
:10034800D9FF5F9211009CEF0AF0007500001D5064
:10035800800B266E1D501D24286E1CAEB6EF01F0D2
:10036800B8EF01F0B9EF01F028802850D8B4BFEFFA
:1003780001F0C1EF01F0D6EF01F02828D8A4C7EFAB
:1003880001F0C9EF01F0D1EF01F0000E1A6E000E76
:100398001B6E000E1C6E000E1D6E1C8E000E1D6E58
:1003A800DEEF01F0000E1A6E000E1B6E000E1C6EC2
:1003B800000E1D6E2150800B276E26502718D8B4CA
:1003C800E8EF01F0EAEF01F0EBEF01F0268C2150A5
:1003D8002124276E20AEF3EF01F0F5EF01F0F6EFE0
:1003E80001F027802750D8B4FCEF01F0FEEF01F0B0
:1003F80013EF02F02728D8A404EF02F006EF02F06A
:100408000EEF02F0000E1E6E000E1F6E000E206E24
:10041800000E216E208E000E216E1BEF02F0000EE2
:100428001E6E000E1F6E000E206E000E216E2850EC
:10043800275CD8B022EF02F024EF02F04BEF02F075
:1004480026AC29EF02F02BEF02F02DEF02F0800E20
:10045800261A28C029F027C028F029C027F01AC07A
:1004680029F01EC01AF029C01EF01BC029F01FC0B9
:100478001BF029C01FF01CC029F020C01CF029C0A7
:1004880020F01DC029F021C01DF029C021F0000E68
:10049800296E285027C022F0236A225E000E235AB4
:1004A80023BE60EF02F0235009E11A0E225CD8A0A7
:1004B80060EF02F062EF02F099EF02F01A501B10A1
:1004C8001C101D10D8A46BEF02F06EEF02F0010EA5
:1004D8006FEF02F0000E296E000E1A6E000E1B6EF2
:1004E800000E1C6E000E1D6E27C028F0A2EF02F051
:1004F80029A081EF02F083EF02F089EF02F0D89093
:1005080029300109296E8BEF02F0D89029321AA000
:1005180090EF02F092EF02F093EF02F0298E1D3473
:100528001D321C321B321A32282A2750285CD8A0C8
:10053800A0EF02F0A2EF02F07CEF02F026BCA7EFDA
:1005480002F0A9EF02F0E9EF02F02850D8A4AFEFCB
:1005580002F0B1EF02F0BBEF02F0000E1A6E000ECF
:100568001B6E000E1C6E000E1D6E0AEF04F01E506E
:100578001A261F501B2220501C2221501D221DA06C
:10058800C8EF02F0CAEF02F076EF03F029A0CFEF30
:1005980002F0D1EF02F0D7EF02F0D890293001092C
:1005A800296ED9EF02F0D89029321AA0DEEF02F0B6
:1005B800E0EF02F0E1EF02F0298E1D341D321C320B
:1005C8001B321A32282A76EF03F01E501A5C1F508D
:1005D8001B5820501C581D50800A226E2150800A3A
:1005E8002258D8B0FAEF02F0FCEF02F027EF03F040
:1005F8001A501E5C226E1B501F58236E1C50205828
:10060800246E1D502158256EFF0E22241A6EFF0EEF
:1006180023201B6EFF0E24201C6EFF0E25201D6E4E
:10062800800E261A296C2950D8A41DEF03F01FEF5D
:1006380003F02FEF03F0010E1A26000E1B221C22D6
:100648001D222FEF03F01E501A5E1F501B5A205018
:100658001C5A21501D5A1A501B101C101D10D8A4CA
:1006680038EF03F03AEF03F06FEF03F02950D8A406
:1006780040EF03F042EF03F06FEF03F0000E1A6E45
:10068800000E1B6E000E1C6E000E1D6E0AEF04F0AD
:10069800D8901A361B361C361D3629AE56EF03F095
:1006A80058EF03F059EF03F01A8029A05EEF03F02A
:1006B80060EF03F064EF03F0D880293666EF03F0AB
:1006C800D89029362850D8B46CEF03F06EEF03F0B9
:1006D8006FEF03F028061CAE74EF03F076EF03F01B
:1006E8004CEF03F0000E276E29AE7DEF03F07FEF8D
:1006F80003F097EF03F029C022F07F0E2216D8B43A
:1007080088EF03F08AEF03F08EEF03F0010E276EF7
:1007180097EF03F01AA093EF03F095EF03F097EF2C
:1007280003F08AEF03F02750D8B49DEF03F09FEF52
:1007380003F0CAEF03F0010E1A26000E1B221C223A
:100748001D221DA0AAEF03F0ACEF03F0CAEF03F0DF
:100758001AC022F01BC023F01CC024F01DC025F0D5
:100768002534253224322332223222C01AF023C003
:100778001BF024C01CF025C01DF02828D8B4C7EFF2
:1007880003F0C9EF03F0CAEF03F0282A2828D8B4E9
:10079800D0EF03F0D2EF03F0DAEF03F02850D8A43B
:1007A800D8EF03F0DAEF03F0ECEF03F0000E1A6E67
:1007B800000E1B6E000E1C6E000E1D6E2850D8A475
:1007C800E8EF03F0EAEF03F0ECEF03F0000E266E1B
:1007D80028A0F1EF03F0F3EF03F0F6EF03F01C8E1F
:1007E800F7EF03F01C9ED89028301D6E26AEFFEF61
:1007F80003F001EF04F002EF04F01D8E1AC01AF0A6
:100808001BC01BF01CC01CF01DC01DF012000450C2
:10081800800B0D6E04500424136E03AE16EF04F023
:1008280018EF04F019EF04F013801350D8B41FEF39
:1008380004F021EF04F034EF04F01328D8A427EFD4
:1008480004F029EF04F031EF04F0000E016E000E01
:10085800026E000E036E000E046E038E3CEF04F071
:10086800000E016E000E026E000E036E000E046E86
:100878000850800B0D1A08500824126E07AE47EF77
:1008880004F049EF04F04AEF04F012801250D8B493
:1008980050EF04F052EF04F065EF04F01228D8A4EA
:1008A80058EF04F05AEF04F062EF04F0000E056E02
:1008B800000E066E000E076E000E086E078E6DEFB6
:1008C80004F0000E056E000E066E000E076E000E98
:1008D800086E1250D8B473EF04F075EF04F07DEF92
:1008E80004F01350D8A47BEF04F07DEF04F087EFF9
:1008F80004F0000E016E000E026E000E036E000E74
:10090800046E1FEF06F007500102F3CF18F0F4CF82
:1009180019F018500E6E0F6A106A116A1950146E89
:10092800156A166A176A06500202F3CF18F0F4CF58
:1009380019F018500E26000E0F22102211221950FD
:100948001426000E15221622172205500302F3CF93
:1009580018F0F4CF19F018500E26000E0F221022AE
:10096800112219501426000E15221622172210C023
:1009780011F00FC010F00EC00FF00E6A0550020201
:10098800F3CF18F0F4CF19F018500E2619500F2293
:10099800000E1022000E112206500102F3CF18F0AB
:1009A800F4CF19F018500E2619500F22000E1022FD
:1009B800000E112210C011F00FC010F00EC00FF081
:1009C8000E6A05500102F3CF18F0F4CF19F0185051
:1009D8000E2619500F22000E1022000E1122075069
:1009E8000202F3CF18F0F4CF19F01850142619505A
:1009F8001522000E1622000E172206500302F3CF0E
:100A080018F0F4CF19F01850142619501522000EBA
:100A18001622000E172207500302F3CF18F0F4CF66
:100A280019F01850096E19500A6E0B6A0C6A0BC03F
:100A38000CF00AC00BF009C00AF0096A0950142624
:100A48000A5015220B5016220C5017220EC009F01E
:100A58000FC00AF010C00BF011C00CF0190E3AEFDD
:100A680005F0D8900C320B320A320932E82E35EFF5
:100A780005F0095014260A5015220B5016220C5066
:100A8800172210C011F00FC010F00EC00FF00E6A40
:100A9800125013C009F00A6A0926000E0A22820EB3
:100AA8000924186EFF0E0A20196E70EF05F0D89011
:100AB800143615361636173611AE65EF05F067EFA2
:100AC80005F068EF05F01480D8900E360F36103612
:100AD80011361806D8A0190616AE75EF05F077EF8F
:100AE80005F05BEF05F0000E126E11AE7EEF05F01B
:100AF80080EF05F0A4EF05F0FF0E0E14096EFF0E4F
:100B08000F140A6EFF0E10140B6E7F0E11140C6E6C
:100B180009500A100B100C10D8B495EF05F097EF98
:100B280005F09BEF05F0010E126EA4EF05F014A07E
:100B3800A0EF05F0A2EF05F0A4EF05F097EF05F0A0
:100B48001250D8B4AAEF05F0ACEF05F0D0EF05F0DD
:100B5800010E1426000E15221622172217A0B7EF31
:100B680005F0B9EF05F0D0EF05F014C009F015C095
:100B78000AF016C00BF017C00CF00C340C320B3214
:100B88000A32093209C014F00AC015F00BC016F079
:100B98000CC017F0184A192A19BEDBEF05F01950D6
:100BA80008E11828D8A0DBEF05F0DDEF05F0E7EF46
:100BB80005F0000E146E000E156E800E166E7F0E78
:100BC800176E15EF06F019BEF4EF05F0195006E19F
:100BD8001804D8B0F2EF05F0F4EF05F000EF06F0D6
:100BE800000E146E000E156E000E166E000E176EB7
:100BF800000E0D6E15EF06F018C013F0FF0E141658
:100C0800FF0E15167F0E1616000E171613A00FEFFF
:100C180006F011EF06F012EF06F0168ED89013309A
:100C2800176E0D50171214C001F015C002F016C04F
:100C380003F017C004F01200CD0E3C6ECC0E3D6ED2
:100C4800CC0E3E6E3E0E3F6E8F0E406EC20E416E53
:100C5800F50E426E3C0E436E36500001865D3A6ECC
:100C6800375087593B6E3AC028F03BC029F0000E38
:100C780029BEFF0E2A6E2B6E010E08EC08F028C064
:100C880044F029C045F02AC046F02BC047F07AC08E
:100C98001AF07BC01BF07CC01CF07DC01DF044C066
:100CA8001EF045C01FF046C020F047C021F0ABEC55
:100CB80001F01AC07AF01BC07BF01CC07CF01DC08C
:100CC8007DF044C005F045C006F046C007F047C0B7
:100CD80008F03CC001F03DC002F03EC003F03FC048
:100CE80004F00BEC04F001C01AF002C01BF003C0C2
:100CF8001CF004C01DF07AC005F07BC006F07CC073
:100D080007F07DC008F040C001F041C002F042C0C9
:100D180003F043C004F00BEC04F001C01EF002C065
:100D28001FF003C020F004C021F0ABEC01F01AC0A2
:100D380048F01BC049F01CC04AF01DC04BF0000E23
:100D4800016E000E026EC80E036E420E046E48C09D
:100D580005F049C006F04AC007F04BC008F065EC42
:100D680009F0D8B0BAEF06F0BCEF06F0C4EF06F011
:100D7800000E486E000E496EC80E4A6E420E4B6E4B
:100D880048C001F049C002F04AC003F04BC004F06B
:100D9800000E056E000E066EC80E076EC20E086EB7
:100DA80065EC09F0D8B0DBEF06F0DDEF06F0E5EF13
:100DB80006F0000E486E000E496EC80E4A6EC20E4E
:100DC8004B6E4BBEECEF06F0EAEF06F0EEEF06F0E6
:100DD80082808292000E016E000E026E000E036E7B
:100DE800000E046E48C005F049C006F04AC007F07E
:100DF8004BC008F065EC09F0D8B005EF07F007EF35
:100E080007F009EF07F08290828248C01AF049C0C3
:100E18001BF04AC01CF04BC01DF0E2EC08F01AC0F1
:100E280024F01BC025F0BFEC0AF024C028F025C030
:100E380029F0000E29BEFF0E2A6E2B6E010E08EC5B
:100E480008F028C036F029C037F02AC038F02BC087
:100E580039F0120011C001F012C002F013C003F003
:100E680014C004F00DC005F00EC006F00FC007F066
:100E780010C008F065EC09F0D8A045EF07F047EF7F
:100E880007F08DEF07F015C001F016C002F017C08B
:100E980003F018C004F00DC005F00EC006F00FC036
:100EA80007F010C008F065EC09F0D8A05EEF07F075
:100EB80060EF07F08DEF07F015C001F016C002F0E3
:100EC80017C003F018C004F011C005F012C006F0F6
:100ED80013C007F014C008F065EC09F0D8B077EF3C
:100EE80007F079EF07F083EF07F015C019F016C087
:100EF8001AF017C01BF018C01CF0FFEF07F011C064
:100F080019F012C01AF013C01BF014C01CF0FFEF48
:100F180007F00DC001F00EC002F00FC003F010C0C2
:100F280004F011C005F012C006F013C007F014C099
:100F380008F065EC09F0D8A0A4EF07F0A6EF07F0D9
:100F4800E4EF07F015C001F016C002F017C003F077
:100F580018C004F011C005F012C006F013C007F065
:100F680014C008F065EC09F0D8A0BDEF07F0BFEF9A
:100F780007F0E4EF07F015C001F016C002F017C043
:100F880003F018C004F00DC005F00EC006F00FC045
:100F980007F010C008F065EC09F0D8B0D6EF07F0FC
:100FA800D8EF07F0DAEF07F079EF07F00DC019F086
:100FB8000EC01AF00FC01BF010C01CF0FFEF07F0B6
:100FC80011C001F012C002F013C003F014C004F005
:100FD8000DC005F00EC006F00FC007F010C008F0F5
:100FE80065EC09F0D8B0FBEF07F0FDEF07F0DAEF9A
:100FF80007F083EF07F019C00DF01AC00EF01BC000
:101008000FF01CC010F01200306E3050D8B40FEF43
:1010180008F011EF08F033EF08F02BBE18EF08F0D6
:1010280016EF08F033EF08F028C02CF029C02DF097
:101038002AC02EF02BC02FF02C1E2D1E2E1E2F1E68
:101048002C2A000E2D222E222F222CC032F02DC049
:1010580033F02EC034F02FC035F03BEF08F028C035
:1010680032F029C033F02AC034F02BC035F02850B4
:1010780029102A102B10D8A444EF08F046EF08F0E6
:1010880050EF08F0000E286E000E296E000E2A6E32
:10109800000E2B6EE1EF08F0960E316E5AEF08F055
:1010A800312AD8903532343233323232000E32148B
:1010B8002C6E000E33142D6E000E34142E6EFE0EA0
:1010C80035142F6E2C502D102E102F10D8A46FEF22
:1010D80008F071EF08F054EF08F07FEF08F0312ABC
:1010E800010E3226000E332234223522D8903532B2
:1010F800343233323232000E32142C6E000E331476
:101108002D6E000E34142E6EFF0E35142F6E2C50DB
:101118002D102E102F10D8A494EF08F096EF08F099
:1011280073EF08F09EEF08F03106D8903236333668
:101138003436353634BEA3EF08F0A5EF08F0ADEF2E
:1011480008F0020E3160ABEF08F0ADEF08F098EF51
:1011580008F031B0B2EF08F0B4EF08F0B5EF08F0DE
:10116800349ED890313231C02CF02D6A2E6A2F6A05
:101178002CC02FF02E6A2D6A2C6A2C5032122D505A
:1011880033122E5034122F5035123050D8B4CFEFBE
:1011980008F0D1EF08F0D9EF08F02BBED8EF08F02F
:1011A800D6EF08F0D9EF08F0358E32C028F033C0FA
:1011B80029F034C02AF035C02BF012001C341D343D
:1011C800236E2350D8A4EBEF08F0EDEF08F0F7EF0B
:1011D80008F0000E1A6E000E1B6E000E1C6E000E3C
:1011E8001D6E64EF09F01AC01EF01BC01FF01CC072
:1011F80020F01DC021F0200E07EF09F0D890213211
:1012080020321F321E32E82E02EF09F01E50226EE5
:101218001C8EFF0E1A16FF0E1B16FF0E1C16000E54
:101228001D16960E235E23BE1EEF09F01CEF09F073
:1012380034EF09F02350800A970FD8B026EF09F051
:1012480028EF09F02AEF09F0EDEF08F0D8901D32E9
:101258001C321B321A32233E2AEF09F04CEF09F0F8
:101268001F0E23643AEF09F03CEF09F044EF09F050
:10127800EDEF08F0D8901A361B361C361D362306BB
:101288002350D8A44AEF09F04CEF09F03EEF09F0DB
:101298002250D8B452EF09F054EF09F05CEF09F08E
:1012A8001D1E1C1E1B1E1A6C000E1B221C221D223A
:1012B8001AC01AF01BC01BF01CC01CF01DC01DF08A
:1012C8001200000E0114096E000E02140A6E800E40
:1012D80003140B6E7F0E04140C6E09500A100B10C9
:1012E8000C10D8A47AEF09F07CEF09F084EF09F02C
:1012F800000E016E000E026E000E036E000E046EEC
:10130800000E0514096E000E06140A6E800E0714EE
:101318000B6E7F0E08140C6E09500A100B100C107F
:10132800D8A499EF09F09BEF09F0A3EF09F0000E9C
:10133800056E000E066E000E076E000E086E04AEF7
:10134800A8EF09F0AAEF09F0B3EF09F0016C021E4B
:10135800D8B0022A031ED8B0032A800E045608AE5D
:10136800B8EF09F0BAEF09F0C3EF09F0056C061EF3
:10137800D8B0062A071ED8B0072A800E0856000ED5
:10138800011A000E021A000E031A800E041A000E2B
:10139800051A000E061A000E071A800E081A0550C4
:1013A800015C065002580750035808500458D8B03A
:1013B800E0EF09F0E2EF09F0E5EF09F0D890E6EF89
:1013C80009F0D8801200000E066E04BEF0EF09F096
:1013D800EEEF09F0F6EF09F0036C041ED8B0042A0A
:1013E800010E066E02BEFDEF09F0FBEF09F003EFF8
:1013F8000AF0016C021ED8B0022A010E061A000E6D
:10140800086E000E076E03500410D8B40EEF0AF0F1
:1014180010EF0AF038EF0AF0010E056E18EF0AF027
:10142800D89003360436052A04AE1DEF0AF01FEFE4
:101438000AF014EF0AF0D890073608360350015C1A
:1014480004500258D8A02BEF0AF02DEF0AF032EF23
:101458000AF00350015E0450025A0780D890043203
:101468000332052E1FEF0AF00650D8B43EEF0AF0FB
:1014780040EF0AF044EF0AF0076C081ED8B0082ABB
:1014880007C001F008C002F01200F20E056ED20E7D
:10149800066E230E076E410E086E4CC001F04DC05B
:1014A80002F04EC003F04FC004F00BEC04F001C092
:1014B8001AF002C01BF003C01CF004C01DF0E2ECDF
:1014C80008F01AC052F01BC053F052C050F053C07D
:1014D80051F051345132503251345132503250500F
:1014E800546E54501200F20E056ED20E066E230E84
:1014F800076E410E086E4CC001F04DC002F04EC0A0
:1015080003F04FC004F00BEC04F001C01AF002C065
:101518001BF003C01CF004C01DF0E2EC08F01AC078
:1015280050F01BC051F05050030B526E5250120035
:10153800800EF66E160EF76E000EF86E00EE91F045
:1015480010EE09F00900F5CFEEFFE550E150FAE1A1
:1015580000EE60F0310EEE6AE806FDE15E6A5D6A53
:101568005C6A5B6A5F905F92000EF86E030EF76E1E
:101578000001D9EF0AF025BEC6EF0AF0C4EF0AF061
:10158800D4EF0AF024C026F025C027F0261E271E17
:10159800264A272A26C024F027C025F0D8EF0AF0CB
:1015A80024C024F025C025F01200000E936EF28EA0
:1015B800F28CEBEC0AF030EC0BF00AEC0BF024ECBC
:1015C8000BF0FBEC0AF0E7EF0AF0A7EF01F0609AE6
:1015D8006098F80E6016B68EB688B686B694000E79
:1015E800656E010E646EB690B692A384120094885C
:1015F800948A948C949E8484400EC76E240EC66E82
:101608009E96000EC26E0F0EC16E1200F28AD58C25
:10161800D59AD596D584D592D580000ED76E000E72
:10162800D66ED58E1200C9509E96000EC96E9EA623
:1016380020EF0BF022EF0BF01BEF0BF0C95012005C
:101648009494948CCB683AEC0BF0BD86BD8494904E
:101658009492828082921200B792B796B798B79AFE
:10166800000E886E000E876EB7801200000ECA6EDC
:10167800CA80CA82CA841200366E010064006401FE
:01168800530E
:020000040020DA
:08000000FFFFFFFFFFFFFFFF00
:020000040030CA
:0E000000FFCC0F3E3C9D85FF0FC00FE00F4070
:00000001FF
