:040000005FEF00F0BE
:100008003282D9CF17F0DACF18F0F2A40EEF00F051
:1000180010EF00F050EF00F01B4A1C2A1B041C10C4
:10002800D8A419EF00F01BEF00F050EF00F081CFDB
:100038001DF01E0E116E000E126E1DC013F0146A14
:10004800000E166E0A0E156E2EEC01F0000E1A6EDA
:10005800000E196E3BEF00F01E0E1924D96E000E2B
:100068001A20DA6EDF507FEC01F0194A1A2A1E0EA8
:100078001924D96E000E1A20DA6EDF50D8A447EF83
:1000880000F049EF00F030EF00F00A0E7FEC01F0CD
:10009800000E1C6E000E1B6E9EAA55EF00F057EF67
:1000A80000F059EF00F08AEC01F018C0DAFF17C031
:1000B800D9FF3292110069EF01F00AC00EF00BC0AF
:1000C8000FF00EC001F00FC002F00CC003F00DC01D
:1000D80004F0C2EC00F001C00EF002C00FF0084AB4
:1000E800092A0E500F10D8A47CEF00F07EEF00F024
:1000F80065EF00F008C0D9FF09C0DAFF000EDF6E17
:100108000806D8A009060AC001F00BC002F00CC00E
:1001180003F00DC004F0FCEC00F00150106E0AC0B2
:1001280001F00BC002F00CC003F00DC004F0C2ECEB
:1001380000F001C00AF002C00BF0090E1064A7EF2E
:1001480000F0A9EF00F0ABEF00F0070E1026300E1C
:10015800102608C0D9FF09C0DAFF10C0DFFF080663
:10016800D8A009060A500B10D8A4BDEF00F0BFEFC5
:1001780000F087EF00F0084A092A1200000E066E08
:10018800000E056E03500410D8B4CDEF00F0CFEF89
:1001980000F0F7EF00F0010E076ED7EF00F0D890EF
:1001A80003360436072A04AEDCEF00F0DEEF00F079
:1001B800D3EF00F0D890053606360350015C0450A2
:1001C8000258D8A0EAEF00F0ECEF00F0F1EF00F0F1
:1001D8000350015E0450025A0580D890043203325D
:1001E800072EDEEF00F005C001F006C002F0120095
:1001F80003500410D8B403EF01F005EF01F029EF24
:1002080001F0010E056E0DEF01F0D89003360436AB
:10021800052A04AE12EF01F014EF01F009EF01F026
:100228000350015C04500258D8A01DEF01F01FEFE5
:1002380001F023EF01F00350015E0450025AD890F8
:1002480004320332052E14EF01F001C001F002C0A0
:1002580002F0120014BE35EF01F033EF01F041EF68
:1002680001F011C0D9FF12C0DAFF2D0EDF6E114A5E
:10027800122A136C141ED8B0142A11C008F012C028
:1002880009F013C00AF014C00BF015C00CF016C02A
:100298000DF061EC00F01200F28AD58CD59AD59653
:1002A800D584D592D580000ED76E000ED66ED58E29
:1002B8001200949C948EAC94AC98AC8AAB8EAB88AC
:1002C8009D8A9D981F0EAF6E120000EE1BF0170E50
:1002D800EE6AE806FDE132903292000174EF01F017
:1002E8009368F28EF28C5DEC01F050EC01F07BEF3C
:1002F80001F05FEF00F0016E01C0ADFFACA287EF27
:1003080001F089EF01F082EF01F012009EAA8FEF51
:0E03180001F091EF01F08AEF01F0AE501200FB
:020000040020DA
:08000000FFFFFFFFFFFFFFFF00
:020000040030CA
:0E000000FFCC0F3E3C9985FF0FC00FE00F4074
:00000001FF
