:0400000029EF00F0F4
:1000080018829EAA0AEF00F00CEF00F00FEF00F044
:100018005BEC00F0176EF2A414EF00F016EF00F09E
:1000280027EF00F0154A162A15041610D8A41FEF5A
:1000380000F021EF00F027EF00F017C083FF000E5B
:10004800166E000E156E1892110050EF00F0F28A2D
:10005800D58CD59AD586D594D592D590000ED76EE5
:10006800FA0ED66ED58E1200000E956EF28EF28CB8
:1000780044EC00F02BEC00F040EF00F029EF00F02A
:10008800949C948EAC94AC98AC8AAB8EAB889D8AC9
:100098009D981F0EAF6E120000EE01F0170EEE6A6B
:1000A800E806FDE118901892000138EF00F09EAACA
:1000B80060EF00F062EF00F05BEF00F0AE5012006E
:020000040020DA
:08000000FFFFFFFFFFFFFFFF00
:020000040030CA
:0E000000FFCC0F3E3C9985FF0FC00FE00F4074
:00000001FF
