:0400000058EF00F0C5
:100008004082D9CF3BF0DACF3CF0F2A40EEF00F0FB
:1000180010EF00F033EF00F0094A0A2A220E0918FF
:1000280006E10A04D8A41BEF00F01DEF00F022EF50
:1000380000F03F502AEC02F0BBEC00F02C0E09183F
:1000480006E10A04D8A42BEF00F02DEF00F033EFFF
:1000580000F003EC01F0000E0A6E000E096E9EAA75
:1000680038EF00F03AEF00F052EF00F08AEC02F0BF
:100078003F6E81BC42EF00F046EF00F0396A392A42
:1000880047EF00F0396A395001083A6E3A3A3A4671
:100098003A4681503A18BF0B3A18816E3CC0DAFFD5
:1000A8003BC0D9FF4092110010EF02F029C02DF09B
:1000B8002AC02EF02DC020F02EC021F02BC022F037
:1000C8002CC023F04BEC01F020C02DF021C02EF005
:1000D800274A282A2D502E10D8A475EF00F077EF64
:1000E80000F05EEF00F027C0D9FF28C0DAFF000E4D
:1000F800DF6E2706D8A0280629C020F02AC021F0E4
:100108002BC022F02CC023F0BCEC01F020502F6E45
:1001180029C020F02AC021F02BC022F02CC023F0E7
:100128004BEC01F020C029F021C02AF0090E2F6401
:10013800A0EF00F0A2EF00F0A4EF00F0070E2F26CA
:10014800300E2F2627C0D9FF28C0DAFF2FC0DFFFC7
:100158002706D8A0280629502A10D8A4B6EF00F000
:10016800B8EF00F080EF00F0274A282A1200000EAE
:10017800216E020E206E85EC01F0386E3850D8A43E
:10018800C8EF00F0CAEF00F0CCEF00F0CFEF00F0BE
:1001980038C001F0026A420E7FEC02F00C0E306E9D
:1001A800000E316E01C032F002C033F0000E356E21
:1001B8000A0E346EEEEC01F0000E376E000E366E4D
:1001C800F1EF00F00C0E3624D96E000E3720DA6EEF
:1001D800DF507FEC02F0364A372A0C0E3624D96EEF
:1001E800000E3720DA6EDF50D8A4FDEF00F0FFEFE5
:1001F80000F0E6EF00F00A0E7FEC02F01200000EAD
:10020800216E010E206E85EC01F0386E3850D8A4AE
:1002180010EF01F012EF01F014EF01F017EF01F009
:1002280038C003F0046A410E7FEC02F00C0E306E09
:10023800000E316E03C032F004C033F0000E356E8C
:100248000A0E346EEEEC01F0000E376E000E366EBC
:1002580039EF01F00C0E3624D96E000E3720DA6E15
:10026800DF507FEC02F0364A372A0C0E3624D96E5E
:10027800000E3720DA6EDF50D8A445EF01F047EFC3
:1002880001F02EEF01F00A0E7FEC02F01200000ED2
:10029800256E000E246E22502310D8B456EF01F0BC
:1002A80058EF01F080EF01F0010E266E60EF01F0CB
:1002B800D89022362336262A23AE65EF01F067EF61
:1002C80001F05CEF01F0D890243625362250205CEE
:1002D80023502158D8A073EF01F075EF01F07AEFA1
:1002E80001F02250205E2350215A2480D8902332D6
:1002F8002232262E67EF01F024C020F025C021F01D
:10030800120020042110D8A48CEF01F08EEF01F028
:100318008FEF01F08294020E20182110D8A497EFD5
:1003280001F099EF01F09AEF01F08292C9509E9680
:10033800000EC96E9EA6A3EF01F0A5EF01F09EEF97
:1003480001F020042110D8A4ACEF01F0AEEF01F0C9
:10035800AFEF01F08284020E20182110D8A4B7EF65
:1003680001F0B9EF01F0BAEF01F08282C950120032
:1003780022502310D8B4C3EF01F0C5EF01F0E9EF24
:1003880001F0010E246ECDEF01F0D890223623360D
:10039800242A23AED2EF01F0D4EF01F0C9EF01F027
:1003A8002250205C23502158D8A0DDEF01F0DFEF68
:1003B80001F0E3EF01F02250205E2350215AD8903B
:1003C80023322232242ED4EF01F020C020F021C0A5
:1003D80021F0120033BEF5EF01F0F3EF01F001EF69
:1003E80002F030C0D9FF31C0DAFF2D0EDF6E304A7F
:1003F800312A326C331ED8B0332A30C027F031C0CE
:1004080028F032C029F033C02AF034C02BF035C0B0
:100418002CF05AEC00F01200260EF66E050EF76E60
:10042800000EF86E0900F5CF3DF00900F5CF3EF05B
:100438000900F5CF3FF000EE01F01F0EEE6AE80666
:10044800FDE140904092000143EF02F0206E82945B
:10045800C9509E96C69E20C0C9FFC6AE36EF02F0B0
:1004680038EF02F03AEF02F042EF02F09EA63FEFBB
:1004780002F041EF02F03AEF02F082841200F28EAD
:10048800F28C000E936E73EC02F066EC02F0818C35
:10049800949482849492828256EC02F052EF02F095
:1004A80058EF00F09D869F86958495969592848452
:1004B800400EC76E200EC66E9E96000EC26E0F0EC0
:1004C800C16E1200F28AD58CD59AD596D584D5926C
:1004D800D580000ED76E000ED66ED58E1200949C75
:1004E800948EAC94AC98AC8AAB8EAB889D8A9D9860
:1004F8001F0EAF6E1200206E20C0ADFFACA287EFBA
:1005080002F089EF02F082EF02F012009EAA8FEF4C
:1005180002F091EF02F08AEF02F0AE501200640090
:01052800B41E
:020000040020DA
:08000000FFFFFFFFFFFFFFFF00
:020000040030CA
:0E000000FFCC0F3E3C9985FF0FC00FE00F4074
:00000001FF
