:04000000C8EF02F053
:100008005F82F3CFA7F0F4CFA8F09EAA0EEF00F01E
:1000180010EF00F027EF00F0D7EC0BF00001806F35
:1000280083B019EF00F01DEF00F0A56BA52B1FEFB3
:1000380000F00001A56BA5510108A66F8350A61911
:10004800FE0BA619836EF2A42CEF00F02EEF00F041
:10005800C2EF02F000019D4B9E2B9D059E11D8A476
:1000680038EF00F03AEF00F0C2EF02F0000E2C6E0D
:10007800000E2D6E7F0E2E6E430E2F6ECD0E136E5C
:10008800CC0E146E4C0E156E3E0E166E8051016E1F
:10009800026A036A046A000E0CEC09F001C00FF052
:1000A80002C010F003C011F004C012F02AEC05F0F1
:1000B8000FC028F010C029F011C02AF012C02BF090
:1000C8003FEC07F028C041F029C042F02AC043F0B5
:1000D8002BC044F0CD0E456ECC0E466ECC0E476E4E
:1000E800BD0E486ECAEC02F041C099F042C09AF0C9
:1000F80043C09BF044C09CF000019CBF86EF00F019
:1001080088EF00F08AEF00F0838C839E9CBF91EF0C
:1001180000F08FEF00F093EF00F0839C838E95C082
:1001280041F096C042F097C043F098C044F099C09F
:1001380045F09AC046F09BC047F09CC048F0CAEC16
:1001480002F041C095F042C096F043C097F044C019
:1001580098F068C005F069C006F06AC007F06BC087
:1001680008F095C009F096C00AF097C00BF098C047
:100178000CF06AEC0AF0D8B0C4EF00F0C6EF00F05B
:10018800CEEF00F068C095F069C096F06AC097F0AD
:100198006BC098F095C005F096C006F097C007F0C0
:1001A80098C008F068C001F069C002F06AC003F0A6
:1001B8006BC004F04CEC0BF001C009F002C00AF06F
:1001C80003C00BF004C00CF06AEC0AF0D8B0EFEFF3
:1001D80000F0F1EF00F003EF01F068C001F069C032
:1001E80002F06AC003F06BC004F04CEC0BF001C0E5
:1001F80095F002C096F003C097F004C098F081C053
:1002080013F082C014F083C015F084C016F091C0BA
:1002180055F092C056F093C057F094C058F099C06A
:1002280051F09AC052F09BC053F09CC054F029EC96
:100238000BF051C00FF052C010F053C011F054C071
:1002480012F02AEC05F00FC0A9F010C0AAF011C0F6
:10025800ABF012C0ACF095C013F096C014F097C084
:1002680015F098C016F085C00FF086C010F087C052
:1002780011F088C012F02AEC05F00FC045F010C04C
:1002880046F011C047F012C048F099C013F09AC068
:1002980014F09BC015F09CC016F070C00FF071C030
:1002A80010F072C011F073C012F02AEC05F00FC004
:1002B80041F010C042F011C043F012C044F0CAEC43
:1002C80002F041C0ADF042C0AEF043C0AFF044C050
:1002D800B0F0A9C045F0AAC046F0ABC047F0ACC02A
:1002E80048F0ADC041F0AEC042F0AFC043F0B0C07E
:1002F80044F0CAEC02F041C00FF042C010F043C015
:1003080011F044C012F06CC013F06DC014F06EC050
:1003180015F06FC016F02AEC05F00FC08DF010C074
:100328008EF011C08FF012C090F064C005F065C067
:1003380006F066C007F067C008F08DC009F08EC0EF
:100348000AF08FC00BF090C00CF06AEC0AF0D8B03D
:10035800B0EF01F0B2EF01F0BAEF01F064C08DF038
:1003680065C08EF066C08FF067C090F08DC005F054
:100378008EC006F08FC007F090C008F064C001F08E
:1003880065C002F066C003F067C004F04CEC0BF0E7
:1003980001C009F002C00AF003C00BF004C00CF061
:1003A8006AEC0AF0D8B0DBEF01F0DDEF01F0EFEF17
:1003B80001F064C001F065C002F066C003F067C0D8
:1003C80004F04CEC0BF001C08DF002C08EF003C0BD
:1003D8008FF004C090F099C091F09AC092F09BC041
:1003E80093F09CC094F0EB0E136EC90E146E180EA9
:1003F800156E410E166E8DC055F08EC056F08FC02A
:1004080057F090C058F078C02CF079C02DF07AC021
:100418002EF07BC02FF060C028F061C029F062C0C8
:100428002AF063C02BF03FEC07F028C051F029C038
:1004380052F02AC053F02BC054F029EC0BF051C0F5
:100448000FF052C010F053C011F054C012F02AEC53
:1004580005F00FC059F010C05AF011C05BF012C07F
:100468005CF0E6EC09F059C07EF05AC07FF0EB0E64
:10047800136EC90E146E180E156E410E166E8DC0D1
:1004880045F08EC046F08FC047F090C048F078C065
:100498002CF079C02DF07AC02EF07BC02FF060C010
:1004A80028F061C029F062C02AF063C02BF03FEC4D
:1004B80007F028C041F029C042F02AC043F02BC001
:1004C80044F0CAEC02F041C00FF042C010F043C043
:1004D80011F044C012F02AEC05F00FC059F010C01A
:1004E8005AF011C05BF012C05CF0E6EC09F059C09C
:1004F8007CF05AC07DF000017FBF89EF02F07F05D4
:10050800D8A089EF02F08BEF02F08EEF02F0000E18
:100518007F6F7E697FBF95EF02F093EF02F099EF4E
:1005280002F0000E7F6F000E7E6F7DBFA2EF02F01B
:100538007D05D8A0A2EF02F0A4EF02F0A7EF02F029
:10054800000E7D6F7C697DBFAEEF02F0ACEF02F06C
:10055800B2EF02F0000E7D6F000E7C6F010E016E8F
:100568007E51ECEC0AF0020E016E00017C51ECECBD
:100578000AF0000E00019E6F000E9D6FA8C0F4FFE8
:10058800A7C0F3FF5F92110068EF0BF04450800B97
:100598004D6E445044244F6E43AED5EF02F0D7EF72
:1005A80002F0D8EF02F04F804F50D8B4DEEF02F0DF
:1005B800E0EF02F0F5EF02F04F28D8A4E6EF02F0E2
:1005C800E8EF02F0F0EF02F0000E416E000E426E0E
:1005D800000E436E000E446E438E000E446EFDEF17
:1005E80002F0000E416E000E426E000E436E000EC9
:1005F800446E4850800B4E6E4D504E18D8B407EFDD
:1006080003F009EF03F00AEF03F04D8C485048243B
:100618004E6E47AE12EF03F014EF03F015EF03F040
:100628004E804E50D8B41BEF03F01DEF03F032EFAD
:1006380003F04E28D8A423EF03F025EF03F02DEFA5
:1006480003F0000E456E000E466E000E476E000E5B
:10065800486E478E000E486E3AEF03F0000E456E66
:10066800000E466E000E476E000E486E4F504E5CF0
:10067800D8B041EF03F043EF03F06AEF03F04DAC5D
:1006880048EF03F04AEF03F04CEF03F0800E4D1AE9
:100698004FC050F04EC04FF050C04EF041C050F027
:1006A80045C041F050C045F042C050F046C042F04D
:1006B80050C046F043C050F047C043F050C047F028
:1006C80044C050F048C044F050C048F0000E506E8E
:1006D8004F504EC049F04A6A495E000E4A5A4ABE17
:1006E8007FEF03F04A5009E11A0E495CD8A07FEF6A
:1006F80003F081EF03F0B8EF03F0415042104310CC
:100708004410D8A48AEF03F08DEF03F0010E8EEFAA
:1007180003F0000E506E000E416E000E426E000E89
:10072800436E000E446E4EC04FF0C1EF03F050A070
:10073800A0EF03F0A2EF03F0A8EF03F0D890503039
:100748000109506EAAEF03F0D890503241A0AFEFE4
:1007580003F0B1EF03F0B2EF03F0508E44344432AB
:100768004332423241324F2A4E504F5CD8A0BFEF3D
:1007780003F0C1EF03F09BEF03F04DBCC6EF03F0AD
:10078800C8EF03F008EF04F04F50D8A4CEEF03F001
:10079800D0EF03F0DAEF03F0000E416E000E426E68
:1007A800000E436E000E446E29EF05F045504126B9
:1007B80046504222475043224850442244A0E7EF83
:1007C80003F0E9EF03F095EF04F050A0EEEF03F02B
:1007D800F0EF03F0F6EF03F0D89050300109506EB7
:1007E800F8EF03F0D890503241A0FDEF03F0FFEF8F
:1007F80003F000EF04F0508E443444324332423266
:1008080041324F2A95EF04F04550415C465042581A
:10081800475043584450800A496E4850800A495806
:10082800D8B019EF04F01BEF04F046EF04F0415084
:10083800455C496E425046584A6E435047584B6E85
:10084800445048584C6EFF0E4924416EFF0E4A2012
:10085800426EFF0E4B20436EFF0E4C20446E800EFE
:100868004D1A506C5050D8A43CEF04F03EEF04F001
:100878004EEF04F0010E4126000E4222432244228C
:100888004EEF04F04550415E4650425A4750435A95
:100898004850445A4150421043104410D8A457EFCE
:1008A80004F059EF04F08EEF04F05050D8A45FEF35
:1008B80004F061EF04F08EEF04F0000E416E000EBC
:1008C800426E000E436E000E446E29EF05F0D8907C
:1008D800413642364336443650AE75EF04F077EF72
:1008E80004F078EF04F0418050A07DEF04F07FEF32
:1008F80004F083EF04F0D880503685EF04F0D890E8
:1009080050364F50D8B48BEF04F08DEF04F08EEFD3
:1009180004F04F0643AE93EF04F095EF04F06BEF4D
:1009280004F0000E4E6E50AE9CEF04F09EEF04F003
:10093800B6EF04F050C049F07F0E4916D8B4A7EFBF
:1009480004F0A9EF04F0ADEF04F0010E4E6EB6EF1F
:1009580004F041A0B2EF04F0B4EF04F0B6EF04F0F5
:10096800A9EF04F04E50D8B4BCEF04F0BEEF04F089
:10097800E9EF04F0010E4126000E422243224422F0
:1009880044A0C9EF04F0CBEF04F0E9EF04F041C054
:1009980049F042C04AF043C04BF044C04CF04C34DC
:1009A8004C324B324A32493249C041F04AC042F0D7
:1009B8004BC043F04CC044F04F28D8B4E6EF04F0E5
:1009C800E8EF04F0E9EF04F04F2A4F28D8B4EFEF2E
:1009D80004F0F1EF04F0F9EF04F04F50D8A4F7EF6A
:1009E80004F0F9EF04F00BEF05F0000E416E000E75
:1009F800426E000E436E000E446E4F50D8A407EFAF
:100A080005F009EF05F00BEF05F0000E4D6E4FA055
:100A180010EF05F012EF05F015EF05F0438E16EF15
:100A280005F0439ED8904F30446E4DAE1EEF05F052
:100A380020EF05F021EF05F0448E41C041F042C09F
:100A480042F043C043F044C044F012001250800BFF
:100A58001B6E12501224216E11AE35EF05F037EFE0
:100A680005F038EF05F021802150D8B43EEF05F0AD
:100A780040EF05F053EF05F02128D8A446EF05F024
:100A880048EF05F050EF05F0000E0F6E000E106EE7
:100A9800000E116E000E126E118E5BEF05F0000E47
:100AA8000F6E000E106E000E116E000E126E1650B4
:100AB800800B1B1A16501624206E15AE66EF05F033
:100AC80068EF05F069EF05F020802050D8B46FEF8B
:100AD80005F071EF05F084EF05F02028D8A477EF32
:100AE80005F079EF05F081EF05F0000E136E000EAA
:100AF800146E000E156E000E166E158E8CEF05F036
:100B0800000E136E000E146E000E156E000E166E9B
:100B18002050D8B492EF05F094EF05F09CEF05F063
:100B28002150D8A49AEF05F09CEF05F0A6EF05F048
:100B3800000E0F6E000E106E000E116E000E126E7B
:100B48003EEF07F015500F02F3CF26F0F4CF27F051
:100B580026501C6E1D6A1E6A1F6A2750226E236A61
:100B6800246A256A14501002F3CF26F0F4CF27F038
:100B780026501C26000E1D221E221F222750222628
:100B8800000E23222422252213501102F3CF26F02F
:100B9800F4CF27F026501C26000E1D221E221F22ED
:100BA80027502226000E2322242225221EC01FF0B1
:100BB8001DC01EF01CC01DF01C6A13501002F3CF9C
:100BC80026F0F4CF27F026501C2627501D22000EB1
:100BD8001E22000E1F2214500F02F3CF26F0F4CF6E
:100BE80027F026501C2627501D22000E1E22000E1C
:100BF8001F221EC01FF01DC01EF01CC01DF01C6A65
:100C080013500F02F3CF26F0F4CF27F026501C26FE
:100C180027501D22000E1E22000E1F221550100202
:100C2800F3CF26F0F4CF27F0265022262750232290
:100C3800000E2422000E252214501102F3CF26F0B4
:100C4800F4CF27F02650222627502322000E2422F4
:100C5800000E252215501102F3CF26F0F4CF27F00D
:100C68002650176E2750186E196A1A6A19C01AF09A
:100C780018C019F017C018F0176A17502226185014
:100C88002322195024221A5025221CC017F01DC0F7
:100C980018F01EC019F01FC01AF0190E59EF06F00F
:100CA800D8901A32193218321732E82E54EF06F05B
:100CB8001750222618502322195024221A50252270
:100CC8001EC01FF01DC01EF01CC01DF01C6A205065
:100CD80021C017F0186A1726000E1822820E172452
:100CE800266EFF0E1820276E8FEF06F0D89022365A
:100CF8002336243625361FAE84EF06F086EF06F03D
:100D080087EF06F02280D8901C361D361E361F3617
:100D18002606D8A0270624AE94EF06F096EF06F034
:100D28007AEF06F0000E206E1FAE9DEF06F09FEFE3
:100D380006F0C3EF06F0FF0E1C14176EFF0E1D140D
:100D4800186EFF0E1E14196E7F0E1F141A6E1750A0
:100D5800181019101A10D8B4B4EF06F0B6EF06F050
:100D6800BAEF06F0010E206EC3EF06F022A0BFEF27
:100D780006F0C1EF06F0C3EF06F0B6EF06F020501C
:100D8800D8B4C9EF06F0CBEF06F0EFEF06F0010E8E
:100D98002226000E23222422252225A0D6EF06F0A3
:100DA800D8EF06F0EFEF06F022C017F023C018F0D6
:100DB80024C019F025C01AF01A341A321932183220
:100DC800173217C022F018C023F019C024F01AC037
:100DD80025F0264A272A27BEFAEF06F0275008E111
:100DE8002628D8A0FAEF06F0FCEF06F006EF07F089
:100DF800000E226E000E236E800E246E7F0E256E6E
:100E080034EF07F027BE13EF07F0275006E126045A
:100E1800D8B011EF07F013EF07F01FEF07F0000E3F
:100E2800226E000E236E000E246E000E256E000E3C
:100E38001B6E34EF07F026C021F0FF0E2216FF0EBE
:100E480023167F0E2416000E251621A02EEF07F07C
:100E580030EF07F031EF07F0248ED8902130256E5F
:100E68001B50251222C00FF023C010F024C011F02F
:100E780025C012F012002B50800B386E2B502B24FB
:100E88003F6E2AAE4AEF07F04CEF07F04DEF07F040
:100E98003F803F50D8B453EF07F055EF07F06AEFA3
:100EA80007F03F28D8A45BEF07F05DEF07F065EF88
:100EB80007F0000E286E000E296E000E2A6E000E36
:100EC8002B6E2A8E000E2B6E72EF07F0000E286E26
:100ED800000E296E000E2A6E000E2B6E2F50800B0E
:100EE800381A2F502F24406E2EAE7DEF07F07FEF7B
:100EF80007F080EF07F040804050D8B486EF07F045
:100F080088EF07F09DEF07F04028D8A48EEF07F090
:100F180090EF07F098EF07F0000E2C6E000E2D6E84
:100F2800000E2E6E000E2F6E2E8E000E2F6EA5EF69
:100F380007F0000E2C6E000E2D6E000E2E6E000EA9
:100F48002F6E2C502D102E102F10D8A4AEEF07F0B6
:100F5800B0EF07F0C8EF07F0000E286E000E296EFC
:100F6800000E2A6E000E2B6E800E2A127F0E2B1298
:100F780038502B1228C028F029C029F02AC02AF09E
:100F88002BC02BF00BEF09F03F50D8A4CEEF07F0A1
:100F9800D0EF07F0DAEF07F0000E286E000E296E8A
:100FA800000E2A6E000E2B6E0BEF09F040503FC06A
:100FB80030F0316A305E000E315A7F0E3024396EBF
:100FC800000E31203A6E28C034F029C035F02AC00E
:100FD80036F02BC037F0000E286E000E296E000E7A
:100FE8002A6E000E2B6E000E3B6E000E3C6E000E3D
:100FF8003D6E000E3E6E000E406E3BEF08F0405016
:10100800D8B409EF08F00BEF08F022EF08F0D890F9
:101018003436353636363736D890283629362A3695
:101028002B363EAE1AEF08F01CEF08F01DEF08F063
:101038002880D8903B363C363D363E362C50345CC2
:101048002D5035582E5036582F503758D8A02FEFDE
:1010580008F031EF08F03AEF08F03E8C2C50345E7F
:101068002D50355A2E50365A2F50375A402A190EBD
:10107800406441EF08F043EF08F003EF08F0345004
:10108800351036103710D8B44CEF08F04EEF08F092
:1010980066EF08F03B8066EF08F0D89028362936CE
:1010A8002A362B363EAE5BEF08F05DEF08F05EEFB8
:1010B80008F02880D8903B363C363D363E36390617
:1010C800D8A03A062AAE6BEF08F06DEF08F051EFA2
:1010D80008F0000E406E3EAE74EF08F076EF08F0B0
:1010E8009AEF08F0FF0E3B14306EFF0E3C14316E81
:1010F800FF0E3D14326E7F0E3E14336E30503110A9
:1011080032103310D8B48BEF08F08DEF08F091EF60
:1011180008F0010E406E9AEF08F028A096EF08F04C
:1011280098EF08F09AEF08F08DEF08F04050D8B427
:10113800A0EF08F0A2EF08F0C6EF08F0010E28268D
:10114800000E29222A222B222BA0ADEF08F0AFEFA8
:1011580008F0C6EF08F028C030F029C031F02AC0E6
:1011680032F02BC033F03334333232323132303252
:1011780030C028F031C029F032C02AF033C02BF03B
:10118800394A3A2A3ABED1EF08F03A5008E13928EC
:10119800D8A0D1EF08F0D3EF08F0DEEF08F0000E8A
:1011A8003A6E3968000E286E000E296E000E2A6EFF
:1011B800000E2B6E3ABEEBEF08F03A5006E1390408
:1011C800D8B0E9EF08F0EBEF08F0F9EF08F0000EFF
:1011D8003A6E000E396E000E286E000E296E000E53
:1011E8002A6E000E2B6E000E386E39C03FF03FA0FD
:1011F80000EF09F002EF09F005EF09F02A8E06EF7B
:1012080009F02A9ED8903F302B6EBCEF07F01200F1
:10121800096E0950D8B413EF09F015EF09F037EF4C
:1012280009F004BE1CEF09F01AEF09F037EF09F0D6
:1012380001C005F002C006F003C007F004C008F0C2
:10124800051E061E071E081E052A000E0622072276
:10125800082205C00BF006C00CF007C00DF008C04E
:101268000EF03FEF09F001C00BF002C00CF003C014
:101278000DF004C00EF00150021003100410D8A4A1
:1012880048EF09F04AEF09F054EF09F0000E016E3B
:10129800000E026E000E036E000E046EE5EF09F0FC
:1012A800960E0A6E5EEF09F00A2AD8900E320D32B9
:1012B8000C320B32000E0B14056E000E0C14066E69
:1012C800000E0D14076EFE0E0E14086E0550061063
:1012D80007100810D8A473EF09F075EF09F058EF5C
:1012E80009F083EF09F00A2A010E0B26000E0C22E2
:1012F8000D220E22D8900E320D320C320B32000E17
:101308000B14056E000E0C14066E000E0D14076EFD
:10131800FF0E0E14086E0550061007100810D8A40A
:1013280098EF09F09AEF09F077EF09F0A2EF09F0CA
:101338000A06D8900B360C360D360E360DBEA7EFC2
:1013480009F0A9EF09F0B1EF09F0020E0A60AFEF5A
:1013580009F0B1EF09F09CEF09F00AB0B6EF09F017
:10136800B8EF09F0B9EF09F00D9ED8900A320AC01B
:1013780005F0066A076A086A05C008F0076A066A7F
:10138800056A05500B1206500C1207500D12085032
:101398000E120950D8B4D3EF09F0D5EF09F0DDEFFC
:1013A80009F004BEDCEF09F0DAEF09F0DDEF09F02F
:1013B8000E8E0BC001F00CC002F00DC003F00EC081
:1013C80004F012005B345C345E6E5E50D8A4EFEF1C
:1013D80009F0F1EF09F0FBEF09F0000E596E000E6D
:1013E8005A6E000E5B6E000E5C6E69EF0AF059C013
:1013F800A1F05AC0A2F05BC0A3F05CC0A4F0200E1C
:101408000CEF0AF00001D890A433A333A233A13320
:10141800E82E06EF0AF0A1515D6E5B8EFF0E59169D
:10142800FF0E5A16FF0E5B16000E5C16960E5E5ED9
:101438005EBE23EF0AF021EF0AF039EF0AF05E50A2
:10144800800A970FD8B02BEF0AF02DEF0AF02FEF94
:101458000AF0F1EF09F0D8905C325B325A32593217
:101468005E3E2FEF0AF051EF0AF01F0E5E643FEF69
:101478000AF041EF0AF049EF0AF0F1EF09F0D890CD
:1014880059365A365B365C365E065E50D8A44FEF46
:101498000AF051EF0AF043EF0AF05D50D8B457EF65
:1014A8000AF059EF0AF061EF0AF05C1E5B1E5A1E43
:1014B800596C000E5A225B225C2259C059F05AC05E
:1014C8005AF05BC05BF05CC05CF01200000E0514C3
:1014D8000D6E000E06140E6E800E07140F6E7F0E32
:1014E8000814106E0D500E100F101010D8A47FEFB6
:1014F8000AF081EF0AF089EF0AF0000E056E000E7F
:10150800066E000E076E000E086E000E09140D6EB2
:10151800000E0A140E6E800E0B140F6E7F0E0C1444
:10152800106E0D500E100F101010D8A49EEF0AF078
:10153800A0EF0AF0A8EF0AF0000E096E000E0A6E7E
:10154800000E0B6E000E0C6E08AEADEF0AF0AFEF9A
:101558000AF0B8EF0AF0056C061ED8B0062A071E76
:10156800D8B0072A800E08560CAEBDEF0AF0BFEFC0
:101578000AF0C8EF0AF0096C0A1ED8B00A2A0B1E36
:10158800D8B00B2A800E0C56000E051A000E061A4B
:10159800000E071A800E081A000E091A000E0A1A01
:1015A800000E0B1A800E0C1A0950055C0A500658DA
:1015B8000B5007580C500858D8B0E5EF0AF0E7EF81
:1015C8000AF0EAEF0AF0D890EBEF0AF0D8801200A0
:1015D800026E0104D8A4F3EF0AF0F5EF0AF0F6EF73
:1015E8000AF08292020E0118D8A4FDEF0AF0FFEF6C
:1015F8000AF000EF0BF08294C9509E96C69E02C076
:10160800C9FFC6AE0AEF0BF00CEF0BF00EEF0BF0B4
:1016180028EF0BF09EA613EF0BF015EF0BF00EEF73
:101628000BF00104D8A41BEF0BF01DEF0BF01EEF1D
:101638000BF08282020E0118D8A425EF0BF027EFD9
:101648000BF028EF0BF082841200000E551A000EE2
:10165800561A000E571A800E581A51C041F052C03F
:1016680042F053C043F054C044F055C045F056C052
:1016780046F057C047F058C048F0CAEC02F041C0E5
:1016880051F042C052F043C053F044C054F012002D
:101698000150021003100410D8B455EF0BF057EFA7
:1016A8000BF05FEF0BF0000E011A000E021A000E8D
:1016B800031A800E041A01C001F002C002F003C030
:1016C80003F004C004F012003A0EF66E170EF76E1F
:1016D800000EF86E00EE60F010EE21F00900F5CF74
:1016E800EEFFE550E150FAE100EE81F0200EEE6ADF
:1016F800E806FDE15F905F92000183EF0BF095989B
:10170800959A959C959E959083908398839A839CAF
:10171800839EF28EF28CCBEC0BF0BEEC0BF0949423
:10172800828494928282AEEC0BF099EF0BF0C8EFB2
:1017380002F0CDCC4C3F0000A040EC51B83E000078
:10174800803F0000C842C520303E7B142E3DB400C7
:03175800B4007F5B
:10175C009D869F869584959695928484400EC76E3F
:10176C00200EC66E9E96000EC26E0F0EC16E12003B
:10177C00F28AD58CD59AD596D594D592D590000E63
:10178C00D76EC00ED66ED58E1200949C948EAC94EF
:10179C00AC98AC8AAB8EAB889D8A9D981F0EAF6EB1
:1017AC0012009EAADCEF0BF0DEEF0BF0D7EF0BF084
:0417BC00AE50120019
:020000040020DA
:08000000FFFFFFFFFFFFFFFF00
:020000040030CA
:0E000000FFCC0F3E3C9985FF0FC00FE00F4074
:00000001FF
