:060000000A128A110C280F
:10000800FE00030EF1000A08F2000A128A113E28C7
:100018000A128A110F28F30183010A128A1114287F
:100028008B170B178B1607308316031381003B3091
:100038008312031381008316031306107308031D2C
:10004800262827282A2883120313061464307306E7
:10005800031D2F2830283328831203130610C830B5
:100068007306031D382839282228F30122280A128A
:100078008A110C280B1D4128422847280130F0001E
:100088007008F3070B1172088A00710E8300FE0EC8
:040098007E0E0900CF
:02400E00FA3F77
:00000001FF
