:0400000056EF00F0C7
:100008003282D9CF17F0DACF18F0F2A40EEF00F051
:1000180010EF00F050EF00F01B4A1C2A1B041C10C4
:10002800D8A419EF00F01BEF00F050EF00F081CFDB
:100038001DF01E0E116E000E126E1DC013F0146A14
:10004800000E166E0A0E156E25EC01F0000E1A6EE3
:10005800000E196E3BEF00F01E0E1924D96E000E2B
:100068001A20DA6EDF5076EC01F0194A1A2A1E0EB1
:100078001924D96E000E1A20DA6EDF50D8A447EF83
:1000880000F049EF00F030EF00F00A0E76EC01F0D6
:10009800000E1C6E000E1B6E18C0DAFF17C0D9FFC9
:1000A8003292110060EF01F00AC00EF00BC00FF0A1
:1000B8000EC001F00FC002F00CC003F00DC004F038
:1000C800B9EC00F001C00EF002C00FF0084A092A8E
:1000D8000E500F10D8A473EF00F075EF00F05CEF2E
:1000E80000F008C0D9FF09C0DAFF000EDF6E08066D
:1000F800D8A009060AC001F00BC002F00CC003F03A
:100108000DC004F0F3EC00F00150106E0AC001F0CD
:100118000BC002F00CC003F00DC004F0B9EC00F005
:1001280001C00AF002C00BF0090E10649EEF00F047
:10013800A0EF00F0A2EF00F0070E1026300E1026F8
:1001480008C0D9FF09C0DAFF10C0DFFF0806D8A031
:1001580009060A500B10D8A4B4EF00F0B6EF00F06F
:100168007EEF00F0084A092A1200000E066E000E03
:10017800056E03500410D8B4C4EF00F0C6EF00F0C9
:10018800EEEF00F0010E076ECEEF00F0D8900336C8
:100198000436072A04AED3EF00F0D5EF00F0CAEF1B
:1001A80000F0D890053606360350015C045002581A
:1001B800D8A0E1EF00F0E3EF00F0E8EF00F0035023
:1001C800015E0450025A0580D89004320332072E8B
:1001D800D5EF00F005C001F006C002F01200035090
:1001E8000410D8B4FAEF00F0FCEF00F020EF01F0B3
:1001F800010E056E04EF01F0D89003360436052A87
:1002080004AE09EF01F00BEF01F000EF01F003502D
:10021800015C04500258D8A014EF01F016EF01F069
:100228001AEF01F00350015E0450025AD8900432CC
:100238000332052E0BEF01F001C001F002C002F0FD
:10024800120014BE2CEF01F02AEF01F038EF01F094
:1002580011C0D9FF12C0DAFF2D0EDF6E114A122A23
:10026800136C141ED8B0142A11C008F012C009F07B
:1002780013C00AF014C00BF015C00CF016C00DF036
:1002880058EC00F01200F28AD58CD59AD596D59400
:10029800D592D590000ED76EFA0ED66ED58E120076
:1002A800949C948EAC94AC98AC8AAB8EAB889D8AA7
:1002B8009D981F0EAF6E120000EE1BF0170EEE6A2F
:1002C800E806FDE13290329200016BEF01F093688D
:1002D800F28EF28C54EC01F047EC01F072EF01F071
:1002E80056EF00F0016E01C0ADFFACA27EEF01F049
:0A02F80080EF01F079EF01F0120031
:020000040020DA
:08000000FFFFFFFFFFFFFFFF00
:020000040030CA
:0E000000FFCC0F3E3C9985FF0FC00FE00F4074
:00000001FF
