:04000000FDEF00F020
:100008005F82F3CF56F0F4CF57F0A3A40EEF00F0C1
:1000180010EF00F032EF00F0A4A415EF00F017EF96
:1000280000F032EF00F058C01AF059C01BF05AC067
:100038001CF05BC01DF0000E1E6E000E1F6E800EC1
:10004800206E3F0E216E82EC01F01AC058F01BC0E2
:1000580059F01CC05AF01DC05BF0A494F2A437EF0D
:1000680000F039EF00F0F7EF00F05C045D10D8A461
:1000780040EF00F042EF00F052EF00F058C07CF083
:1000880059C07DF05AC07EF05BC07FF0000E586EFC
:10009800000E596E000E5A6E000E5B6E020E5C1852
:1000A8005D10D8A45AEF00F05CEF00F06CEF00F0A0
:1000B80058C078F059C079F05AC07AF05BC07BF02C
:1000C800000E586E000E596E000E5A6E000E5B6ED2
:1000D800030E5C185D10D8A474EF00F076EF00F002
:1000E800F4EF00F0000E5D6E000E5C6E7CC00DF04B
:1000F8007DC00EF07EC00FF07FC010F078C011F008
:1001080079C012F07AC013F07BC014F058C015F013
:1001180059C016F05AC017F05BC018F005EC07F08C
:100128000DC058F00EC059F00FC05AF010C05BF067
:10013800660E056E660E066E360E076E410E086E6A
:1001480058C001F059C002F05AC003F05BC004F077
:10015800E2EC03F001C01AF002C01BF003C01CF06F
:1001680004C01DF0B9EC08F01AC080F01BC081F083
:100178000001805159EC0AF0000E376EB40E366E4D
:10018800F7EC05F036C04CF037C04DF038C04EF0F3
:1001980039C04FF0ECEC09F0BE6E000E376EB40EAD
:1001A800366EF7EC05F036C04CF037C04DF038C06D
:1001B8004EF039C04FF01AEC0AF0556E553ABD5062
:1001C8005518CF0B5518BD6E000E586E000E596E9F
:1001D800000E5A6E000E5B6E000E5D6E000E5C6EB9
:1001E8005C4A5D2AF29457C0F4FF56C0F3FF5F9251
:0601F8001100BEEF09F04A
:10030000007500001D50800B266E1D501D24286EA8
:100310001CAE8DEF01F08FEF01F090EF01F028801F
:100320002850D8B496EF01F098EF01F0ADEF01F04E
:100330002828D8A49EEF01F0A0EF01F0A8EF01F06B
:10034000000E1A6E000E1B6E000E1C6E000E1D6E4F
:100350001C8E000E1D6EB5EF01F0000E1A6E000E21
:100360001B6E000E1C6E000E1D6E2150800B276E42
:1003700026502718D8B4BFEF01F0C1EF01F0C2EF4B
:1003800001F0268C21502124276E20AECAEF01F007
:10039000CCEF01F0CDEF01F027802750D8B4D3EF98
:1003A00001F0D5EF01F0EAEF01F02728D8A4DBEF48
:1003B00001F0DDEF01F0E5EF01F0000E1E6E000E22
:1003C0001F6E000E206E000E216E208E000E216E1C
:1003D000F2EF01F0000E1E6E000E1F6E000E206E7A
:1003E000000E216E2850275CD8B0F9EF01F0FBEF2A
:1003F00001F022EF02F026AC00EF02F002EF02F073
:1004000004EF02F0800E261A28C029F027C028F039
:1004100029C027F01AC029F01EC01AF029C01EF00A
:100420001BC029F01FC01BF029C01FF01CC029F001
:1004300020C01CF029C020F01DC029F021C01DF0F3
:1004400029C021F0000E296E285027C022F0236A0F
:10045000225E000E235A23BE37EF02F0235009E13B
:100460001A0E225CD8A037EF02F039EF02F070EFDD
:1004700002F01A501B101C101D10D8A442EF02F0FD
:1004800045EF02F0010E46EF02F0000E296E000E5D
:100490001A6E000E1B6E000E1C6E000E1D6E27C025
:1004A00028F079EF02F029A058EF02F05AEF02F09D
:1004B00060EF02F0D89029300109296E62EF02F056
:1004C000D89029321AA067EF02F069EF02F06AEFC4
:1004D00002F0298E1D341D321C321B321A32282A9A
:1004E0002750285CD8A077EF02F079EF02F053EFA5
:1004F00002F026BC7EEF02F080EF02F0C0EF02F0C7
:100500002850D8A486EF02F088EF02F092EF02F0B4
:10051000000E1A6E000E1B6E000E1C6E000E1D6E7D
:10052000E1EF03F01E501A261F501B2220501C2200
:1005300021501D221DA09FEF02F0A1EF02F04DEF10
:1005400003F029A0A6EF02F0A8EF02F0AEEF02F050
:10055000D89029300109296EB0EF02F0D8902932E5
:100560001AA0B5EF02F0B7EF02F0B8EF02F0298E53
:100570001D341D321C321B321A32282A4DEF03F073
:100580001E501A5C1F501B5820501C581D50800ACA
:10059000226E2150800A2258D8B0D1EF02F0D3EF5A
:1005A00002F0FEEF02F01A501E5C226E1B501F5824
:1005B000236E1C502058246E1D502158256EFF0EAE
:1005C00022241A6EFF0E23201B6EFF0E24201C6EA9
:1005D000FF0E25201D6E800E261A296C2950D8A4E6
:1005E000F4EF02F0F6EF02F006EF03F0010E1A2628
:1005F000000E1B221C221D2206EF03F01E501A5E65
:100600001F501B5A20501C5A21501D5A1A501B10A3
:100610001C101D10D8A40FEF03F011EF03F046EFEC
:1006200003F02950D8A417EF03F019EF03F046EFB9
:1006300003F0000E1A6E000E1B6E000E1C6E000EF4
:100640001D6EE1EF03F0D8901A361B361C361D36AE
:1006500029AE2DEF03F02FEF03F030EF03F01A80F7
:1006600029A035EF03F037EF03F03BEF03F0D8801C
:1006700029363DEF03F0D89029362850D8B443EFFF
:1006800003F045EF03F046EF03F028061CAE4BEFF6
:1006900003F04DEF03F023EF03F0000E276E29AEB9
:1006A00054EF03F056EF03F06EEF03F029C022F091
:1006B0007F0E2216D8B45FEF03F061EF03F065EF11
:1006C00003F0010E276E6EEF03F01AA06AEF03F03D
:1006D0006CEF03F06EEF03F061EF03F02750D8B436
:1006E00074EF03F076EF03F0A1EF03F0010E1A268A
:1006F000000E1B221C221D221DA081EF03F083EFA0
:1007000003F0A1EF03F01AC022F01BC023F01CC0BD
:1007100024F01DC025F02534253224322332223224
:1007200022C01AF023C01BF024C01CF025C01DF00D
:100730002828D8B49EEF03F0A0EF03F0A1EF03F058
:10074000282A2828D8B4A7EF03F0A9EF03F0B1EFC7
:1007500003F02850D8A4AFEF03F0B1EF03F0C3EFDC
:1007600003F0000E1A6E000E1B6E000E1C6E000EC3
:100770001D6E2850D8A4BFEF03F0C1EF03F0C3EF04
:1007800003F0000E266E28A0C8EF03F0CAEF03F0B6
:10079000CDEF03F01C8ECEEF03F01C9ED8902830D6
:1007A0001D6E26AED6EF03F0D8EF03F0D9EF03F0BD
:1007B0001D8E1AC01AF01BC01BF01CC01CF01DC0FF
:1007C0001DF012000450800B0D6E04500424136EB3
:1007D00003AEEDEF03F0EFEF03F0F0EF03F0138063
:1007E0001350D8B4F6EF03F0F8EF03F00BEF04F07A
:1007F0001328D8A4FEEF03F000EF04F008EF04F094
:10080000000E016E000E026E000E036E000E046EEE
:10081000038E13EF04F0000E016E000E026E000E48
:10082000036E000E046E0850800B0D1A0850082449
:10083000126E07AE1EEF04F020EF04F021EF04F07B
:1008400012801250D8B427EF04F029EF04F03CEFE7
:1008500004F01228D8A42FEF04F031EF04F039EFA0
:1008600004F0000E056E000E066E000E076E000E00
:10087000086E078E44EF04F0000E056E000E066E43
:10088000000E076E000E086E1250D8B44AEF04F046
:100890004CEF04F054EF04F01350D8A452EF04F0DE
:1008A00054EF04F05EEF04F0000E016E000E026ED5
:1008B000000E036E000E046EF6EF05F00750010205
:1008C000F3CF18F0F4CF19F018500E6E0F6A106ABB
:1008D000116A1950146E156A166A176A06500202D8
:1008E000F3CF18F0F4CF19F018500E26000E0F2297
:1008F0001022112219501426000E1522162217223A
:1009000005500302F3CF18F0F4CF19F018500E265B
:10091000000E0F221022112219501426000E15224B
:100920001622172210C011F00FC010F00EC00FF0E9
:100930000E6A05500202F3CF18F0F4CF19F01850E8
:100940000E2619500F22000E1022000E1122065002
:100950000102F3CF18F0F4CF19F018500E261950F9
:100960000F22000E1022000E112210C011F00FC035
:1009700010F00EC00FF00E6A05500102F3CF18F010
:10098000F4CF19F018500E2619500F22000E102225
:10099000000E112207500202F3CF18F0F4CF19F025
:1009A0001850142619501522000E1622000E172278
:1009B00006500302F3CF18F0F4CF19F018501426A4
:1009C00019501522000E1622000E1722075003029E
:1009D000F3CF18F0F4CF19F01850096E19500A6EC1
:1009E0000B6A0C6A0BC00CF00AC00BF009C00AF0CD
:1009F000096A095014260A5015220B5016220C5071
:100A000017220EC009F00FC00AF010C00BF011C081
:100A10000CF0190E11EF05F0D8900C320B320A329F
:100A20000932E82E0CEF05F0095014260A50152261
:100A30000B5016220C50172210C011F00FC010F0EE
:100A40000EC00FF00E6A125013C009F00A6A092690
:100A5000000E0A22820E0924186EFF0E0A20196E5B
:100A600047EF05F0D890143615361636173611AE06
:100A70003CEF05F03EEF05F03FEF05F01480D89015
:100A80000E360F36103611361806D8A0190616AED7
:100A90004CEF05F04EEF05F032EF05F0000E126E50
:100AA00011AE55EF05F057EF05F07BEF05F0FF0EA7
:100AB0000E14096EFF0E0F140A6EFF0E10140B6E4B
:100AC0007F0E11140C6E09500A100B100C10D8B4C4
:100AD0006CEF05F06EEF05F072EF05F0010E126E8F
:100AE0007BEF05F014A077EF05F079EF05F07BEFD1
:100AF00005F06EEF05F01250D8B481EF05F083EFEA
:100B000005F0A7EF05F0010E1426000E152216229F
:100B1000172217A08EEF05F090EF05F0A7EF05F074
:100B200014C009F015C00AF016C00BF017C00CF085
:100B30000C340C320B320A32093209C014F00AC0EC
:100B400015F00BC016F00CC017F0184A192A19BE80
:100B5000B2EF05F0195008E11828D8A0B2EF05F05F
:100B6000B4EF05F0BEEF05F0000E146E000E156E2A
:100B7000800E166E7F0E176EECEF05F019BECBEFF0
:100B800005F0195006E11804D8B0C9EF05F0CBEF15
:100B900005F0D7EF05F0000E146E000E156E000E76
:100BA000166E000E176E000E0D6EECEF05F018C0FD
:100BB00013F0FF0E1416FF0E15167F0E1616000EFC
:100BC000171613A0E6EF05F0E8EF05F0E9EF05F0E2
:100BD000168ED8901330176E0D50171214C001F0F6
:100BE00015C002F016C003F017C004F01200000E8A
:100BF0003C6E000E3D6E400E3E6E3F0E3F6EEC0EA4
:100C0000406E510E416E380E426E3D0E436E3650B0
:100C10000001805D3A6E375081593B6E3AC028F032
:100C20003BC029F0000E29BEFF0E2A6E2B6E010E6E
:100C3000DFEC07F028C044F029C045F02AC046F098
:100C40002BC047F074C01AF075C01BF076C01CF0C2
:100C500077C01DF044C01EF045C01FF046C020F014
:100C600047C021F082EC01F01AC074F01BC075F08F
:100C70001CC076F01DC077F044C005F045C006F0FA
:100C800046C007F047C008F03CC001F03DC002F08C
:100C90003EC003F03FC004F0E2EC03F001C01AF0E4
:100CA00002C01BF003C01CF004C01DF074C005F0AE
:100CB00075C006F076C007F077C008F040C001F0BC
:100CC00041C002F042C003F043C004F0E2EC03F084
:100CD00001C01EF002C01FF003C020F004C021F0CC
:100CE00082EC01F01AC048F01BC049F01CC04AF069
:100CF0001DC04BF0000E016E000E026EC80E036E9A
:100D0000420E046E48C005F049C006F04AC007F024
:100D10004BC008F03CEC09F0D8B091EF06F093EF2F
:100D200006F09BEF06F0000E486E000E496EC80EEE
:100D30004A6E420E4B6E48C001F049C002F04AC0F4
:100D400003F04BC004F0000E056E000E066EC80ED8
:100D5000076EC20E086E3CEC09F0D8B0B2EF06F098
:100D6000B4EF06F0BCEF06F0000E486E000E496EC0
:100D7000C80E4A6EC20E4B6E4BBEC3EF06F0C1EFFB
:100D800006F0C5EF06F082808292000E016E000E22
:100D9000026E000E036E000E046E48C005F049C0DE
:100DA00006F04AC007F04BC008F03CEC09F0D8B0A0
:100DB000DCEF06F0DEEF06F0E0EF06F082908282D4
:100DC00048C01AF049C01BF04AC01CF04BC01DF0CF
:100DD000B9EC08F01AC024F01BC025F03FEC0AF073
:100DE00024C028F025C029F0000E29BEFF0E2A6E6F
:100DF0002B6E010EDFEC07F028C036F029C037F06B
:100E00002AC038F02BC039F0120011C001F012C016
:100E100002F013C003F014C004F00DC005F00EC0C2
:100E200006F00FC007F010C008F03CEC09F0D8A0A5
:100E30001CEF07F01EEF07F064EF07F015C001F09C
:100E400016C002F017C003F018C004F00DC005F082
:100E50000EC006F00FC007F010C008F03CEC09F01F
:100E6000D8A035EF07F037EF07F064EF07F015C0B3
:100E700001F016C002F017C003F018C004F011C052
:100E800005F012C006F013C007F014C008F03CECE7
:100E900009F0D8B04EEF07F050EF07F05AEF07F027
:100EA00015C019F016C01AF017C01BF018C01CF0BE
:100EB000D6EF07F011C019F012C01AF013C01BF0E2
:100EC00014C01CF0D6EF07F00DC001F00EC002F008
:100ED0000FC003F010C004F011C005F012C006F0FE
:100EE00013C007F014C008F03CEC09F0D8A07BEF69
:100EF00007F07DEF07F0BBEF07F015C001F016C05B
:100F000002F017C003F018C004F011C005F012C0C1
:100F100006F013C007F014C008F03CEC09F0D8A0AC
:100F200094EF07F096EF07F0BBEF07F015C001F064
:100F300016C002F017C003F018C004F00DC005F091
:100F40000EC006F00FC007F010C008F03CEC09F02E
:100F5000D8B0ADEF07F0AFEF07F0B1EF07F050EF0B
:100F600007F00DC019F00EC01AF00FC01BF010C032
:100F70001CF0D6EF07F011C001F012C002F013C050
:100F800003F014C004F00DC005F00EC006F00FC051
:100F900007F010C008F03CEC09F0D8B0D2EF07F031
:100FA000D4EF07F0B1EF07F05AEF07F019C00DF0DA
:100FB0001AC00EF01BC00FF01CC010F01200306EF3
:100FC0003050D8B4E6EF07F0E8EF07F00AEF08F08A
:100FD0002BBEEFEF07F0EDEF07F00AEF08F028C0A7
:100FE0002CF029C02DF02AC02EF02BC02FF02C1E83
:100FF0002D1E2E1E2F1E2C2A000E2D222E222F22B9
:101000002CC032F02DC033F02EC034F02FC035F09C
:1010100012EF08F028C032F029C033F02AC034F0B3
:101020002BC035F0285029102A102B10D8A41BEF04
:1010300008F01DEF08F027EF08F0000E286E000EF4
:10104000296E000E2A6E000E2B6EB8EF08F0960E79
:10105000316E31EF08F0312AD890353234323332E4
:101060003232000E32142C6E000E33142D6E000E30
:1010700034142E6EFE0E35142F6E2C502D102E10A3
:101080002F10D8A446EF08F048EF08F02BEF08F037
:1010900056EF08F0312A010E3226000E3322342298
:1010A0003522D8903532343233323232000E321497
:1010B0002C6E000E33142D6E000E34142E6EFF0EA7
:1010C00035142F6E2C502D102E102F10D8A46BEF2E
:1010D00008F06DEF08F04AEF08F075EF08F0310600
:1010E000D890323633363436353634BE7AEF08F09F
:1010F0007CEF08F084EF08F0020E316082EF08F018
:1011000084EF08F06FEF08F031B089EF08F08BEF53
:1011100008F08CEF08F0349ED890313231C02CF0BA
:101120002D6A2E6A2F6A2CC02FF02E6A2D6A2C6A27
:101130002C5032122D5033122E5034122F503512A3
:101140003050D8B4A6EF08F0A8EF08F0B0EF08F0E0
:101150002BBEAFEF08F0ADEF08F0B0EF08F0358E22
:1011600032C028F033C029F034C02AF035C02BF04B
:1011700012001C341D34236E2350D8A4C2EF08F093
:10118000C4EF08F0CEEF08F0000E1A6E000E1B6ED2
:10119000000E1C6E000E1D6E3BEF09F01AC01EF013
:1011A0001BC01FF01CC020F01DC021F0200EDEEF80
:1011B00008F0D890213220321F321E32E82ED9EFAB
:1011C00008F01E50226E1C8EFF0E1A16FF0E1B1604
:1011D000FF0E1C16000E1D16960E235E23BEF5EFA5
:1011E00008F0F3EF08F00BEF09F02350800A970F97
:1011F000D8B0FDEF08F0FFEF08F001EF09F0C4EF01
:1012000008F0D8901D321C321B321A32233E01EFF7
:1012100009F023EF09F01F0E236411EF09F013EF1B
:1012200009F01BEF09F0C4EF08F0D8901A361B360E
:101230001C361D3623062350D8A421EF09F023EFD6
:1012400009F015EF09F02250D8B429EF09F02BEF7F
:1012500009F033EF09F01D1E1C1E1B1E1A6C000E38
:101260001B221C221D221AC01AF01BC01BF01CC01E
:101270001CF01DC01DF01200000E0114096E000EBE
:1012800002140A6E800E03140B6E7F0E04140C6E93
:1012900009500A100B100C10D8A451EF09F053EFAD
:1012A00009F05BEF09F0000E016E000E026E000EF9
:1012B000036E000E046E000E0514096E000E061477
:1012C0000A6E800E07140B6E7F0E08140C6E095008
:1012D0000A100B100C10D8A470EF09F072EF09F08F
:1012E0007AEF09F0000E056E000E066E000E076E16
:1012F000000E086E04AE7FEF09F081EF09F08AEF6F
:1013000009F0016C021ED8B0022A031ED8B0032ACD
:10131000800E045608AE8FEF09F091EF09F09AEFB6
:1013200009F0056C061ED8B0062A071ED8B0072A99
:10133000800E0856000E011A000E021A000E031A43
:10134000800E041A000E051A000E061A000E071A67
:10135000800E081A0550015C0650025807500358C9
:1013600008500458D8B0B7EF09F0B9EF09F0BCEF56
:1013700009F0D890BDEF09F0D8801200900EF66EFB
:10138000150EF76E000EF86E00EE87F010EE06F008
:101390000900F5CFEEFFE550E150FAE1960EF66E4A
:1013A000150EF76E000EF86E0900F5CF5EF000EE38
:1013B00060F0270EEE6AE806FDE15D6A5C6A5B6A32
:1013C0005A6A596A586A5F905F92000EF86E030E6F
:1013D000F76E000170EF0AF0F20E056ED20E066E87
:1013E000230E076E410E086E4CC001F04DC002F096
:1013F0004EC003F04FC004F0E2EC03F001C01AF05D
:1014000002C01BF003C01CF004C01DF0B9EC08F0D2
:101410001AC052F01BC053F052C050F053C051F0EC
:101420005134513250325134513250325050546E46
:1014300054501200F20E056ED20E066E230E076E89
:10144000410E086E4CC001F04DC002F04EC003F0DA
:101450004FC004F0E2EC03F001C01AF002C01BF030
:1014600003C01CF004C01DF0B9EC08F01AC050F025
:101470001BC051F05050030B526E5250120025BE4B
:1014800046EF0AF044EF0AF054EF0AF024C026F0C9
:1014900025C027F0261E271E264A272A26C024F00C
:1014A00027C025F058EF0AF024C024F025C025F00D
:1014B0001200016EC9509E96C69E01C0C9FFC6AEFD
:1014C00064EF0AF066EF0AF068EF0AF06FEF0AF0D7
:1014D0009EA66DEF0AF06FEF0AF068EF0AF01200B7
:1014E000F28EF28C80EC0AF0B8EC0AF09FEC0AF075
:1014F000ACEC0AF090EC0AF07CEF0AF0FDEF00F0A3
:10150000608A6088F80E6016B68EB688B686B69485
:10151000000E656E010E646EB690B692A384120042
:101520009488948A948C949E8484400EC76E240E72
:10153000C66E9E96000EC26E0F0EC16E1200F28A2B
:10154000D58CD59AD596D584D582D580000ED76E08
:10155000000ED66ED58E12009494948CCB68C2EC9B
:101560000AF0BD86BD84949094928280829212008B
:10157000B792B796B798B79A000E886E000E876E2E
:10158000B7801200000ECA6ECA80CA82CA841200D6
:07159000366E01006400014A
:020000040020DA
:08000000FFFFFFFFFFFFFFFF00
:020000040030CA
:0E000000FFCC0F3E3C9D85FF0FC00FE00F4070
:00000001FF
