:0400000071EF01F0AB
:100008004B82D9CF3EF0DACF3FF0F3CF40F0F4CFB8
:1000180041F0F2A412EF00F014EF00F0B0EF00F09E
:10002800054A062A070E3C6E7D0EE82EFED73C2EAA
:10003800FCD700F0640E05180610D8A426EF00F0CF
:1000480028EF00F02AEF00F060EC02F0C80E051867
:100058000610D8A432EF00F034EF00F036EF00F0CD
:10006800B9EC02F00A0E05180610D8A43EEF00F00D
:1000780040EF00F0B0EF00F0470E226E000E236E46
:100088002FEC04F0010E226E465012EC03F0020E23
:10009800226E455012EC03F00850D8A456EF00F039
:1000A80058EF00F07FEF00F00A04D8A45EEF00F0EC
:1000B80060EF00F07FEF00F0470E286E000E296E0B
:1000C80073EC01F02850466E000E0A6E81B66FEF91
:1000D80000F073EF00F03C6A3C2A74EF00F03C6AD1
:1000E8003C5001083D6E3D463D463D4681503D1819
:1000F800F70B3D18816E0750D8A485EF00F087EF05
:1001080000F0ACEF00F00904D8A48DEF00F08FEFF9
:1001180000F0ACEF00F0470E286E000E296E73EC6D
:1001280001F02850456E000E096E81B89EEF00F070
:10013800A2EF00F03C6A3C2AA3EF00F03C6A3C5076
:1001480001083D6E3D3A81503D18EF0B3D18816E18
:10015800000E066E000E056E9EAAB5EF00F0B7EF12
:1001680000F067EF01F0BDEC04F0426E0C50D8B41B
:10017800C0EF00F0C2EF00F0D3EF00F0030E08600C
:10018800C8EF00F0CAEF00F0D3EF00F0470E0824E4
:10019800D96EDA6A000EDA2242C0DFFF082A0C5054
:1001A800D8B4D9EF00F0DBEF00F0FBEF00F0020E5F
:1001B8000864E1EF00F0E3EF00F0FBEF00F0000E61
:1001C800086E81B0EAEF00F0EEEF00F03C6A3C2ADE
:1001D800EFEF00F03C6A3C5001083D6E81503D183D
:1001E800FE0B3D18816E000E0C6E010E0A6E0B5050
:1001F800D8B401EF01F003EF01F014EF01F0030EA2
:10020800076009EF01F00BEF01F014EF01F0470E62
:100218000724D96EDA6A000EDA2242C0DFFF072A05
:100228000B50D8B41AEF01F01CEF01F03CEF01F0CD
:10023800020E076422EF01F024EF01F03CEF01F019
:10024800000E076E81B02BEF01F02FEF01F03C6A32
:100258003C2A30EF01F03C6A3C5001083D6E815069
:100268003D18FE0B3D18816E000E0B6E010E096ED7
:10027800410E4218D8A443EF01F045EF01F05CEFBE
:1002880001F0010E0C6E81B64CEF01F050EF01F059
:100298003C6A3C2A51EF01F03C6A3C5001083D6E33
:1002A8003D463D463D4681503D18F70B3D18816E51
:1002B800420E4218D8A463EF01F065EF01F067EF32
:1002C80001F0010E0B6E41C0F4FF40C0F3FF3FC0C8
:1002D800DAFF3EC0D9FF4B92110014EF04F077EF1C
:1002E80001F0284A292A28C0D9FF29C0DAFF200EA0
:1002F800DE18D8B482EF01F084EF01F075EF01F059
:1003080028C0D9FF29C0DAFF090EDE18D8B48FEF4C
:1003180001F091EF01F075EF01F0000E2E6E000E66
:100328002D6E000E2C6E28C0D9FF29C0DAFF2D0EC5
:10033800DE18D8A4A2EF01F0A4EF01F0A9EF01F0B4
:100348002C2A284A292AD6EF01F028C0D9FF29C02B
:10035800DAFF2B0EDE18D8A4B4EF01F0B6EF01F0E7
:10036800D6EF01F0284A292AD6EF01F02DC022F055
:100378002EC023F0000E256E0A0E246E76EC04F0D3
:1003880028C0D9FF29C0DAFFDF502A6E2A5022265A
:10039800000E2322D00E22242D6EFF0E23202E6E57
:1003A800B6EF01F028C0D9FF29C0DAFFDF504AECC8
:1003B80004F0D8B0E2EF01F0E4EF01F0BAEF01F099
:1003C8002C50D8B4EAEF01F0ECEF01F0FAEF01F0AD
:1003D8002DC02AF02EC02BF02A1E2B1E2A4A2B2AAB
:1003E8002AC028F02BC029F0FEEF01F02DC028F01C
:1003F8002EC029F012002BC02FF02CC030F02FC0D7
:1004080022F030C023F02DC024F02EC025F04FEC90
:1004180003F022C02FF023C030F0294A2A2A2F5097
:100428003010D8A41AEF02F01CEF02F003EF02F02C
:1004380029C0D9FF2AC0DAFF000EDF6E2906D8A02E
:100448002A062BC022F02CC023F02DC024F02EC089
:1004580025F0C0EC03F02250316E2BC022F02CC0E6
:1004680023F02DC024F02EC025F04FEC03F022C05D
:100478002BF023C02CF0090E316445EF02F047EF52
:1004880002F049EF02F0070E3126300E312629C05E
:10049800D9FF2AC0DAFF31C0DFFF2906D8A02A0613
:1004A8002B502C10D8A45BEF02F05DEF02F025EF83
:1004B80002F0294A2A2A1200000E236E020E226E2A
:1004C80089EC03F03B6E3B50D8B46DEF02F06FEF50
:1004D80002F07DEF02F045503B18D8A476EF02F009
:1004E80078EF02F07AEF02F07DEF02F03BC001F006
:1004F800026A070E386E7D0EE82EFED7382EFCD71E
:1005080000F0420EB2EC04F00E0E326E000E336EA6
:1005180001C034F002C035F0000E376E0A0E366E98
:10052800F2EC03F0000E3A6E000E396EA7EF02F0FF
:100538000E0E3924D96E000E3A20DA6EDF50B2EC76
:1005480004F0394A3A2A0E0E3924D96E000E3A20A0
:10055800DA6EDF50D8A4B3EF02F0B5EF02F09CEFEB
:1005680002F00A0EB2EC04F01200000E236E010E27
:10057800226E89EC03F03B6E3B50D8B4C6EF02F014
:10058800C8EF02F0D6EF02F046503B18D8A4CFEFE0
:1005980002F0D1EF02F0D3EF02F0D6EF02F03BC049
:1005A80003F0046A070E386E7D0EE82EFED7382E4B
:1005B800FCD700F0410EB2EC04F00E0E326E000EC5
:1005C800336E03C034F004C035F0000E376E0A0EE7
:1005D800366EF2EC03F0000E3A6E000E396E00EF44
:1005E80003F00E0E3924D96E000E3A20DA6EDF5071
:1005F800B2EC04F0394A3A2A0E0E3924D96E000EAC
:100608003A20DA6EDF50D8A40CEF03F00EEF03F0B7
:10061800F5EF02F00A0EB2EC04F01200236E220489
:10062800D8A419EF03F01BEF03F01CEF03F082923C
:10063800020E2218D8A423EF03F025EF03F026EFCB
:1006480003F08294C9509E96C69E23C0C9FFC6AEC9
:1006580030EF03F032EF03F034EF03F04EEF03F026
:100668009EA639EF03F03BEF03F034EF03F02204CA
:10067800D8A441EF03F043EF03F044EF03F0828284
:10068800020E2218D8A44BEF03F04DEF03F04EEF03
:1006980003F082841200000E276E000E266E24508E
:1006A8002510D8B45AEF03F05CEF03F084EF03F0A1
:1006B800010E286E64EF03F0D89024362536282AD8
:1006C80025AE69EF03F06BEF03F060EF03F0D8900D
:1006D800263627362450225C25502358D8A077EF99
:1006E80003F079EF03F07EEF03F02450225E2550EB
:1006F800235A2680D89025322432282E6BEF03F017
:1007080026C022F027C023F0120022042310D8A408
:1007180090EF03F092EF03F093EF03F08292020E52
:1007280022182310D8A49BEF03F09DEF03F09EEF4F
:1007380003F08294C9509E96000EC96E9EA6A7EF3C
:1007480003F0A9EF03F0A2EF03F022042310D8A4CA
:10075800B0EF03F0B2EF03F0B3EF03F08282020EC2
:1007680022182310D8A4BBEF03F0BDEF03F0BEEFAF
:1007780003F08284C950120024502510D8B4C7EF62
:1007880003F0C9EF03F0EDEF03F0010E266ED1EF91
:1007980003F0D89024362536262A25AED6EF03F066
:1007A800D8EF03F0CDEF03F02450225C25502358F6
:1007B800D8A0E1EF03F0E3EF03F0E7EF03F02450F4
:1007C800225E2550235AD89025322432262ED8EF7F
:1007D80003F022C022F023C023F0120035BEF9EF47
:1007E80003F0F7EF03F005EF04F032C0D9FF33C090
:1007F800DAFF2D0EDF6E324A332A346C351ED8B03C
:10080800352A32C029F033C02AF034C02BF035C065
:100818002CF036C02DF037C02EF0FFEC01F012009E
:100828008C0EF66E090EF76E000EF86E00EE43F0B1
:1008380010EE08F00900F5CFEEFFE550E150FAE1BF
:1008480000EE01F0210EEE6AE806FDE14B904B92B6
:10085800000163EF04F0000E256E000E246E3EEFDB
:1008680004F024502224D96E25502320DA6EBDECE2
:1008780004F0DF6E244A252A24042510D8A447EF63
:1008880004F049EF04F035EF04F01200246E000E76
:10089800236E3A0E246053EF04F055EF04F05FEF37
:1008A80004F02F0E24645BEF04F05DEF04F05FEFBB
:1008B80004F0010E236E23C022F022301200F28EC3
:1008C800F28C000E936EA6EC04F099EC04F0818C87
:1008D800949482849492828289EC04F072EF04F0FA
:1008E80071EF01F022502402F3CF26F0F4CF27F065
:1008F80022502502F350272623502402F35027269E
:1009080026C022F027C023F012009D869F8695847A
:10091800959695928484400EC76E200EC66E9E965C
:10092800000EC26E0F0EC16E1200F28AD58CD59AD7
:10093800D596D584D592D580000ED76E000ED66E8A
:10094800D58E1200949C948EAC94AC98AC8AAB8EE5
:10095800AB889D8A9D981F0EAF6E1200226E22C032
:10096800ADFFACA2BAEF04F0BCEF04F0B5EF04F0B1
:1009780012009EAAC2EF04F0C4EF04F0BDEF04F029
:0C098800AE5012006400B4B431383000EE
:020000040020DA
:08000000FFFFFFFFFFFFFFFF00
:020000040030CA
:0E000000FFCC0F3E3C9985FF0FC00FE00F4074
:00000001FF
