:04000000CFEF02F04C
:100008005F82D9CF93F0DACF94F0F3CF95F0F4CFA5
:1000180096F09EAA12EF00F014EF00F0E8EF00F05F
:10002800D5EC0DF00001A76F8351D8B41EEF00F096
:1000380020EF00F03CEF00F0030E7F6126EF00F0A8
:1000480028EF00F03CEF00F0A75180EC0DF0D8A0AD
:1000580030EF00F032EF00F03CEF00F0B20E00019C
:100068007F25D96EDA6A000EDA22A7C0DFFF7F2B60
:1000780000018351D8B443EF00F045EF00F05EEF84
:1000880000F0020E7F654BEF00F04DEF00F05EEFE1
:1000980000F0A75180EC0DF0D8A055EF00F057EF15
:1000A80000F05EEF00F0000E00017F6F000E836F1E
:1000B800010E816F00018251D8B465EF00F067EF3F
:1000C80000F083EF00F0030E7E616DEF00F06FEF3C
:1000D80000F083EF00F0A75180EC0DF0D8A077EF87
:1000E80000F079EF00F083EF00F0B20E00017E25FA
:1000F800D96EDA6A000EDA22A7C0DFFF7E2B000174
:100108008251D8B48AEF00F08CEF00F0A5EF00F030
:10011800020E7E6592EF00F094EF00F0A5EF00F07C
:10012800A75180EC0DF0D8A09CEF00F09EEF00F0F6
:10013800A5EF00F0000E00017E6F000E826F010E29
:10014800806F420E0001A719D8A4ADEF00F0AFEF01
:1001580000F0C7EF00F0010E826F83BCB6EF00F02D
:10016800BAEF00F0916B912BBCEF00F00001916B9E
:1001780091510108926F923B92479247835092198E
:10018800BF0B9219836E410EA719D8A4CEEF00F0C9
:10019800D0EF00F0E8EF00F0010E836F83BCD7EFDB
:1001A80000F0DBEF00F0916B912BDDEF00F0000128
:1001B800916B91510108926F923B924792478350FD
:1001C8009219BF0B9219836EF2A4EDEF00F0EFEFD6
:1001D80000F0C5EF02F000017A4B7B2B7A057B110A
:1001E800D8A4F9EF00F0FBEF00F0FDEF00F00DEC04
:1001F8000DF0020E00017A197B11D8A406EF01F068
:1002080008EF01F00AEF01F02CEC0DF0030E0001ED
:100218007A197B11D8A413EF01F015EF01F03AEF2A
:1002280002F0EA0E176E760E186ED60E196E3D0E97
:100238001A6E78517625916F79517721926F91C016
:1002480005F092C006F0000E06BEFF0E076E086E9F
:10025800010E13EC09F005C013F006C014F007C036
:1002680015F008C016F031EC05F013C0A3F014C067
:10027800A4F015C0A5F016C0A6F0000E306E000E52
:10028800316E000E326E400E336EACC017F0ADC04A
:1002980018F0AEC019F0AFC01AF0A3C013F0A4C094
:1002A80014F0A5C015F0A6C016F031EC05F013C087
:1002B8002CF014C02DF015C02EF016C02FF046EC0F
:1002C80007F02CC097F02DC098F02EC099F02FC0E1
:1002D8009AF0000E176E000E186E800E196E430EFF
:1002E8001A6E97C013F098C014F099C015F09AC010
:1002F80016F031EC05F013C059F014C05AF015C0CF
:100308005BF016C05CF0FDEC0BF059C09BF05AC0D6
:100318009CF05BC09DF05CC09EF09BC045F09CC00B
:1003280046F09DC047F09EC048F079EC0AF0455071
:1003380000017D6F000E176E000E186E000E196E0C
:10034800400E1A6EA8C013F0A9C014F0AAC015F088
:10035800ABC016F031EC05F013C030F014C031F02A
:1003680015C032F016C033F0EA0E176E760E186E0E
:10037800D60E196E3D0E1A6E00017851765D016E2B
:1003880079517759026E66EC0DF001C005F002C094
:1003980006F0000E06BEFF0E076E086E010E13EC87
:1003A80009F005C013F006C014F007C015F008C026
:1003B80016F031EC05F013C02CF014C02DF015C068
:1003C8002EF016C02FF046EC07F02CC0A3F02DC07D
:1003D800A4F02EC0A5F02FC0A6F00A0E176ED70EF7
:1003E800186EA30E196E400E1A6EA3C013F0A4C0A7
:1003F80014F0A5C015F0A6C016F031EC05F013C036
:1004080059F014C05AF015C05BF016C05CF0FDEC52
:100418000BF059C09FF05AC0A0F05BC0A1F05CC0BF
:10042800A2F09FC045F0A0C046F0A1C047F0A2C00E
:1004380048F079EC0AF0455000017C6F7DC081FFDF
:100448007851765D79517759800BD8B42EEF02F048
:1004580030EF02F033EF02F0838E34EF02F0839E28
:100468007CC080FF7C45E846030B846E040E7A1935
:100478007B11D8A442EF02F044EF02F04EEF02F0F5
:10048800010E016E5E504EEC0CF0020E016E5D50D6
:100498004EEC0CF0060E00017A197B11D8A457EF28
:1004A80002F059EF02F0BCEF02F07F51D8A45FEFE1
:1004B80002F061EF02F089EF02F08105D8A467EF3E
:1004C80002F069EF02F089EF02F0000E816FB20EC0
:1004D800076E000E086EEDEC09F007505E6E83BAE9
:1004E80078EF02F07DEF02F00001916B912B7FEF26
:1004F80002F00001916B91510108926F923B924773
:1005080083509219DF0B9219836E7E51D8A48FEF16
:1005180002F091EF02F0B8EF02F08005D8A497EF4F
:1005280002F099EF02F0B8EF02F0000E806FB20E01
:10053800076E000E086EEDEC09F007505D6E83B88B
:10054800A8EF02F0ADEF02F00001916B912BAFEF35
:1005580002F00001916B91510108926F923B835018
:100568009219EF0B9219836E000E7B6F000E7A6F53
:10057800110E0001916F3A0EE82EFED7912FFCD78D
:1005880000F096C0F4FF95C0F3FF94C0DAFF93C063
:10059800D9FF5F921100C2EF0CF00450800B0D6E72
:1005A800045004240F6E03AEDCEF02F0DEEF02F01D
:1005B800DFEF02F00F800F50D8B4E5EF02F0E7EF5D
:1005C80002F0FCEF02F00F28D8A4EDEF02F0EFEFF5
:1005D80002F0F7EF02F0000E016E000E026E000E40
:1005E800036E000E046E038E000E046E04EF03F01B
:1005F800000E016E000E026E000E036E000E046EF9
:100608000850800B0E6E0D500E18D8B40EEF03F084
:1006180010EF03F011EF03F00D8C085008240E6E54
:1006280007AE19EF03F01BEF03F01CEF03F00E8089
:100638000E50D8B422EF03F024EF03F039EF03F0A3
:100648000E28D8A42AEF03F02CEF03F034EF03F0C0
:10065800000E056E000E066E000E076E000E086E88
:10066800078E000E086E41EF03F0000E056E000EB7
:10067800066E000E076E000E086E0F500E5CD8B0A6
:1006880048EF03F04AEF03F071EF03F00DAC4FEFC2
:1006980003F051EF03F053EF03F0800E0D1A0FC073
:1006A80010F00EC00FF010C00EF001C010F005C021
:1006B80001F010C005F002C010F006C002F010C032
:1006C80006F003C010F007C003F010C007F004C024
:1006D80010F008C004F010C008F0000E106E0F50A3
:1006E8000EC009F00A6A095E000E0A5A0ABE86EFB1
:1006F80003F00A5009E11A0E095CD8A086EF03F04E
:1007080088EF03F0BFEF03F001500210031004104C
:10071800D8A491EF03F094EF03F0010E95EF03F0E6
:10072800000E106E000E016E000E026E000E036EBB
:10073800000E046E0EC00FF0C8EF03F010A0A7EF74
:1007480003F0A9EF03F0AFEF03F0D89010300109E0
:10075800106EB1EF03F0D890103201A0B6EF03F09D
:10076800B8EF03F0B9EF03F0108E0434043203320B
:10077800023201320F2A0E500F5CD8A0C6EF03F0E8
:10078800C8EF03F0A2EF03F00DBCCDEF03F0CFEFFD
:1007980003F00FEF04F00F50D8A4D5EF03F0D7EF14
:1007A80003F0E1EF03F0000E016E000E026E000E82
:1007B800036E000E046E30EF05F00550012606505A
:1007C8000222075003220850042204A0EEEF03F08F
:1007D800F0EF03F09CEF04F010A0F5EF03F0F7EF53
:1007E80003F0FDEF03F0D89010300109106EFFEF11
:1007F80003F0D890103201A004EF04F006EF04F0E3
:1008080007EF04F0108E043404320332023201324E
:100818000F2A9CEF04F00550015C0650025807505F
:1008280003580450800A096E0850800A0958D8B045
:1008380020EF04F022EF04F04DEF04F00150055CC6
:10084800096E025006580A6E035007580B6E045082
:1008580008580C6EFF0E0924016EFF0E0A20026E66
:10086800FF0E0B20036EFF0E0C20046E800E0D1A77
:10087800106C1050D8A443EF04F045EF04F055EF86
:1008880004F0010E0126000E02220322042255EF75
:1008980004F00550015E0650025A0750035A0850EA
:1008A800045A0150021003100410D8A45EEF04F09B
:1008B80060EF04F095EF04F01050D8A466EF04F050
:1008C80068EF04F095EF04F0000E016E000E026E62
:1008D800000E036E000E046E30EF05F0D89001365E
:1008E80002360336043610AE7CEF04F07EEF04F0D7
:1008F8007FEF04F0018010A084EF04F086EF04F08D
:100908008AEF04F0D88010368CEF04F0D8901036B7
:100918000F50D8B492EF04F094EF04F095EF04F080
:100928000F0603AE9AEF04F09CEF04F072EF04F0A8
:10093800000E0E6E10AEA3EF04F0A5EF04F0BDEFAD
:1009480004F010C009F07F0E0916D8B4AEEF04F019
:10095800B0EF04F0B4EF04F0010E0E6EBDEF04F03A
:1009680001A0B9EF04F0BBEF04F0BDEF04F0B0EF65
:1009780004F00E50D8B4C3EF04F0C5EF04F0F0EF64
:1009880004F0010E0126000E02220322042204A014
:10099800D0EF04F0D2EF04F0F0EF04F001C009F05A
:1009A80002C00AF003C00BF004C00CF00C340C3287
:1009B8000B320A32093209C001F00AC002F00BC03A
:1009C80003F00CC004F00F28D8B4EDEF04F0EFEFFB
:1009D80004F0F0EF04F00F2A0F28D8B4F6EF04F073
:1009E800F8EF04F000EF05F00F50D8A4FEEF04F084
:1009F80000EF05F012EF05F0000E016E000E026E1A
:100A0800000E036E000E046E0F50D8A40EEF05F012
:100A180010EF05F012EF05F0000E0D6E0FA017EFA6
:100A280005F019EF05F01CEF05F0038E1DEF05F03A
:100A3800039ED8900F30046E0DAE25EF05F027EF1A
:100A480005F028EF05F0048E01C001F002C002F0A5
:100A580003C003F004C004F012001650800B1F6E90
:100A680016501624256E15AE3CEF05F03EEF05F046
:100A78003FEF05F025802550D8B445EF05F047EF46
:100A880005F05AEF05F02528D8A44DEF05F04FEFF3
:100A980005F057EF05F0000E136E000E146E000EF1
:100AA800156E000E166E158E62EF05F0000E136EB1
:100AB800000E146E000E156E000E166E1A50800B86
:100AC8001F1A1A501A24246E19AE6DEF05F06FEF35
:100AD80005F070EF05F024802450D8B476EF05F0C7
:100AE80078EF05F08BEF05F02428D8A47EEF05F009
:100AF80080EF05F088EF05F0000E176E000E186EF7
:100B0800000E196E000E1A6E198E93EF05F0000E86
:100B1800176E000E186E000E196E000E1A6E245015
:100B2800D8B499EF05F09BEF05F0A3EF05F0255039
:100B3800D8A4A1EF05F0A3EF05F0ADEF05F0000E86
:100B4800136E000E146E000E156E000E166E45EF35
:100B580007F019501302F3CF2AF0F4CF2BF02A50E4
:100B6800206E216A226A236A2B50266E276A286A19
:100B7800296A18501402F3CF2AF0F4CF2BF02A5028
:100B88002026000E2122222223222B502626000E68
:100B980027222822292217501502F3CF2AF0F4CF52
:100BA8002BF02A502026000E2122222223222B500D
:100BB8002626000E27222822292222C023F021C01F
:100BC80022F020C021F0206A17501402F3CF2AF037
:100BD800F4CF2BF02A5020262B502122000E22225F
:100BE800000E232218501302F3CF2AF0F4CF2BF073
:100BF8002A5020262B502122000E2222000E2322CA
:100C080022C023F021C022F020C021F0206A175012
:100C18001302F3CF2AF0F4CF2BF02A5020262B50C2
:100C28002122000E2222000E232219501402F3CF93
:100C38002AF0F4CF2BF02A5026262B502722000E1C
:100C48002822000E292218501502F3CF2AF0F4CFDB
:100C58002BF02A5026262B502722000E2822000E81
:100C6800292219501502F3CF2AF0F4CF2BF02A507D
:100C78001B6E2B501C6E1D6A1E6A1DC01EF01CC008
:100C88001DF01BC01CF01B6A1B5026261C50272277
:100C98001D5028221E50292220C01BF021C01CF004
:100CA80022C01DF023C01EF0190E60EF06F0D89088
:100CB8001E321D321C321B32E82E5BEF06F01B5031
:100CC80026261C5027221D5028221E50292222C0C9
:100CD80023F021C022F020C021F0206A245025C032
:100CE8001BF01C6A1B26000E1C22820E1B242A6E77
:100CF800FF0E1C202B6E96EF06F0D890263627366E
:100D08002836293623AE8BEF06F08DEF06F08EEFEE
:100D180006F02680D89020362136223623362A0639
:100D2800D8A02B0628AE9BEF06F09DEF06F081EFCA
:100D380006F0000E246E23AEA4EF06F0A6EF06F030
:100D4800CAEF06F0FF0E20141B6EFF0E21141C6E56
:100D5800FF0E22141D6E7F0E23141E6E1B501C10D6
:100D68001D101E10D8B4BBEF06F0BDEF06F0C1EFA2
:100D780006F0010E246ECAEF06F026A0C6EF06F0B4
:100D8800C8EF06F0CAEF06F0BDEF06F02450D8B45D
:100D9800D0EF06F0D2EF06F0F6EF06F0010E2626A9
:100DA800000E27222822292229A0DDEF06F0DFEFF6
:100DB80006F0F6EF06F026C01BF027C01CF028C08E
:100DC8001DF029C01EF01E341E321D321C321B328B
:100DD8001BC026F01CC027F01DC028F01EC029F03B
:100DE8002A4A2B2A2BBE01EF07F02B5008E12A28AC
:100DF800D8A001EF07F003EF07F00DEF07F0000EA2
:100E0800266E000E276E800E286E7F0E296E3BEF31
:100E180007F02BBE1AEF07F02B5006E12A04D8B0D2
:100E280018EF07F01AEF07F026EF07F0000E266E0E
:100E3800000E276E000E286E000E296E000E1F6E23
:100E48003BEF07F02AC025F0FF0E2616FF0E2716E7
:100E58007F0E2816000E291625A035EF07F037EF6C
:100E680007F038EF07F0288ED8902530296E1F50EC
:100E7800291226C013F027C014F028C015F029C085
:100E880016F012002F50800B3C6E2F502F24436E0B
:100E98002EAE51EF07F053EF07F054EF07F0438001
:100EA8004350D8B45AEF07F05CEF07F071EF07F042
:100EB8004328D8A462EF07F064EF07F06CEF07F05F
:100EC800000E2C6E000E2D6E000E2E6E000E2F6E74
:100ED8002E8E000E2F6E79EF07F0000E2C6E000E8E
:100EE8002D6E000E2E6E000E2F6E3350800B3C1AA6
:100EF80033503324446E32AE84EF07F086EF07F0A8
:100F080087EF07F044804450D8B48DEF07F08FEF97
:100F180007F0A4EF07F04428D8A495EF07F097EF5F
:100F280007F09FEF07F0000E306E000E316E000ED6
:100F3800326E000E336E328E000E336EACEF07F059
:100F4800000E306E000E316E000E326E000E336EE3
:100F58003050311032103310D8A4B5EF07F0B7EF86
:100F680007F0CFEF07F0000E2C6E000E2D6E000E6E
:100F78002E6E000E2F6E800E2E127F0E2F123C50FA
:100F88002F122CC02CF02DC02DF02EC02EF02FC00B
:100F98002FF012EF09F04350D8A4D5EF07F0D7EFA0
:100FA80007F0E1EF07F0000E2C6E000E2D6E000E1C
:100FB8002E6E000E2F6E12EF09F0445043C034F02D
:100FC800356A345E000E355A7F0E34243D6E000EAD
:100FD80035203E6E2CC038F02DC039F02EC03AF0C6
:100FE8002FC03BF0000E2C6E000E2D6E000E2E6EE4
:100FF800000E2F6E000E3F6E000E406E000E416E0A
:10100800000E426E000E446E42EF08F04450D8B411
:1010180010EF08F012EF08F029EF08F0D8903836F2
:1010280039363A363B36D8902C362D362E362F3672
:1010380042AE21EF08F023EF08F024EF08F02C80EF
:10104800D8903F364036413642363050385C3150C1
:10105800395832503A5833503B58D8A036EF08F038
:1010680038EF08F041EF08F0428C3050385E3150CC
:10107800395A32503A5A33503B5A442A190E44646A
:1010880048EF08F04AEF08F00AEF08F03850391036
:101098003A103B10D8B453EF08F055EF08F06DEF55
:1010A80008F03F806DEF08F0D8902C362D362E369C
:1010B8002F3642AE62EF08F064EF08F065EF08F0F3
:1010C8002C80D8903F364036413642363D06D8A06F
:1010D8003E062EAE72EF08F074EF08F058EF08F0F5
:1010E800000E446E42AE7BEF08F07DEF08F0A1EFF2
:1010F80008F0FF0E3F14346EFF0E4014356EFF0EDD
:101108004114366E7F0E4214376E34503510361047
:101118003710D8B492EF08F094EF08F098EF08F081
:10112800010E446EA1EF08F02CA09DEF08F09FEF90
:1011380008F0A1EF08F094EF08F04450D8B4A7EFF6
:1011480008F0A9EF08F0CDEF08F0010E2C26000EEC
:101158002D222E222F222FA0B4EF08F0B6EF08F090
:10116800CDEF08F02CC034F02DC035F02EC036F08D
:101178002FC037F03734373236323532343234C054
:101188002CF035C02DF036C02EF037C02FF03D4A78
:101198003E2A3EBED8EF08F03E5008E13D28D8A0D0
:1011A800D8EF08F0DAEF08F0E5EF08F0000E3E6E31
:1011B8003D68000E2C6E000E2D6E000E2E6E000E79
:1011C8002F6E3EBEF2EF08F03E5006E13D04D8B067
:1011D800F0EF08F0F2EF08F000EF09F0000E3E6EB5
:1011E800000E3D6E000E2C6E000E2D6E000E2E6E43
:1011F800000E2F6E000E3C6E3DC043F043A007EF7B
:1012080009F009EF09F00CEF09F02E8E0DEF09F047
:101218002E9ED89043302F6EC3EF07F012000D6E4C
:101228000D50D8B41AEF09F01CEF09F03EEF09F0A1
:1012380008BE23EF09F021EF09F03EEF09F005C0E1
:1012480009F006C00AF007C00BF008C00CF0091E30
:101258000A1E0B1E0C1E092A000E0A220B220C2243
:1012680009C00FF00AC010F00BC011F00CC012F04A
:1012780046EF09F005C00FF006C010F007C011F0E6
:1012880008C012F00550061007100810D8A44FEF38
:1012980009F051EF09F05BEF09F0000E056E000E42
:1012A800066E000E076E000E086EECEF09F0960E43
:1012B8000E6E65EF09F00E2AD890123211321032F4
:1012C8000F32000E0F14096E000E10140A6E000E75
:1012D80011140B6EFE0E12140C6E09500A100B102E
:1012E8000C10D8A47AEF09F07CEF09F05FEF09F051
:1012F8008AEF09F00E2A010E0F26000E1022112285
:101308001222D8901232113210320F32000E0F14FE
:10131800096E000E10140A6E000E11140B6EFF0EEB
:1013280012140C6E09500A100B100C10D8A49FEF61
:1013380009F0A1EF09F07EEF09F0A9EF09F00E0618
:10134800D8900F3610361136123611BEAEEF09F0AE
:10135800B0EF09F0B8EF09F0020E0E60B6EF09F031
:10136800B8EF09F0A3EF09F00EB0BDEF09F0BFEF39
:1013780009F0C0EF09F0119ED8900E320EC009F0A6
:101388000A6A0B6A0C6A09C00CF00B6A0A6A096AD5
:1013980009500F120A5010120B5011120C50121251
:1013A8000D50D8B4DAEF09F0DCEF09F0E4EF09F0FA
:1013B80008BEE3EF09F0E1EF09F0E4EF09F0128E5F
:1013C8000FC005F010C006F011C007F012C008F0F9
:1013D8001200F1EF09F0074A082A07C0D9FF08C030
:1013E800DAFF200EDE18D8B4FCEF09F0FEEF09F0A2
:1013F800EFEF09F007C0D9FF08C0DAFF090EDE18C1
:10140800D8B409EF0AF00BEF0AF0EFEF09F0000E7D
:101418000D6E000E0C6E000E0B6E07C0D9FF08C0D3
:10142800DAFF2D0EDE18D8A41CEF0AF01EEF0AF022
:1014380023EF0AF00B2A074A082A50EF0AF007C0E0
:10144800D9FF08C0DAFF2B0EDE18D8A42EEF0AF059
:1014580030EF0AF050EF0AF0074A082A50EF0AF076
:101468000CC001F00DC002F0000E046E0A0E036EEF
:1014780099EC0DF007C0D9FF08C0DAFFDF50096EFC
:1014880009500126000E0222D00E01240C6EFF0E18
:1014980002200D6E30EF0AF007C0D9FF08C0DAFF4E
:1014A800DF5080EC0DF0D8B05CEF0AF05EEF0AF088
:1014B80034EF0AF00B50D8B464EF0AF066EF0AF084
:1014C80074EF0AF00CC009F00DC00AF0091E0A1EDC
:1014D800094A0A2A09C007F00AC008F078EF0AF09A
:1014E8000CC007F00DC008F01200473448344E6EA7
:1014F8004E50D8A482EF0AF084EF0AF08EEF0AF07B
:10150800000E456E000E466E000E476E000E486EC9
:10151800FBEF0AF045C049F046C04AF047C04BF01F
:1015280048C04CF0200E9EEF0AF0D8904C324B3257
:101538004A324932E82E99EF0AF049504D6E478EEB
:10154800FF0E4516FF0E4616FF0E4716000E4816EC
:10155800960E4E5E4EBEB5EF0AF0B3EF0AF0CBEF33
:101568000AF04E50800A970FD8B0BDEF0AF0BFEFCF
:101578000AF0C1EF0AF084EF0AF0D89048324732F7
:10158800463245324E3EC1EF0AF0E3EF0AF01F0E35
:101598004E64D1EF0AF0D3EF0AF0DBEF0AF084EFE4
:1015A8000AF0D89045364636473648364E064E50ED
:1015B800D8A4E1EF0AF0E3EF0AF0D5EF0AF04D50B6
:1015C800D8B4E9EF0AF0EBEF0AF0F3EF0AF0481E9F
:1015D800471E461E456C000E46224722482245C03B
:1015E80045F046C046F047C047F048C048F01200F2
:1015F8004FC00DF050C00EF051C00FF052C010F0A7
:10160800570E116E000E126EABEC0BF058BE11EFB8
:101618000BF00FEF0BF01BEF0BF0000E4F6E000EF0
:10162800506E000E516E000E526E55EF0BF0585072
:1016380009E11D0E575CD8A024EF0BF026EF0BF044
:1016480030EF0BF04FC04FF050C050F051C051F088
:1016580052C052F055EF0BF04FC045F050C046F065
:1016680051C047F052C048F079EC0AF045C005F087
:1016780046C006F047C007F048C008F0010E13EC5A
:1016880009F005C053F006C054F007C055F008C073
:1016980056F053C04FF054C050F055C051F056C0EA
:1016A80052F01200000E0114096E000E02140A6EA8
:1016B800800E03140B6E7F0E04140C6E09500A1072
:1016C8000B100C10D8A46BEF0BF06DEF0BF075EF4F
:1016D8000BF0000E016E000E026E000E036E000E7F
:1016E800046E000E0514096E000E06140A6E800EB4
:1016F80007140B6E7F0E08140C6E09500A100B109D
:101708000C10D8A48AEF0BF08CEF0BF094EF0BF0D1
:10171800000E056E000E066E000E076E000E086EB7
:10172800055001180FE1065002180CE10750031884
:1017380009E108500418D8B4A4EF0BF0A6EF0BF099
:10174800A9EF0BF0D890AAEF0BF0D88012000DC0CB
:1017580001F00EC002F00FC003F010C004F0000E3C
:10176800056E000E066E000E076E000E086E56EC33
:101778000BF0D8A0C2EF0BF0C4EF0BF0CEEF0BF0DC
:1017880011C0D9FF12C0DAFF000EDE6E000EDD6E4A
:10179800FCEF0BF010507F0B136E146AD8901336C1
:1017A800143611C0D9FF12C0DAFF13C0DEFF14C00F
:1017B800DDFF0FBEE2EF0BF0E6EF0BF0136A132A22
:1017C800E7EF0BF0136A135011C0D9FF12C0DAFF0C
:1017D800DE12000EDD1211C0D9FF12C0DAFF820E30
:1017E800DE26FF0EDD221050800B3F09106E0F9E83
:1017F800120059C085F05AC086F05BC087F05CC003
:1018080088F059C04FF05AC050F05BC051F05CC02E
:1018180052F0FCEC0AF04FC089F050C08AF051C079
:101828008BF052C08CF0E9EC0CF085C08DF086C0CE
:101838008EF087C08FF088C090F059C001F05AC070
:1018480002F05BC003F05CC004F08DC005F08EC0F0
:1018580006F08FC007F090C008F0D1EC02F001C08C
:1018680059F002C05AF003C05BF004C05CF059C0E4
:101878004FF05AC050F05BC051F05CC052F0FCEC25
:101888000AF04FC059F050C05AF051C05BF052C036
:101898005CF01200026E0104D8A455EF0CF057EF6B
:1018A8000CF058EF0CF08292020E0118D8A45FEFEA
:1018B8000CF061EF0CF062EF0CF08294C9509E9628
:1018C800C69E02C0C9FFC6AE6CEF0CF06EEF0CF0FE
:1018D80070EF0CF08AEF0CF09EA675EF0CF077EF26
:1018E8000CF070EF0CF00104D8A47DEF0CF07FEF42
:1018F8000CF080EF0CF08282020E0118D8A487EF5A
:101908000CF089EF0CF08AEF0CF0828412000104CD
:101918000210D8A492EF0CF094EF0CF095EF0CF0B5
:101928008292020E01180210D8A49DEF0CF09FEFCE
:101938000CF0A0EF0CF08294C9509E96000EC96E70
:101948009EA6A9EF0CF0ABEF0CF0A4EF0CF001048D
:101958000210D8A4B2EF0CF0B4EF0CF0B5EF0CF015
:101968008282020E01180210D8A4BDEF0CF0BFEF5E
:101978000CF0C0EF0CF08284C9501200BC0EF66E59
:101988001B0EF76E000EF86E00EEA8F010EE0EF0CB
:101998000900F5CFEEFFE550E150FAE1CA0EF66E08
:1019A8001B0EF76E000EF86E0900F5CF5DF009000A
:1019B800F5CF5EF000EE60F0250EEE6AE806FDE178
:1019C8005F905F9200014BEF0DF0000E0001891B44
:1019D800000E8A1B000E8B1B800E8C1B85C001F02D
:1019E80086C002F087C003F088C004F089C005F003
:1019F8008AC006F08BC007F08CC008F0D1EC02F06A
:101A080001C085F002C086F003C087F004C088F0EA
:101A18001200000E026E020E016E8BEC0CF0036ECB
:101A28000350D8B41AEF0DF01CEF0DF02BEF0DF0AA
:101A38005D500318D8A423EF0DF025EF0DF027EF24
:101A48000DF02BEF0DF003C076F00001776B12005C
:101A5800000E026E010E016E8BEC0CF0036E03504B
:101A6800D8B439EF0DF03BEF0DF04AEF0DF05E50B2
:101A78000318D8A442EF0DF044EF0DF046EF0DF037
:101A88004AEF0DF003C078F00001796B1200000EE8
:101A9800936EC00E926E959E9598959A959C000EA1
:101AA800966EC290F28EF28CC9EC0DF0BCEC0DF083
:101AB8009494828494928282ACEC0DF062EF0DF0E3
:101AC800CFEF02F002BE6DEF0DF06BEF0DF07BEF84
:101AD8000DF001C003F002C004F0031E041E034A07
:101AE800042A03C001F004C002F07FEF0DF001C02A
:101AF80001F002C002F01200036E000E026E3A0EF0
:101B0800036089EF0DF08BEF0DF095EF0DF02F0EC0
:101B1800036491EF0DF093EF0DF095EF0DF0010ECA
:101B2800026E02C001F00130120001500302F3CF2F
:101B380005F0F4CF06F001500402F35006260250D7
:101B48000302F350062605C001F006C002F0120099
:101B58009D869F869584959695928484400EC76E3F
:101B6800200EC66E9E96000EC26E0F0EC16E12003B
:101B7800F28AD58CD59AD596D594D592D590000E63
:101B8800D76E000ED66ED58E1200949C948EAC94AF
:101B9800AC98AC8AAB8EAB889D8A9D981F0EAF6EB1
:101BA80012009EAADAEF0DF0DCEF0DF0D5EF0DF084
:101BB800AE501200C520303E7B142E3D64003138F3
:041BC8003000646421
:020000040020DA
:08000000FFFFFFFFFFFFFFFF00
:020000040030CA
:0E000000FFCC0F3E3C9985FF0FC00FE00F4074
:00000001FF
