:04000000BDEF02F05E
:100008005F82D9CF93F0DACF94F0F3CF95F0F4CFA5
:1000180096F09EAA12EF00F014EF00F0D0EF00F077
:10002800C6EC0DF00001A76F8351D8B41EEF00F0A5
:1000380020EF00F03CEF00F0030E7F6126EF00F0A8
:1000480028EF00F03CEF00F0A75171EC0DF0D8A0BC
:1000580030EF00F032EF00F03CEF00F0B20E00019C
:100068007F25D96EDA6A000EDA22A7C0DFFF7F2B60
:1000780000018351D8B443EF00F045EF00F053EF8F
:1000880000F0020E7F654BEF00F04DEF00F053EFEC
:1000980000F0000E7F6F000E836F010E816F82519A
:1000A800D8B459EF00F05BEF00F077EF00F0030EE3
:1000B8007E6161EF00F063EF00F077EF00F0A75189
:1000C80071EC0DF0D8A06BEF00F06DEF00F077EF5A
:1000D80000F0B20E00017E25D96EDA6A000EDA222F
:1000E800A7C0DFFF7E2B00018251D8B47EEF00F05D
:1000F80080EF00F08EEF00F0020E7E6586EF00F0D4
:1001080088EF00F08EEF00F0000E7E6F000E826F19
:10011800010E806F420EA719D8A495EF00F097EF53
:1001280000F0AFEF00F0010E826F83BC9EEF00F08D
:10013800A2EF00F0916B912BA4EF00F00001916BFE
:1001480091510108926F923B9247924783509219BE
:10015800BF0B9219836E410EA719D8A4B6EF00F011
:10016800B8EF00F0D0EF00F0010E836F83BCBFEF53
:1001780000F0C3EF00F0916B912BC5EF00F0000188
:10018800916B91510108926F923B9247924783502D
:100198009219BF0B9219836EF2A4D5EF00F0D7EF36
:1001A80000F0B3EF02F000017A4B7B2B7A057B114C
:1001B800D8A4E1EF00F0E3EF00F0E5EF00F0FBEC8E
:1001C8000CF0020E00017A197B11D8A4EEEF00F0B2
:1001D800F0EF00F0F2EF00F01AEC0DF0030E000162
:1001E8007A197B11D8A4FBEF00F0FDEF00F022EFA5
:1001F80002F0EA0E176E760E186ED60E196E3D0EC8
:100208001A6E78517625916F79517721926F91C046
:1002180005F092C006F0000E06BEFF0E076E086ECF
:10022800010E01EC09F005C013F006C014F007C078
:1002380015F008C016F01FEC05F013C0A3F014C0A9
:10024800A4F015C0A5F016C0A6F0000E306E000E82
:10025800316E000E326E400E336EACC017F0ADC07A
:1002680018F0AEC019F0AFC01AF0A3C013F0A4C0C4
:1002780014F0A5C015F0A6C016F01FEC05F013C0C9
:100288002CF014C02DF015C02EF016C02FF034EC51
:1002980007F02CC097F02DC098F02EC099F02FC011
:1002A8009AF0000E176E000E186E800E196E430E2F
:1002B8001A6E97C013F098C014F099C015F09AC040
:1002C80016F01FEC05F013C059F014C05AF015C011
:1002D8005BF016C05CF0EBEC0BF059C09BF05AC019
:1002E8009CF05BC09DF05CC09EF09BC045F09CC03C
:1002F80046F09DC047F09EC048F067EC0AF04550B4
:1003080000017D6F000E176E000E186E000E196E3C
:10031800400E1A6EA8C013F0A9C014F0AAC015F0B8
:10032800ABC016F01FEC05F013C030F014C031F06C
:1003380015C032F016C033F0EA0E176E760E186E3E
:10034800D60E196E3D0E1A6E00017851765D016E5B
:1003580079517759026E57EC0DF001C005F002C0D3
:1003680006F0000E06BEFF0E076E086E010E01ECC9
:1003780009F005C013F006C014F007C015F008C056
:1003880016F01FEC05F013C02CF014C02DF015C0AA
:100398002EF016C02FF034EC07F02CC0A3F02DC0BF
:1003A800A4F02EC0A5F02FC0A6F00A0E176ED70E27
:1003B800186EA30E196E400E1A6EA3C013F0A4C0D7
:1003C80014F0A5C015F0A6C016F01FEC05F013C078
:1003D80059F014C05AF015C05BF016C05CF0EBEC95
:1003E8000BF059C09FF05AC0A0F05BC0A1F05CC0F0
:1003F800A2F09FC045F0A0C046F0A1C047F0A2C03F
:1004080048F067EC0AF0455000017C6F7DC081FF21
:100418007851765D79517759800BD8B416EF02F090
:1004280018EF02F01BEF02F0838E1CEF02F0839EA0
:100438007CC080FF7C45E846030B846E040E7A1965
:100448007B11D8A42AEF02F02CEF02F036EF02F06D
:10045800010E016E5E503CEC0CF0020E016E5D5018
:100468003CEC0CF0050E00017A197B11D8A43FEF83
:1004780002F041EF02F071EF02F07F51D8A447EF8C
:1004880002F049EF02F071EF02F08105D8A44FEFB6
:1004980002F051EF02F071EF02F0000E816FB20E20
:1004A800076E000E086EDBEC09F007505E6E83BA2B
:1004B80060EF02F065EF02F00001916B912B67EF9E
:1004C80002F00001916B91510108926F923B9247A3
:1004D80083509219DF0B9219836E060E7A197B11DD
:1004E800D8A479EF02F07BEF02F0AEEF02F07E5174
:1004F800D8A481EF02F083EF02F0AAEF02F08005A2
:10050800D8A489EF02F08BEF02F0AAEF02F0000EF8
:10051800806FB20E076E000E086EDBEC09F0075014
:100528005D6E83B89AEF02F09FEF02F00001916BC5
:10053800912BA1EF02F00001916B91510108926F8C
:10054800923B83509219EF0B9219836E000E7B6FCA
:10055800000E7A6F100EE82EFED700F000F096C05D
:10056800F4FF95C0F3FF94C0DAFF93C0D9FF5F9200
:100578001100B0EF0CF00450800B0D6E04500424F1
:100588000F6E03AECAEF02F0CCEF02F0CDEF02F02F
:100598000F800F50D8B4D3EF02F0D5EF02F0EAEF96
:1005A80002F00F28D8A4DBEF02F0DDEF02F0E5EF50
:1005B80002F0000E016E000E026E000E036E000EB9
:1005C800046E038E000E046EF2EF02F0000E016E50
:1005D800000E026E000E036E000E046E0850800BB3
:1005E8000E6E0D500E18D8B4FCEF02F0FEEF02F0BC
:1005F800FFEF02F00D8C085008240E6E07AE07EFCF
:1006080003F009EF03F00AEF03F00E800E50D8B4A0
:1006180010EF03F012EF03F027EF03F00E28D8A431
:1006280018EF03F01AEF03F022EF03F0000E056E47
:10063800000E066E000E076E000E086E078E000E86
:10064800086E2FEF03F0000E056E000E066E000E0A
:10065800076E000E086E0F500E5CD8B036EF03F030
:1006680038EF03F05FEF03F00DAC3DEF03F03FEF21
:1006780003F041EF03F0800E0D1A0FC010F00EC00A
:100688000FF010C00EF001C010F005C001F010C04E
:1006980005F002C010F006C002F010C006F003C05A
:1006A80010F007C003F010C007F004C010F008C035
:1006B80004F010C008F0000E106E0F500EC009F0C4
:1006C8000A6A095E000E0A5A0ABE74EF03F00A505D
:1006D80009E11A0E095CD8A074EF03F076EF03F075
:1006E800ADEF03F00150021003100410D8A47FEFFF
:1006F80003F082EF03F0010E83EF03F0000E106E9B
:10070800000E016E000E026E000E036E000E046EE7
:100718000EC00FF0B6EF03F010A095EF03F097EFBF
:1007280003F09DEF03F0D89010300109106E9FEF91
:1007380003F0D890103201A0A4EF03F0A6EF03F065
:10074800A7EF03F0108E0434043203320232013270
:100758000F2A0E500F5CD8A0B4EF03F0B6EF03F0E9
:1007680090EF03F00DBCBBEF03F0BDEF03F0FDEF1E
:1007780003F00F50D8A4C3EF03F0C5EF03F0CFEF99
:1007880003F0000E016E000E026E000E036E000EE6
:10079800046E1EEF05F00550012606500222075090
:1007A80003220850042204A0DCEF03F0DEEF03F07C
:1007B8008AEF04F010A0E3EF03F0E5EF03F0EBEFAE
:1007C80003F0D89010300109106EEDEF03F0D890C7
:1007D800103201A0F2EF03F0F4EF03F0F5EF03F0AD
:1007E800108E043404320332023201320F2A8AEFA7
:1007F80004F00550015C0650025807500358045095
:10080800800A096E0850800A0958D8B00EEF04F023
:1008180010EF04F03BEF04F00150055C096E025044
:1008280006580A6E035007580B6E045008580C6E91
:10083800FF0E0924016EFF0E0A20026EFF0E0B2028
:10084800036EFF0E0C20046E800E0D1A106C1050F3
:10085800D8A431EF04F033EF04F043EF04F0010EB5
:100868000126000E02220322042243EF04F0055061
:10087800015E0650025A0750035A0850045A0150A4
:10088800021003100410D8A44CEF04F04EEF04F04B
:1008980083EF04F01050D8A454EF04F056EF04F09E
:1008A80083EF04F0000E016E000E026E000E036E60
:1008B800000E046E1EEF05F0D8900136023603369E
:1008C800043610AE6AEF04F06CEF04F06DEF04F03C
:1008D800018010A072EF04F074EF04F078EF04F0D8
:1008E800D88010367AEF04F0D89010360F50D8B46C
:1008F80080EF04F082EF04F083EF04F00F0603AEFC
:1009080088EF04F08AEF04F060EF04F0000E0E6E3A
:1009180010AE91EF04F093EF04F0ABEF04F010C0C9
:1009280009F07F0E0916D8B49CEF04F09EEF04F08E
:10093800A2EF04F0010E0E6EABEF04F001A0A7EFDA
:1009480004F0A9EF04F0ABEF04F09EEF04F00E50B2
:10095800D8B4B1EF04F0B3EF04F0DEEF04F0010E09
:100968000126000E02220322042204A0BEEF04F096
:10097800C0EF04F0DEEF04F001C009F002C00AF095
:1009880003C00BF004C00CF00C340C320B320A32EA
:10099800093209C001F00AC002F00BC003F00CC014
:1009A80004F00F28D8B4DBEF04F0DDEF04F0DEEF3D
:1009B80004F00F2A0F28D8B4E4EF04F0E6EF04F0AF
:1009C800EEEF04F00F50D8A4ECEF04F0EEEF04F0D3
:1009D80000EF05F0000E016E000E026E000E036EB1
:1009E800000E046E0F50D8A4FCEF04F0FEEF04F0E4
:1009F80000EF05F0000E0D6E0FA005EF05F007EFF4
:100A080005F00AEF05F0038E0BEF05F0039ED89072
:100A18000F30046E0DAE13EF05F015EF05F016EF6D
:100A280005F0048E01C001F002C002F003C003F01B
:100A380004C004F012001650800B1F6E16501624C6
:100A4800256E15AE2AEF05F02CEF05F02DEF05F019
:100A580025802550D8B433EF05F035EF05F048EF81
:100A680005F02528D8A43BEF05F03DEF05F045EF4C
:100A780005F0000E136E000E146E000E156E000EBB
:100A8800166E158E50EF05F0000E136E000E146EE4
:100A9800000E156E000E166E1A50800B1F1A1A5093
:100AA8001A24246E19AE5BEF05F05DEF05F05EEFDA
:100AB80005F024802450D8B464EF05F066EF05F003
:100AC80079EF05F02428D8A46CEF05F06EEF05F057
:100AD80076EF05F0000E176E000E186E000E196EF8
:100AE800000E1A6E198E81EF05F0000E176E000EBB
:100AF800186E000E196E000E1A6E2450D8B487EFC7
:100B080005F089EF05F091EF05F02550D8A48FEF97
:100B180005F091EF05F09BEF05F0000E136E000E47
:100B2800146E000E156E000E166E33EF07F0195096
:100B38001302F3CF2AF0F4CF2BF02A50206E216A4B
:100B4800226A236A2B50266E276A286A296A185057
:100B58001402F3CF2AF0F4CF2BF02A502026000EEF
:100B68002122222223222B502626000E2722282249
:100B7800292217501502F3CF2AF0F4CF2BF02A5070
:100B88002026000E2122222223222B502626000E68
:100B980027222822292222C023F021C022F020C0A7
:100BA80021F0206A17501402F3CF2AF0F4CF2BF06B
:100BB8002A5020262B502122000E2222000E23220A
:100BC80018501302F3CF2AF0F4CF2BF02A50202626
:100BD8002B502122000E2222000E232222C023F0B5
:100BE80021C022F020C021F0206A17501302F3CF51
:100BF8002AF0F4CF2BF02A5020262B502122000E69
:100C08002222000E232219501402F3CF2AF0F4CF27
:100C18002BF02A5026262B502722000E2822000EC1
:100C2800292218501502F3CF2AF0F4CF2BF02A50BE
:100C380026262B502722000E2822000E2922195082
:100C48001502F3CF2AF0F4CF2BF02A501B6E2B504D
:100C58001C6E1D6A1E6A1DC01EF01CC01DF01BC044
:100C68001CF01B6A1B5026261C5027221D502822C8
:100C78001E50292220C01BF021C01CF022C01DF0EC
:100C880023C01EF0190E4EEF06F0D8901E321D320A
:100C98001C321B32E82E49EF06F01B5026261C504A
:100CA80027221D5028221E50292222C023F021C0AD
:100CB80022F020C021F0206A245025C01BF01C6AB5
:100CC8001B26000E1C22820E1B242A6EFF0E1C20DF
:100CD8002B6E84EF06F0D89026362736283629362C
:100CE80023AE79EF06F07BEF06F07CEF06F0268066
:100CF800D89020362136223623362A06D8A02B064D
:100D080028AE89EF06F08BEF06F06FEF06F0000EC5
:100D1800246E23AE92EF06F094EF06F0B8EF06F0DB
:100D2800FF0E20141B6EFF0E21141C6EFF0E2214E2
:100D38001D6E7F0E23141E6E1B501C101D101E10DE
:100D4800D8B4A9EF06F0ABEF06F0AFEF06F0010E4E
:100D5800246EB8EF06F026A0B4EF06F0B6EF06F062
:100D6800B8EF06F0ABEF06F02450D8B4BEEF06F0AB
:100D7800C0EF06F0E4EF06F0010E2626000E27224B
:100D88002822292229A0CBEF06F0CDEF06F0E4EFC8
:100D980006F026C01BF027C01CF028C01DF029C093
:100DA8001EF01E341E321D321C321B321BC026F0B0
:100DB8001CC027F01DC028F01EC029F02A4A2B2A83
:100DC8002BBEEFEF06F02B5008E12A28D8A0EFEF52
:100DD80006F0F1EF06F0FBEF06F0000E266E000EAF
:100DE800276E800E286E7F0E296E29EF07F02BBE26
:100DF80008EF07F02B5006E12A04D8B006EF07F0F9
:100E080008EF07F014EF07F0000E266E000E276EAD
:100E1800000E286E000E296E000E1F6E29EF07F0D7
:100E28002AC025F0FF0E2616FF0E27167F0E28165D
:100E3800000E291625A023EF07F025EF07F026EF6F
:100E480007F0288ED8902530296E1F50291226C009
:100E580013F027C014F028C015F029C016F01200AE
:100E68002F50800B3C6E2F502F24436E2EAE3FEF39
:100E780007F041EF07F042EF07F043804350D8B442
:100E880048EF07F04AEF07F05FEF07F04328D8A4D0
:100E980050EF07F052EF07F05AEF07F0000E2C6EF4
:100EA800000E2D6E000E2E6E000E2F6E2E8E000E72
:100EB8002F6E67EF07F0000E2C6E000E2D6E000EE1
:100EC8002E6E000E2F6E3350800B3C1A3350332495
:100ED800446E32AE72EF07F074EF07F075EF07F06B
:100EE80044804450D8B47BEF07F07DEF07F092EFD1
:100EF80007F04428D8A483EF07F085EF07F08DEFBB
:100F080007F0000E306E000E316E000E326E000ECD
:100F1800336E328E000E336E9AEF07F0000E306E8D
:100F2800000E316E000E326E000E336E30503110EE
:100F380032103310D8A4A3EF07F0A5EF07F0BDEFE8
:100F480007F0000E2C6E000E2D6E000E2E6E000E99
:100F58002F6E800E2E127F0E2F123C502F122CC097
:100F68002CF02DC02DF02EC02EF02FC02FF000EF4A
:100F780009F04350D8A4C3EF07F0C5EF07F0CFEF4F
:100F880007F0000E2C6E000E2D6E000E2E6E000E59
:100F98002F6E00EF09F0445043C034F0356A345ED8
:100FA800000E355A7F0E34243D6E000E35203E6EFD
:100FB8002CC038F02DC039F02EC03AF02FC03BF0CD
:100FC800000E2C6E000E2D6E000E2E6E000E2F6E73
:100FD800000E3F6E000E406E000E416E000E426E17
:100FE800000E446E30EF08F04450D8B4FEEF07F01E
:100FF80000EF08F017EF08F0D890383639363A364F
:101008003B36D8902C362D362E362F3642AE0FEF83
:1010180008F011EF08F012EF08F02C80D8903F3656
:101028004036413642363050385C315039583250AB
:101038003A5833503B58D8A024EF08F026EF08F070
:101048002FEF08F0428C3050385E3150395A325008
:101058003A5A33503B5A442A190E446436EF08F082
:1010680038EF08F0F8EF07F0385039103A103B1015
:10107800D8B441EF08F043EF08F05BEF08F03F8089
:101088005BEF08F0D8902C362D362E362F3642AE30
:1010980050EF08F052EF08F053EF08F02C80D8908A
:1010A8003F364036413642363D06D8A03E062EAE83
:1010B80060EF08F062EF08F046EF08F0000E446EAB
:1010C80042AE69EF08F06BEF08F08FEF08F0FF0E03
:1010D8003F14346EFF0E4014356EFF0E4114366E09
:1010E8007F0E4214376E3450351036103710D8B48E
:1010F80080EF08F082EF08F086EF08F0010E446EEA
:101108008FEF08F02CA08BEF08F08DEF08F08FEF31
:1011180008F082EF08F04450D8B495EF08F097EF44
:1011280008F0BBEF08F0010E2C26000E2D222E220F
:101138002F222FA0A2EF08F0A4EF08F0BBEF08F0D1
:101148002CC034F02DC035F02EC036F02FC037F04B
:101158003734373236323532343234C02CF035C079
:101168002DF036C02EF037C02FF03D4A3E2A3EBE45
:10117800C6EF08F03E5008E13D28D8A0C6EF08F0B9
:10118800C8EF08F0D3EF08F0000E3E6E3D68000E81
:101198002C6E000E2D6E000E2E6E000E2F6E3EBEB3
:1011A800E0EF08F03E5006E13D04D8B0DEEF08F06D
:1011B800E0EF08F0EEEF08F0000E3E6E000E3D6E18
:1011C800000E2C6E000E2D6E000E2E6E000E2F6E71
:1011D800000E3C6E3DC043F043A0F5EF08F0F7EF7A
:1011E80008F0FAEF08F02E8EFBEF08F02E9ED8904C
:1011F80043302F6EB1EF07F012000D6E0D50D8B4CA
:1012080008EF09F00AEF09F02CEF09F008BE11EF1A
:1012180009F00FEF09F02CEF09F005C009F006C03E
:101228000AF007C00BF008C00CF0091E0A1E0B1EBE
:101238000C1E092A000E0A220B220C2209C00FF0EC
:101248000AC010F00BC011F00CC012F034EF09F016
:1012580005C00FF006C010F007C011F008C012F06A
:101268000550061007100810D8A43DEF09F03FEF0D
:1012780009F049EF09F0000E056E000E066E000E2B
:10128800076E000E086EDAEF09F0960E0E6E53EF39
:1012980009F00E2AD8901232113210320F32000E95
:1012A8000F14096E000E10140A6E000E11140B6E46
:1012B800FE0E12140C6E09500A100B100C10D8A454
:1012C80068EF09F06AEF09F04DEF09F078EF09F0DF
:1012D8000E2A010E0F26000E102211221222D8907B
:1012E8001232113210320F32000E0F14096E000E36
:1012F80010140A6E000E11140B6EFF0E12140C6EF1
:1013080009500A100B100C10D8A48DEF09F08FEFBC
:1013180009F06CEF09F097EF09F00E06D8900F3638
:1013280010361136123611BE9CEF09F09EEF09F007
:10133800A6EF09F0020E0E60A4EF09F0A6EF09F07F
:1013480091EF09F00EB0ABEF09F0ADEF09F0AEEF99
:1013580009F0119ED8900E320EC009F00A6A0B6A85
:101368000C6A09C00CF00B6A0A6A096A09500F1264
:101378000A5010120B5011120C5012120D50D8B402
:10138800C8EF09F0CAEF09F0D2EF09F008BED1EFB3
:1013980009F0CFEF09F0D2EF09F0128E0FC005F077
:1013A80010C006F011C007F012C008F01200DFEFFD
:1013B80009F0074A082A07C0D9FF08C0DAFF200E3B
:1013C800DE18D8B4EAEF09F0ECEF09F0DDEF09F028
:1013D80007C0D9FF08C0DAFF090EDE18D8B4F7EF46
:1013E80009F0F9EF09F0DDEF09F0000E0D6E000EBF
:1013F8000C6E000E0B6E07C0D9FF08C0DAFF2D0E69
:10140800DE18D8A40AEF0AF00CEF0AF011EF0AF080
:101418000B2A074A082A3EEF0AF007C0D9FF08C07E
:10142800DAFF2B0EDE18D8A41CEF0AF01EEF0AF024
:101438003EEF0AF0074A082A3EEF0AF00CC001F016
:101448000DC002F0000E046E0A0E036E8AEC0DF059
:1014580007C0D9FF08C0DAFFDF50096E095001261E
:10146800000E0222D00E01240C6EFF0E02200D6E1B
:101478001EEF0AF007C0D9FF08C0DAFFDF5071EC91
:101488000DF0D8B04AEF0AF04CEF0AF022EF0AF05C
:101498000B50D8B452EF0AF054EF0AF062EF0AF09A
:1014A8000CC009F00DC00AF0091E0A1E094A0A2AD2
:1014B80009C007F00AC008F066EF0AF00CC007F090
:1014C8000DC008F01200473448344E6E4E50D8A470
:1014D80070EF0AF072EF0AF07CEF0AF0000E456E2A
:1014E800000E466E000E476E000E486EE9EF0AF0D9
:1014F80045C049F046C04AF047C04BF048C04CF0E0
:10150800200E8CEF0AF0D8904C324B324A324932D6
:10151800E82E87EF0AF049504D6E478EFF0E4516AC
:10152800FF0E4616FF0E4716000E4816960E4E5E24
:101538004EBEA3EF0AF0A1EF0AF0B9EF0AF04E5041
:10154800800A970FD8B0ABEF0AF0ADEF0AF0AFEF13
:101558000AF072EF0AF0D8904832473246324532E4
:101568004E3EAFEF0AF0D1EF0AF01F0E4E64BFEF08
:101578000AF0C1EF0AF0C9EF0AF072EF0AF0D8904A
:1015880045364636473648364E064E50D8A4CFEF35
:101598000AF0D1EF0AF0C3EF0AF04D50D8B4D7EFF4
:1015A8000AF0D9EF0AF0E1EF0AF0481E471E461E7E
:1015B800456C000E46224722482245C045F046C0E9
:1015C80046F047C047F048C048F012004FC00DF041
:1015D80050C00EF051C00FF052C010F0570E116EEF
:1015E800000E126E99EC0BF058BEFFEF0AF0FDEFFB
:1015F8000AF009EF0BF0000E4F6E000E506E000E51
:10160800516E000E526E43EF0BF0585009E11D0E5B
:10161800575CD8A012EF0BF014EF0BF01EEF0BF095
:101628004FC04FF050C050F051C051F052C052F06E
:1016380043EF0BF04FC045F050C046F051C047F0A3
:1016480052C048F067EC0AF045C005F046C006F005
:1016580047C007F048C008F0010E01EC09F005C0CA
:1016680053F006C054F007C055F008C056F053C0F8
:101678004FF054C050F055C051F056C052F012000F
:10168800000E0114096E000E02140A6E800E031477
:101698000B6E7F0E04140C6E09500A100B100C1000
:1016A800D8A459EF0BF05BEF0BF063EF0BF0000ED3
:1016B800016E000E026E000E036E000E046E000E28
:1016C8000514096E000E06140A6E800E07140B6EC0
:1016D8007F0E08140C6E09500A100B100C10D8A4B9
:1016E80078EF0BF07AEF0BF082EF0BF0000E056E3F
:1016F800000E066E000E076E000E086E05500118EB
:101708000FE1065002180CE10750031809E10850D0
:101718000418D8B492EF0BF094EF0BF097EF0BF09E
:10172800D89098EF0BF0D88012000DC001F00EC0D1
:1017380002F00FC003F010C004F0000E056E000E9A
:10174800066E000E076E000E086E44EC0BF0D8A073
:10175800B0EF0BF0B2EF0BF0BCEF0BF011C0D9FFFC
:1017680012C0DAFF000EDE6E000EDD6EEAEF0BF03F
:1017780010507F0B136E146AD8901336143611C0AC
:10178800D9FF12C0DAFF13C0DEFF14C0DDFF0FBEA1
:10179800D0EF0BF0D4EF0BF0136A132AD5EF0BF050
:1017A800136A135011C0D9FF12C0DAFFDE12000EFF
:1017B800DD1211C0D9FF12C0DAFF820EDE26FF0E3D
:1017C800DD221050800B3F09106E0F9E120059C089
:1017D80085F05AC086F05BC087F05CC088F059C0BD
:1017E8004FF05AC050F05BC051F05CC052F0EAECC8
:1017F8000AF04FC089F050C08AF051C08BF052C037
:101808008CF0D7EC0CF085C08DF086C08EF087C0C8
:101818008FF088C090F059C001F05AC002F05BC048
:1018280003F05CC004F08DC005F08EC006F08FC0D8
:1018380007F090C008F0BFEC02F001C059F002C0F8
:101848005AF003C05BF004C05CF059C04FF05AC0B6
:1018580050F05BC051F05CC052F0EAEC0AF04FC0A7
:1018680059F050C05AF051C05BF052C05CF0120001
:10187800026E0104D8A443EF0CF045EF0CF046EFDC
:101888000CF08292020E0118D8A44DEF0CF04FEF25
:101898000CF050EF0CF08294C9509E96C69E02C080
:1018A800C9FFC6AE5AEF0CF05CEF0CF05EEF0CF01F
:1018B80078EF0CF09EA663EF0CF065EF0CF05EEF8E
:1018C8000CF00104D8A46BEF0CF06DEF0CF06EEF88
:1018D8000CF08282020E0118D8A475EF0CF077EF95
:1018E8000CF078EF0CF08284120001040210D8A4E6
:1018F80080EF0CF082EF0CF083EF0CF08292020E76
:1019080001180210D8A48BEF0CF08DEF0CF08EEFBD
:101918000CF08294C9509E96000EC96E9EA697EF51
:101928000CF099EF0CF092EF0CF001040210D8A41F
:10193800A0EF0CF0A2EF0CF0A3EF0CF08282020EE5
:1019480001180210D8A4ABEF0CF0ADEF0CF0AEEF1D
:101958000CF08284C95012009E0EF66E1B0EF76EB4
:10196800000EF86E00EEA8F010EE0EF00900F5CFAC
:10197800EEFFE550E150FAE1AC0EF66E1B0EF76E85
:10198800000EF86E0900F5CF5DF00900F5CF5EF0A6
:1019980000EE60F0250EEE6AE806FDE15F905F92CA
:1019A800000139EF0DF0000E0001891B000E8A1BA3
:1019B800000E8B1B800E8C1B85C001F086C002F0C8
:1019C80087C003F088C004F089C005F08AC006F01B
:1019D8008BC007F08CC008F0BFEC02F001C085F0A6
:1019E80002C086F003C087F004C088F01200000E21
:1019F800026E020E016E79EC0CF0036E0350D8B43F
:101A080008EF0DF00AEF0DF019EF0DF05D50031817
:101A1800D8A411EF0DF013EF0DF015EF0DF019EF3D
:101A28000DF003C076F00001776B1200000E026E15
:101A3800010E016E79EC0CF0036E0350D8B427EF59
:101A48000DF029EF0DF038EF0DF05E500318D8A413
:101A580030EF0DF032EF0DF034EF0DF038EF0DF000
:101A680003C078F00001796B1200000E936EC00E6F
:101A7800926E959E9598959A959C8398839A839C47
:101A8800000E966EC290F28EF28CBAEC0DF0ADECB0
:101A98000DF094948284949282829DEC0DF053EF21
:101AA8000DF0BDEF02F002BE5EEF0DF05CEF0DF041
:101AB8006CEF0DF001C003F002C004F0031E041E19
:101AC800034A042A03C001F004C002F070EF0DF0CD
:101AD80001C001F002C002F01200036E000E026E97
:101AE8003A0E03607AEF0DF07CEF0DF086EF0DF003
:101AF8002F0E036482EF0DF084EF0DF086EF0DF0EA
:101B0800010E026E02C001F0013012000150030202
:101B1800F3CF05F0F4CF06F001500402F350062687
:101B280002500302F350062605C001F006C002F079
:101B380012009D869F869584959695928484400E82
:101B4800C76E200EC66E9E96000EC26E0F0EC16E38
:101B58001200F28AD58CD59AD596D584D582D580AF
:101B6800000ED76E000ED66ED58E1200949C948E01
:101B7800AC94AC98AC8AAB8EAB889D8A9D981F0EAE
:101B8800AF6E12009EAACBEF0DF0CDEF0DF0C6EFB1
:101B98000DF0AE501200C520303E7B142E3D64007F
:061BA80031383000B4B436
:020000040020DA
:08000000FFFFFFFFFFFFFFFF00
:020000040030CA
:0E000000FFCC0F3E3C9985FF0FC00FE00F4074
:00000001FF
